{
  "transactions": [
    {
      "hash": "0x22cc05e45a5201bfed35503f3420eeca498993a0c5ec3256d576717c15f08ba9",
      "transactionType": "CALL",
      "contractName": null,
      "contractAddress": "0xda0b11d93728fa7f2d0bd2e154b8107fcafd5b28",
      "function": "setValuationTokens(address,address)",
      "arguments": [
        "0x729b67AA1B2F740DA96D445c365Fc07369600EBb",
        "0xB2614c8E833ef0Caafccc4978D366378ae383169"
      ],
      "transaction": {
        "from": "0x973c770d78e4183dc5464a819ba154e2d26d9048",
        "to": "0xda0b11d93728fa7f2d0bd2e154b8107fcafd5b28",
        "gas": "0x174ab",
        "value": "0x0",
        "input": "0x0600bfe8000000000000000000000000729b67aa1b2f740da96d445c365fc07369600ebb000000000000000000000000b2614c8e833ef0caafccc4978d366378ae383169",
        "nonce": "0xb6",
        "chainId": "0xc488"
      },
      "additionalContracts": [],
      "isFixedGasLimit": false
    }
  ],
  "receipts": [],
  "libraries": [],
  "pending": [],
  "returns": {},
  "timestamp": 1755099297,
  "chain": 50312,
  "commit": null
}