{
  "transactions": [
    {
      "hash": "0x59d4658e036fcd8c6f6af1a2ea34a525a4fb1923838015ce104d41546beae651",
      "transactionType": "CALL",
      "contractName": null,
      "contractAddress": "0x581c414663bbaf0257c024433da937b3431ede68",
      "function": "setArena(address)",
      "arguments": [
        "0x3b44b8d6FD3826842D0D6d5C0b35b19da57a1C3c"
      ],
      "transaction": {
        "from": "0x973c770d78e4183dc5464a819ba154e2d26d9048",
        "to": "0x581c414663bbaf0257c024433da937b3431ede68",
        "value": "0x0",
        "input": "0x1bd5ff280000000000000000000000003b44b8d6fd3826842d0d6d5c0b35b19da57a1c3c",
        "nonce": "0x9d",
        "chainId": "0xc488"
      },
      "additionalContracts": [],
      "isFixedGasLimit": false
    },
    {
      "hash": "0xa708f23c409b7f078187384aee80c3a590dc6ba443a1c97e4e38f538f4a3a713",
      "transactionType": "CALL",
      "contractName": null,
      "contractAddress": "0x3b44b8d6fd3826842d0d6d5c0b35b19da57a1c3c",
      "function": "setValuationTokens(address,address)",
      "arguments": [
        "0x53269f744a67dCd869be483C3805DE87903d8545",
        "0xB2614c8E833ef0Caafccc4978D366378ae383169"
      ],
      "transaction": {
        "from": "0x973c770d78e4183dc5464a819ba154e2d26d9048",
        "to": "0x3b44b8d6fd3826842d0d6d5c0b35b19da57a1c3c",
        "value": "0x0",
        "input": "0x0600bfe800000000000000000000000053269f744a67dcd869be483c3805de87903d8545000000000000000000000000b2614c8e833ef0caafccc4978d366378ae383169",
        "nonce": "0x9e",
        "chainId": "0xc488"
      },
      "additionalContracts": [],
      "isFixedGasLimit": false
    }
  ],
  "receipts": [
    {
      "status": "0x1",
      "cumulativeGasUsed": "0x0",
      "logs": [],
      "logsBloom": "0x00000000000000000000000000000000000000000000000000000000000000000000000000000000000000000000000000000000000000000000000000000000000000000000000000000000000000000000000000000000000000000000000000000000000000000000000000000000000000000000000000000000000000000000000000000000000000000000000000000000000000000000000000000000000000000000000000000000000000000000000000000000000000000000000000000000000000000000000000000000000000000000000000000000000000000000000000000000000000000000000000000000000000000000000000000000",
      "type": "0x2",
      "transactionHash": "0x59d4658e036fcd8c6f6af1a2ea34a525a4fb1923838015ce104d41546beae651",
      "transactionIndex": "0x0",
      "blockHash": "0x6ec8deb63037fe3face09bf2b6733036cc1e3f4dbae4f9f7ec726b5df47950f3",
      "blockNumber": "0x8db5db3",
      "gasUsed": "0x379db",
      "effectiveGasPrice": "0x165a0bc00",
      "from": "0x973c770d78e4183dc5464a819ba154e2d26d9048",
      "to": "0x581c414663bbaf0257c024433da937b3431ede68",
      "contractAddress": null
    },
    {
      "status": "0x1",
      "cumulativeGasUsed": "0x4c724",
      "logs": [],
      "logsBloom": "0x00000000000000000000000000000000000000000000000000000000000000000000000000000000000000000000000000000000000000000000000000000000000000000000000000000000000000000000000000000000000000000000000000000000000000000000000000000000000000000000000000000000000000000000000000000000000000000000000000000000000000000000000000000000000000000000000000000000000000000000000000000000000000000000000000000000000000000000000000000000000000000000000000000000000000000000000000000000000000000000000000000000000000000000000000000000",
      "type": "0x2",
      "transactionHash": "0xa708f23c409b7f078187384aee80c3a590dc6ba443a1c97e4e38f538f4a3a713",
      "transactionIndex": "0x3",
      "blockHash": "0x040e779e996d706cdcbbec6919a8df2e6d0dd07040c966d320ea1e06c642f425",
      "blockNumber": "0x8db5dcb",
      "gasUsed": "0x69cd3",
      "effectiveGasPrice": "0x165a0bc00",
      "from": "0x973c770d78e4183dc5464a819ba154e2d26d9048",
      "to": "0x3b44b8d6fd3826842d0d6d5c0b35b19da57a1c3c",
      "contractAddress": null
    }
  ],
  "libraries": [],
  "pending": [],
  "returns": {},
  "timestamp": 1755080963,
  "chain": 50312,
  "commit": null
}