{
  "transactions": [
    {
      "hash": "0x10484fa0e4253fdb78d9c62092ea4927d86dc7473ed69ea2f62e747b4df9034f",
      "transactionType": "CALL",
      "contractName": null,
      "contractAddress": "0x729b67aa1b2f740da96d445c365fc07369600ebb",
      "function": "approve(address,uint256)",
      "arguments": [
        "0xC2C8E09E4768Bd4694Ab8Dc66191629383c2f389",
        "190000000000000000000"
      ],
      "transaction": {
        "from": "0x973c770d78e4183dc5464a819ba154e2d26d9048",
        "to": "0x729b67aa1b2f740da96d445c365fc07369600ebb",
        "value": "0x0",
        "input": "0x095ea7b3000000000000000000000000c2c8e09e4768bd4694ab8dc66191629383c2f38900000000000000000000000000000000000000000000000a4cc799563c380000",
        "nonce": "0xa5",
        "chainId": "0xc488"
      },
      "additionalContracts": [],
      "isFixedGasLimit": false
    },
    {
      "hash": "0x94cc417eeff54890489f81740c4f252e7991eaa7a207f1c2a5f128f1100cac39",
      "transactionType": "CALL",
      "contractName": null,
      "contractAddress": "0x2feba17aaf40adb4fdb579ac82721be359dc2782",
      "function": "approve(address,uint256)",
      "arguments": [
        "0xC2C8E09E4768Bd4694Ab8Dc66191629383c2f389",
        "100000000000000000000"
      ],
      "transaction": {
        "from": "0x973c770d78e4183dc5464a819ba154e2d26d9048",
        "to": "0x2feba17aaf40adb4fdb579ac82721be359dc2782",
        "value": "0x0",
        "input": "0x095ea7b3000000000000000000000000c2c8e09e4768bd4694ab8dc66191629383c2f3890000000000000000000000000000000000000000000000056bc75e2d63100000",
        "nonce": "0xa6",
        "chainId": "0xc488"
      },
      "additionalContracts": [],
      "isFixedGasLimit": false
    },
    {
      "hash": "0x1a179b8f8559259f1bad352c88c2ac6c6082f7780622587b6bff8c0d298019b4",
      "transactionType": "CALL",
      "contractName": null,
      "contractAddress": "0xc2c8e09e4768bd4694ab8dc66191629383c2f389",
      "function": "addLiquidity(address,address,uint256,uint256)",
      "arguments": [
        "0x729b67AA1B2F740DA96D445c365Fc07369600EBb",
        "0x2FEBa17aaF40Adb4fdB579ac82721Be359DC2782",
        "190000000000000000000",
        "100000000000000000000"
      ],
      "transaction": {
        "from": "0x973c770d78e4183dc5464a819ba154e2d26d9048",
        "to": "0xc2c8e09e4768bd4694ab8dc66191629383c2f389",
        "value": "0x0",
        "input": "0xcf6c62ea000000000000000000000000729b67aa1b2f740da96d445c365fc07369600ebb0000000000000000000000002feba17aaf40adb4fdb579ac82721be359dc278200000000000000000000000000000000000000000000000a4cc799563c3800000000000000000000000000000000000000000000000000056bc75e2d63100000",
        "nonce": "0xa7",
        "chainId": "0xc488"
      },
      "additionalContracts": [],
      "isFixedGasLimit": false
    }
  ],
  "receipts": [
    {
      "status": "0x1",
      "cumulativeGasUsed": "0xc8b2a",
      "logs": [
        {
          "address": "0x729b67aa1b2f740da96d445c365fc07369600ebb",
          "topics": [
            "0x8c5be1e5ebec7d5bd14f71427d1e84f3dd0314c0f7b2291e5b200ac8c7c3b925",
            "0x000000000000000000000000973c770d78e4183dc5464a819ba154e2d26d9048",
            "0x000000000000000000000000c2c8e09e4768bd4694ab8dc66191629383c2f389"
          ],
          "data": "0x00000000000000000000000000000000000000000000000a4cc799563c380000",
          "blockHash": "0x4bf44c3ff1f8e5e782dcc0484a04f7bfc3ba84cba44f2b180dfd37e88146d3cb",
          "blockNumber": "0x8db9723",
          "transactionHash": "0x10484fa0e4253fdb78d9c62092ea4927d86dc7473ed69ea2f62e747b4df9034f",
          "transactionIndex": "0x8",
          "logIndex": "0xa",
          "removed": false
        }
      ],
      "logsBloom": "0x00000000000000000000000000040000000000000000000000000000000000000000000000000000000000000000000000000000000000000000000000200000000000000000000000000000000000000000000000000000000000000000000080020000000000000000000000000000000000000010000000000000000000000800000000000000000000000000000000000000000000000000000000000000020000000001000000000000000000000000000000000000008000000000000000000000000000000000040000000000000000000000000000000000000000000010000000000000000000000000000000000000000000200000000000000000",
      "type": "0x2",
      "transactionHash": "0x10484fa0e4253fdb78d9c62092ea4927d86dc7473ed69ea2f62e747b4df9034f",
      "transactionIndex": "0x8",
      "blockHash": "0x4bf44c3ff1f8e5e782dcc0484a04f7bfc3ba84cba44f2b180dfd37e88146d3cb",
      "blockNumber": "0x8db9723",
      "gasUsed": "0x3fa6c",
      "effectiveGasPrice": "0x165a0bc00",
      "from": "0x973c770d78e4183dc5464a819ba154e2d26d9048",
      "to": "0x729b67aa1b2f740da96d445c365fc07369600ebb",
      "contractAddress": null
    },
    {
      "status": "0x1",
      "cumulativeGasUsed": "0x6be90",
      "logs": [
        {
          "address": "0x2feba17aaf40adb4fdb579ac82721be359dc2782",
          "topics": [
            "0x8c5be1e5ebec7d5bd14f71427d1e84f3dd0314c0f7b2291e5b200ac8c7c3b925",
            "0x000000000000000000000000973c770d78e4183dc5464a819ba154e2d26d9048",
            "0x000000000000000000000000c2c8e09e4768bd4694ab8dc66191629383c2f389"
          ],
          "data": "0x0000000000000000000000000000000000000000000000056bc75e2d63100000",
          "blockHash": "0xab1fdc7b0b42ee4f137c34b9fec01e13587857873201e0030153b12adba4c55c",
          "blockNumber": "0x8db973c",
          "transactionHash": "0x94cc417eeff54890489f81740c4f252e7991eaa7a207f1c2a5f128f1100cac39",
          "transactionIndex": "0x2",
          "logIndex": "0x0",
          "removed": false
        }
      ],
      "logsBloom": "0x00000000000000000000000000040000000000800000000000000000000000000000000000000000000000000000000000000000000000000000000000200000000000000000000000000000000000000000000000000000000000000000000080020000000000000000000000000000000000000000000000000000000000000000000000000000000000000000000000000000000000000000000000000000020000000001000000000000000000000000000000000000008000000000000000000000000000000000040000000008000000000000000000000000000000000010000000000000001000000000000000000000000000000000000000000000",
      "type": "0x2",
      "transactionHash": "0x94cc417eeff54890489f81740c4f252e7991eaa7a207f1c2a5f128f1100cac39",
      "transactionIndex": "0x2",
      "blockHash": "0xab1fdc7b0b42ee4f137c34b9fec01e13587857873201e0030153b12adba4c55c",
      "blockNumber": "0x8db973c",
      "gasUsed": "0x3fa6c",
      "effectiveGasPrice": "0x165a0bc00",
      "from": "0x973c770d78e4183dc5464a819ba154e2d26d9048",
      "to": "0x2feba17aaf40adb4fdb579ac82721be359dc2782",
      "contractAddress": null
    },
    {
      "status": "0x1",
      "cumulativeGasUsed": "0x1254b1",
      "logs": [
        {
          "address": "0x729b67aa1b2f740da96d445c365fc07369600ebb",
          "topics": [
            "0xddf252ad1be2c89b69c2b068fc378daa952ba7f163c4a11628f55a4df523b3ef",
            "0x000000000000000000000000973c770d78e4183dc5464a819ba154e2d26d9048",
            "0x000000000000000000000000c2c8e09e4768bd4694ab8dc66191629383c2f389"
          ],
          "data": "0x00000000000000000000000000000000000000000000000a4cc799563c380000",
          "blockHash": "0x09f6a86c33dc736810d085c6f4c7ee5e8cd34724663f194f5ce9fd19a04e0aa5",
          "blockNumber": "0x8db9757",
          "transactionHash": "0x1a179b8f8559259f1bad352c88c2ac6c6082f7780622587b6bff8c0d298019b4",
          "transactionIndex": "0x8",
          "logIndex": "0x7",
          "removed": false
        },
        {
          "address": "0x2feba17aaf40adb4fdb579ac82721be359dc2782",
          "topics": [
            "0xddf252ad1be2c89b69c2b068fc378daa952ba7f163c4a11628f55a4df523b3ef",
            "0x000000000000000000000000973c770d78e4183dc5464a819ba154e2d26d9048",
            "0x000000000000000000000000c2c8e09e4768bd4694ab8dc66191629383c2f389"
          ],
          "data": "0x0000000000000000000000000000000000000000000000056bc75e2d63100000",
          "blockHash": "0x09f6a86c33dc736810d085c6f4c7ee5e8cd34724663f194f5ce9fd19a04e0aa5",
          "blockNumber": "0x8db9757",
          "transactionHash": "0x1a179b8f8559259f1bad352c88c2ac6c6082f7780622587b6bff8c0d298019b4",
          "transactionIndex": "0x8",
          "logIndex": "0x8",
          "removed": false
        },
        {
          "address": "0xc2c8e09e4768bd4694ab8dc66191629383c2f389",
          "topics": [
            "0x36f3b2e1a21c19137dd82ec243b0708a1d26b3d1fa1dc49c44c4c366a5878138",
            "0x000000000000000000000000729b67aa1b2f740da96d445c365fc07369600ebb",
            "0x0000000000000000000000002feba17aaf40adb4fdb579ac82721be359dc2782"
          ],
          "data": "0x00000000000000000000000000000000000000000000000a4cc799563c3800000000000000000000000000000000000000000000000000056bc75e2d63100000",
          "blockHash": "0x09f6a86c33dc736810d085c6f4c7ee5e8cd34724663f194f5ce9fd19a04e0aa5",
          "blockNumber": "0x8db9757",
          "transactionHash": "0x1a179b8f8559259f1bad352c88c2ac6c6082f7780622587b6bff8c0d298019b4",
          "transactionIndex": "0x8",
          "logIndex": "0x9",
          "removed": false
        }
      ],
      "logsBloom": "0x00000000000100000080000000040000000000800000000000000000000000000020080000000000000040000000000000000000000000000000000000000000000000000200000000000808000000000000000000000000000000000000000080020000000000000000000000004000000080000010000000000010000000000800000000000000000000000000000000000000000000000000000000000000000000000001000000000000000002000000000000000000008000000000000000000002000000000000040000000108000000000000000000000000000000000000000000000000001000000000000000000000000000200000000000200000",
      "type": "0x2",
      "transactionHash": "0x1a179b8f8559259f1bad352c88c2ac6c6082f7780622587b6bff8c0d298019b4",
      "transactionIndex": "0x8",
      "blockHash": "0x09f6a86c33dc736810d085c6f4c7ee5e8cd34724663f194f5ce9fd19a04e0aa5",
      "blockNumber": "0x8db9757",
      "gasUsed": "0xeaba2",
      "effectiveGasPrice": "0x165a0bc00",
      "from": "0x973c770d78e4183dc5464a819ba154e2d26d9048",
      "to": "0xc2c8e09e4768bd4694ab8dc66191629383c2f389",
      "contractAddress": null
    }
  ],
  "libraries": [],
  "pending": [],
  "returns": {},
  "timestamp": 1755082446,
  "chain": 50312,
  "commit": null
}