{
  "transactions": [
    {
      "hash": "0x14d5c6ff44790949c67a787a578b9e9273ea63edd3903337d1b62820091f0bb1",
      "transactionType": "CALL",
      "contractName": null,
      "contractAddress": "0xe5a57692c50a563ae5dd8110c72df6870bf7e106",
      "function": "setValuationTokens(address,address)",
      "arguments": [
        "0x729b67AA1B2F740DA96D445c365Fc07369600EBb",
        "0x2FEBa17aaF40Adb4fdB579ac82721Be359DC2782"
      ],
      "transaction": {
        "from": "0x973c770d78e4183dc5464a819ba154e2d26d9048",
        "to": "0xe5a57692c50a563ae5dd8110c72df6870bf7e106",
        "value": "0x0",
        "input": "0x0600bfe8000000000000000000000000729b67aa1b2f740da96d445c365fc07369600ebb0000000000000000000000002feba17aaf40adb4fdb579ac82721be359dc2782",
        "nonce": "0xaa",
        "chainId": "0xc488"
      },
      "additionalContracts": [],
      "isFixedGasLimit": false
    },
    {
      "hash": "0x54d47c0ec42fc0f7bac7392bd997077793b3e03398567a48f2b28d4b8a19f30a",
      "transactionType": "CREATE",
      "contractName": "SimpleMomentumStrategy",
      "contractAddress": "0x9e2c0267918b605dbd6411256ba7721a4f0cc4fd",
      "function": null,
      "arguments": [
        "0x5751727946F90eA235feF74AA989b8145b7b62aE",
        "0xE5a57692C50A563AE5dd8110c72dF6870BF7E106"
      ],
      "transaction": {
        "from": "0x973c770d78e4183dc5464a819ba154e2d26d9048",
        "value": "0x0",
        "input": "0x60c06040526107d0600155348015610015575f5ffd5b50604051610ec4380380610ec483398181016040528101906100379190610150565b8173ffffffffffffffffffffffffffffffffffffffff1660808173ffffffffffffffffffffffffffffffffffffffff16815250508073ffffffffffffffffffffffffffffffffffffffff1660a08173ffffffffffffffffffffffffffffffffffffffff1681525050505061018e565b5f5ffd5b5f73ffffffffffffffffffffffffffffffffffffffff82169050919050565b5f6100d3826100aa565b9050919050565b5f6100e4826100c9565b9050919050565b6100f4816100da565b81146100fe575f5ffd5b50565b5f8151905061010f816100eb565b92915050565b5f61011f826100c9565b9050919050565b61012f81610115565b8114610139575f5ffd5b50565b5f8151905061014a81610126565b92915050565b5f5f60408385031215610166576101656100a6565b5b5f61017385828601610101565b92505060206101848582860161013c565b9150509250929050565b60805160a051610cd66101ee5f395f8181610137015281816101c701528181610257015281816105f60152818161061c015281816106ac015261073c01525f818161030c015281816103a90152818161049f01526105cc0152610cd65ff3fe608060405234801561000f575f5ffd5b5060043610610060575f3560e01c8063046956611461006457806318e784db146100825780632861e3e0146100b55780637b103999146100d15780639a213d4f146100ef578063fd3705f91461010d575b5f5ffd5b61006c61012b565b6040516100799190610879565b60405180910390f35b61009c600480360381019061009791906108c0565b610130565b6040516100ac9493929190610944565b60405180910390f35b6100cf60048036038101906100ca91906108c0565b61057b565b005b6100d96105ca565b6040516100e691906109e2565b60405180910390f35b6100f76105ee565b6040516101049190610879565b60405180910390f35b6101156105f4565b6040516101229190610a1b565b60405180910390f35b5f5481565b5f5f5f5f5f7f000000000000000000000000000000000000000000000000000000000000000073ffffffffffffffffffffffffffffffffffffffff16630fc63d106040518163ffffffff1660e01b8152600401602060405180830381865afa15801561019e573d5f5f3e3d5ffd5b505050506040513d601f19601f820116820180604052508101906101c29190610a5e565b90505f7f000000000000000000000000000000000000000000000000000000000000000073ffffffffffffffffffffffffffffffffffffffff16635f64b55b6040518163ffffffff1660e01b8152600401602060405180830381865afa15801561022e573d5f5f3e3d5ffd5b505050506040513d601f19601f820116820180604052508101906102529190610a5e565b90505f7f000000000000000000000000000000000000000000000000000000000000000073ffffffffffffffffffffffffffffffffffffffff1663217a4b706040518163ffffffff1660e01b8152600401602060405180830381865afa1580156102be573d5f5f3e3d5ffd5b505050506040513d601f19601f820116820180604052508101906102e29190610a5e565b90505f6102ed610618565b90505f5f5f54146102ff575f54610301565b815b90505f81831190505f7f000000000000000000000000000000000000000000000000000000000000000073ffffffffffffffffffffffffffffffffffffffff1663865ed3308d896040518363ffffffff1660e01b8152600401610365929190610a89565b602060405180830381865afa158015610380573d5f5f3e3d5ffd5b505050506040513d601f19601f820116820180604052508101906103a49190610ac4565b90505f7f000000000000000000000000000000000000000000000000000000000000000073ffffffffffffffffffffffffffffffffffffffff1663865ed3308e896040518363ffffffff1660e01b8152600401610402929190610a89565b602060405180830381865afa15801561041d573d5f5f3e3d5ffd5b505050506040513d601f19601f820116820180604052508101906104419190610ac4565b9050821561047157869a50879950612710600154826104609190610b1c565b61046a9190610b8a565b9850610495565b879a50869950612710600154836104889190610b1c565b6104929190610b8a565b98505b5f8903610567575f7f000000000000000000000000000000000000000000000000000000000000000073ffffffffffffffffffffffffffffffffffffffff1663865ed3308f896040518363ffffffff1660e01b81526004016104f8929190610a89565b602060405180830381865afa158015610513573d5f5f3e3d5ffd5b505050506040513d601f19601f820116820180604052508101906105379190610ac4565b90505f81111561056557869b50889a50612710600154826105589190610b1c565b6105629190610b8a565b99505b505b5f89119b5050505050505050509193509193565b6113888111156105c0576040517f08c379a00000000000000000000000000000000000000000000000000000000081526004016105b790610c14565b60405180910390fd5b8060018190555050565b7f000000000000000000000000000000000000000000000000000000000000000081565b60015481565b7f000000000000000000000000000000000000000000000000000000000000000081565b5f5f7f000000000000000000000000000000000000000000000000000000000000000073ffffffffffffffffffffffffffffffffffffffff16630fc63d106040518163ffffffff1660e01b8152600401602060405180830381865afa158015610683573d5f5f3e3d5ffd5b505050506040513d601f19601f820116820180604052508101906106a79190610a5e565b90505f7f000000000000000000000000000000000000000000000000000000000000000073ffffffffffffffffffffffffffffffffffffffff16635f64b55b6040518163ffffffff1660e01b8152600401602060405180830381865afa158015610713573d5f5f3e3d5ffd5b505050506040513d601f19601f820116820180604052508101906107379190610a5e565b90505f7f000000000000000000000000000000000000000000000000000000000000000073ffffffffffffffffffffffffffffffffffffffff16634837e2046040518163ffffffff1660e01b8152600401602060405180830381865afa1580156107a3573d5f5f3e3d5ffd5b505050506040513d601f19601f820116820180604052508101906107c79190610a5e565b73ffffffffffffffffffffffffffffffffffffffff16634aa066528484670de0b6b3a76400006040518463ffffffff1660e01b815260040161080b93929190610c6b565b602060405180830381865afa158015610826573d5f5f3e3d5ffd5b505050506040513d601f19601f8201168201806040525081019061084a9190610ac4565b90505f810361085857600190505b80935050505090565b5f819050919050565b61087381610861565b82525050565b5f60208201905061088c5f83018461086a565b92915050565b5f5ffd5b61089f81610861565b81146108a9575f5ffd5b50565b5f813590506108ba81610896565b92915050565b5f602082840312156108d5576108d4610892565b5b5f6108e2848285016108ac565b91505092915050565b5f8115159050919050565b6108ff816108eb565b82525050565b5f73ffffffffffffffffffffffffffffffffffffffff82169050919050565b5f61092e82610905565b9050919050565b61093e81610924565b82525050565b5f6080820190506109575f8301876108f6565b6109646020830186610935565b6109716040830185610935565b61097e606083018461086a565b95945050505050565b5f819050919050565b5f6109aa6109a56109a084610905565b610987565b610905565b9050919050565b5f6109bb82610990565b9050919050565b5f6109cc826109b1565b9050919050565b6109dc816109c2565b82525050565b5f6020820190506109f55f8301846109d3565b92915050565b5f610a05826109b1565b9050919050565b610a15816109fb565b82525050565b5f602082019050610a2e5f830184610a0c565b92915050565b610a3d81610924565b8114610a47575f5ffd5b50565b5f81519050610a5881610a34565b92915050565b5f60208284031215610a7357610a72610892565b5b5f610a8084828501610a4a565b91505092915050565b5f604082019050610a9c5f83018561086a565b610aa96020830184610935565b9392505050565b5f81519050610abe81610896565b92915050565b5f60208284031215610ad957610ad8610892565b5b5f610ae684828501610ab0565b91505092915050565b7f4e487b71000000000000000000000000000000000000000000000000000000005f52601160045260245ffd5b5f610b2682610861565b9150610b3183610861565b9250828202610b3f81610861565b91508282048414831517610b5657610b55610aef565b5b5092915050565b7f4e487b71000000000000000000000000000000000000000000000000000000005f52601260045260245ffd5b5f610b9482610861565b9150610b9f83610861565b925082610baf57610bae610b5d565b5b828204905092915050565b5f82825260208201905092915050565b7f4d41585f353025000000000000000000000000000000000000000000000000005f82015250565b5f610bfe600783610bba565b9150610c0982610bca565b602082019050919050565b5f6020820190508181035f830152610c2b81610bf2565b9050919050565b5f819050919050565b5f610c55610c50610c4b84610c32565b610987565b610861565b9050919050565b610c6581610c3b565b82525050565b5f606082019050610c7e5f830186610935565b610c8b6020830185610935565b610c986040830184610c5c565b94935050505056fea26469706673582212201d674cc3e8bcdd181324b7d0eac081329ecc55d6fcfb98f51a1b72e95e9cf4ed64736f6c634300081e00330000000000000000000000005751727946f90ea235fef74aa989b8145b7b62ae000000000000000000000000e5a57692c50a563ae5dd8110c72df6870bf7e106",
        "nonce": "0xab",
        "chainId": "0xc488"
      },
      "additionalContracts": [],
      "isFixedGasLimit": false
    },
    {
      "hash": "0xf7afb64810837d52d8221597033dad0f63be0220b961c7e4f76309acbba49513",
      "transactionType": "CALL",
      "contractName": null,
      "contractAddress": "0x5751727946f90ea235fef74aa989b8145b7b62ae",
      "function": "mintBot(address,address,string)",
      "arguments": [
        "0x973c770D78e4183dC5464A819Ba154e2d26d9048",
        "0x9E2C0267918B605dbd6411256ba7721a4f0Cc4fD",
        "ipfs://your-bot-metadata-uri"
      ],
      "transaction": {
        "from": "0x973c770d78e4183dc5464a819ba154e2d26d9048",
        "to": "0x5751727946f90ea235fef74aa989b8145b7b62ae",
        "value": "0x0",
        "input": "0x598e8cca000000000000000000000000973c770d78e4183dc5464a819ba154e2d26d90480000000000000000000000009e2c0267918b605dbd6411256ba7721a4f0cc4fd0000000000000000000000000000000000000000000000000000000000000060000000000000000000000000000000000000000000000000000000000000001c697066733a2f2f796f75722d626f742d6d657461646174612d75726900000000",
        "nonce": "0xac",
        "chainId": "0xc488"
      },
      "additionalContracts": [],
      "isFixedGasLimit": false
    },
    {
      "hash": "0x3e067e4089fb3256c18f149b0e34005484bd1d3dc079809f3ab94033947a0f59",
      "transactionType": "CALL",
      "contractName": null,
      "contractAddress": "0x5751727946f90ea235fef74aa989b8145b7b62ae",
      "function": "setStrategy(uint256,address)",
      "arguments": [
        "1",
        "0x9E2C0267918B605dbd6411256ba7721a4f0Cc4fD"
      ],
      "transaction": {
        "from": "0x973c770d78e4183dc5464a819ba154e2d26d9048",
        "to": "0x5751727946f90ea235fef74aa989b8145b7b62ae",
        "value": "0x0",
        "input": "0xfaac432500000000000000000000000000000000000000000000000000000000000000010000000000000000000000009e2c0267918b605dbd6411256ba7721a4f0cc4fd",
        "nonce": "0xad",
        "chainId": "0xc488"
      },
      "additionalContracts": [],
      "isFixedGasLimit": false
    },
    {
      "hash": "0xa84048bceb6b4e9fa9726cc3f9a68dd95600c3bd42b956cdbca25ecb24704ffd",
      "transactionType": "CALL",
      "contractName": null,
      "contractAddress": "0x729b67aa1b2f740da96d445c365fc07369600ebb",
      "function": "transfer(address,uint256)",
      "arguments": [
        "0x5751727946F90eA235feF74AA989b8145b7b62aE",
        "100000000000000000000"
      ],
      "transaction": {
        "from": "0x973c770d78e4183dc5464a819ba154e2d26d9048",
        "to": "0x729b67aa1b2f740da96d445c365fc07369600ebb",
        "value": "0x0",
        "input": "0xa9059cbb0000000000000000000000005751727946f90ea235fef74aa989b8145b7b62ae0000000000000000000000000000000000000000000000056bc75e2d63100000",
        "nonce": "0xae",
        "chainId": "0xc488"
      },
      "additionalContracts": [],
      "isFixedGasLimit": false
    },
    {
      "hash": "0x1d116ff84301d74c2cc8662fb49caca6f108c80e1f145d65ec2be17f7abcfc2f",
      "transactionType": "CALL",
      "contractName": null,
      "contractAddress": "0x2feba17aaf40adb4fdb579ac82721be359dc2782",
      "function": "transfer(address,uint256)",
      "arguments": [
        "0x5751727946F90eA235feF74AA989b8145b7b62aE",
        "50000000000000000000"
      ],
      "transaction": {
        "from": "0x973c770d78e4183dc5464a819ba154e2d26d9048",
        "to": "0x2feba17aaf40adb4fdb579ac82721be359dc2782",
        "value": "0x0",
        "input": "0xa9059cbb0000000000000000000000005751727946f90ea235fef74aa989b8145b7b62ae000000000000000000000000000000000000000000000002b5e3af16b1880000",
        "nonce": "0xaf",
        "chainId": "0xc488"
      },
      "additionalContracts": [],
      "isFixedGasLimit": false
    },
    {
      "hash": null,
      "transactionType": "CALL",
      "contractName": null,
      "contractAddress": "0xe5a57692c50a563ae5dd8110c72df6870bf7e106",
      "function": "initializeBot(uint256,uint256)",
      "arguments": [
        "1",
        "150000000000000000000"
      ],
      "transaction": {
        "from": "0x973c770d78e4183dc5464a819ba154e2d26d9048",
        "to": "0xe5a57692c50a563ae5dd8110c72df6870bf7e106",
        "value": "0x0",
        "input": "0x9e2a7de7000000000000000000000000000000000000000000000000000000000000000100000000000000000000000000000000000000000000000821ab0d4414980000",
        "nonce": "0xb0",
        "chainId": "0xc488"
      },
      "additionalContracts": [],
      "isFixedGasLimit": false
    }
  ],
  "receipts": [
    {
      "status": "0x1",
      "cumulativeGasUsed": "0xfed6",
      "logs": [],
      "logsBloom": "0x00000000000000000000000000000000000000000000000000000000000000000000000000000000000000000000000000000000000000000000000000000000000000000000000000000000000000000000000000000000000000000000000000000000000000000000000000000000000000000000000000000000000000000000000000000000000000000000000000000000000000000000000000000000000000000000000000000000000000000000000000000000000000000000000000000000000000000000000000000000000000000000000000000000000000000000000000000000000000000000000000000000000000000000000000000000",
      "type": "0x2",
      "transactionHash": "0x14d5c6ff44790949c67a787a578b9e9273ea63edd3903337d1b62820091f0bb1",
      "transactionIndex": "0x1",
      "blockHash": "0xbf12d24065b3304cb02e0cdb2916a6b370309ccf79e25e041d18461de536bdbd",
      "blockNumber": "0x8dcf5eb",
      "gasUsed": "0x69cd3",
      "effectiveGasPrice": "0x165a0bc00",
      "from": "0x973c770d78e4183dc5464a819ba154e2d26d9048",
      "to": "0xe5a57692c50a563ae5dd8110c72df6870bf7e106",
      "contractAddress": null
    },
    {
      "status": "0x1",
      "cumulativeGasUsed": "0x31ccec",
      "logs": [],
      "logsBloom": "0x00000000000000000000000000000000000000000000000000000000000000000000000000000000000000000000000000000000000000000000000000000000000000000000000000000000000000000000000000000000000000000000000000000000000000000000000000000000000000000000000000000000000000000000000000000000000000000000000000000000000000000000000000000000000000000000000000000000000000000000000000000000000000000000000000000000000000000000000000000000000000000000000000000000000000000000000000000000000000000000000000000000000000000000000000000000",
      "type": "0x2",
      "transactionHash": "0x54d47c0ec42fc0f7bac7392bd997077793b3e03398567a48f2b28d4b8a19f30a",
      "transactionIndex": "0x8",
      "blockHash": "0x27a75f456732a72dce0f64aacedc9ae714ac390cd5814c989a3216be6647efa1",
      "blockNumber": "0x8dcf605",
      "gasUsed": "0xb01026",
      "effectiveGasPrice": "0x165a0bc00",
      "from": "0x973c770d78e4183dc5464a819ba154e2d26d9048",
      "to": "0x0000000000000000000000000000000000000000",
      "contractAddress": "0x9e2c0267918b605dbd6411256ba7721a4f0cc4fd"
    },
    {
      "status": "0x1",
      "cumulativeGasUsed": "0x122fd2",
      "logs": [
        {
          "address": "0x5751727946f90ea235fef74aa989b8145b7b62ae",
          "topics": [
            "0xddf252ad1be2c89b69c2b068fc378daa952ba7f163c4a11628f55a4df523b3ef",
            "0x0000000000000000000000000000000000000000000000000000000000000000",
            "0x000000000000000000000000973c770d78e4183dc5464a819ba154e2d26d9048",
            "0x0000000000000000000000000000000000000000000000000000000000000001"
          ],
          "data": "0x",
          "blockHash": "0x58b7dd297c48c562ef2c03cf49f02be8e9ed6a00f7c9fab4191a36e6ded53dbb",
          "blockNumber": "0x8dcf625",
          "transactionHash": "0xf7afb64810837d52d8221597033dad0f63be0220b961c7e4f76309acbba49513",
          "transactionIndex": "0x6",
          "logIndex": "0xc",
          "removed": false
        },
        {
          "address": "0x5751727946f90ea235fef74aa989b8145b7b62ae",
          "topics": [
            "0xf8e1a15aba9398e019f0b49df1a4fde98ee17ae345cb5f6b5e2c27f5033e8ce7"
          ],
          "data": "0x0000000000000000000000000000000000000000000000000000000000000001",
          "blockHash": "0x58b7dd297c48c562ef2c03cf49f02be8e9ed6a00f7c9fab4191a36e6ded53dbb",
          "blockNumber": "0x8dcf625",
          "transactionHash": "0xf7afb64810837d52d8221597033dad0f63be0220b961c7e4f76309acbba49513",
          "transactionIndex": "0x6",
          "logIndex": "0xd",
          "removed": false
        },
        {
          "address": "0x5751727946f90ea235fef74aa989b8145b7b62ae",
          "topics": [
            "0x72bfbe7decacf8bb4ea5e9d9361bded547eb654c929b2358aab4bb88d8ca1f0a",
            "0x0000000000000000000000000000000000000000000000000000000000000001",
            "0x000000000000000000000000973c770d78e4183dc5464a819ba154e2d26d9048"
          ],
          "data": "0x0000000000000000000000009e2c0267918b605dbd6411256ba7721a4f0cc4fd0000000000000000000000000000000000000000000000000000000000000040000000000000000000000000000000000000000000000000000000000000001c697066733a2f2f796f75722d626f742d6d657461646174612d75726900000000",
          "blockHash": "0x58b7dd297c48c562ef2c03cf49f02be8e9ed6a00f7c9fab4191a36e6ded53dbb",
          "blockNumber": "0x8dcf625",
          "transactionHash": "0xf7afb64810837d52d8221597033dad0f63be0220b961c7e4f76309acbba49513",
          "transactionIndex": "0x6",
          "logIndex": "0xe",
          "removed": false
        }
      ],
      "logsBloom": "0x00000000000000000000000020000000000000000000000000000000000000000000000000000000000800000000000000000000000000000000000000040000000000000000000000000008000000000000000000040010000000000000000080000000020000000000000000000800000000000000000000000010000000000000000000000000000000000000000000000000000000000010000000000000000000000000000000000000000000002000000000000000008000000000008000000002000000000000040000000000000000000000000000000000000060000000000000000000210000000000000000000000000040000000000000000000",
      "type": "0x2",
      "transactionHash": "0xf7afb64810837d52d8221597033dad0f63be0220b961c7e4f76309acbba49513",
      "transactionIndex": "0x6",
      "blockHash": "0x58b7dd297c48c562ef2c03cf49f02be8e9ed6a00f7c9fab4191a36e6ded53dbb",
      "blockNumber": "0x8dcf625",
      "gasUsed": "0x177eda",
      "effectiveGasPrice": "0x165a0bc00",
      "from": "0x973c770d78e4183dc5464a819ba154e2d26d9048",
      "to": "0x5751727946f90ea235fef74aa989b8145b7b62ae",
      "contractAddress": null
    },
    {
      "status": "0x1",
      "cumulativeGasUsed": "0x161d0e",
      "logs": [
        {
          "address": "0x5751727946f90ea235fef74aa989b8145b7b62ae",
          "topics": [
            "0x0961628e3a897604e54509dbd098d00cb4b779d14cbdde39bb7e3ffa9ad3d179",
            "0x0000000000000000000000000000000000000000000000000000000000000001",
            "0x0000000000000000000000009e2c0267918b605dbd6411256ba7721a4f0cc4fd",
            "0x0000000000000000000000009e2c0267918b605dbd6411256ba7721a4f0cc4fd"
          ],
          "data": "0x",
          "blockHash": "0x3ccf7b7b9c68c1563fbb96b0c243eec78b7e3b0c114d99845352c42575794e6e",
          "blockNumber": "0x8dcf642",
          "transactionHash": "0x3e067e4089fb3256c18f149b0e34005484bd1d3dc079809f3ab94033947a0f59",
          "transactionIndex": "0x9",
          "logIndex": "0xe",
          "removed": false
        }
      ],
      "logsBloom": "0x00000000000004000000000020002000000000000000000000000000000000000000000000000000000800000004002000000000001000000000000000040000000000000000000000000000000000000000000000040000000000000000000000000000000000000000000000000000000000000000000000000000000000000000000000000000000000000000000000000000000000000000000000000000000000080000000000000000000000000000000000000000000000000000000000000000000000000000000000000000000000000000000000000000000040000000000000000000010000000000000000000000000000000000000000000000",
      "type": "0x2",
      "transactionHash": "0x3e067e4089fb3256c18f149b0e34005484bd1d3dc079809f3ab94033947a0f59",
      "transactionIndex": "0x9",
      "blockHash": "0x3ccf7b7b9c68c1563fbb96b0c243eec78b7e3b0c114d99845352c42575794e6e",
      "blockNumber": "0x8dcf642",
      "gasUsed": "0xf57c",
      "effectiveGasPrice": "0x165a0bc00",
      "from": "0x973c770d78e4183dc5464a819ba154e2d26d9048",
      "to": "0x5751727946f90ea235fef74aa989b8145b7b62ae",
      "contractAddress": null
    },
    {
      "status": "0x1",
      "cumulativeGasUsed": "0x8b53",
      "logs": [
        {
          "address": "0x729b67aa1b2f740da96d445c365fc07369600ebb",
          "topics": [
            "0xddf252ad1be2c89b69c2b068fc378daa952ba7f163c4a11628f55a4df523b3ef",
            "0x000000000000000000000000973c770d78e4183dc5464a819ba154e2d26d9048",
            "0x0000000000000000000000005751727946f90ea235fef74aa989b8145b7b62ae"
          ],
          "data": "0x0000000000000000000000000000000000000000000000056bc75e2d63100000",
          "blockHash": "0x44432996cc99e794279919f7178dc1f24082d8f0faef8e45d1c040f07e6b7698",
          "blockNumber": "0x8dcf662",
          "transactionHash": "0xa84048bceb6b4e9fa9726cc3f9a68dd95600c3bd42b956cdbca25ecb24704ffd",
          "transactionIndex": "0x1",
          "logIndex": "0x1",
          "removed": false
        }
      ],
      "logsBloom": "0x00000000000000000000000000000000000000000000000000000000800000000000000000000000000000000000000000000000000000000000000000000000000000000000000000000008000000000000000000000000000000080000000080000000000000000000000000000000000000000010000000000010000000000800000000000000000000000000000000000000000000000000000000000000000000000000000000000000000000000000000000000000008000000000000000000002000000000000040000000000000000000000000000000000000000000000000000000000000000000000000000000000000000200000000000000080",
      "type": "0x2",
      "transactionHash": "0xa84048bceb6b4e9fa9726cc3f9a68dd95600c3bd42b956cdbca25ecb24704ffd",
      "transactionIndex": "0x1",
      "blockHash": "0x44432996cc99e794279919f7178dc1f24082d8f0faef8e45d1c040f07e6b7698",
      "blockNumber": "0x8dcf662",
      "gasUsed": "0x4038b",
      "effectiveGasPrice": "0x165a0bc00",
      "from": "0x973c770d78e4183dc5464a819ba154e2d26d9048",
      "to": "0x729b67aa1b2f740da96d445c365fc07369600ebb",
      "contractAddress": null
    },
    {
      "status": "0x1",
      "cumulativeGasUsed": "0xdd5b",
      "logs": [
        {
          "address": "0x2feba17aaf40adb4fdb579ac82721be359dc2782",
          "topics": [
            "0xddf252ad1be2c89b69c2b068fc378daa952ba7f163c4a11628f55a4df523b3ef",
            "0x000000000000000000000000973c770d78e4183dc5464a819ba154e2d26d9048",
            "0x0000000000000000000000005751727946f90ea235fef74aa989b8145b7b62ae"
          ],
          "data": "0x000000000000000000000000000000000000000000000002b5e3af16b1880000",
          "blockHash": "0xe078dd9185267e892cace4aa008f4ce633d3745677a1cab2e22ea672482f72b9",
          "blockNumber": "0x8dcf67a",
          "transactionHash": "0x1d116ff84301d74c2cc8662fb49caca6f108c80e1f145d65ec2be17f7abcfc2f",
          "transactionIndex": "0x2",
          "logIndex": "0x1",
          "removed": false
        }
      ],
      "logsBloom": "0x00000000000000000000000000000000000000800000000000000000800000000000000000000000000000000000000000000000000000000000000000000000000000000000000000000008000000000000000000000000000000080000000080000000000000000000000000000000000000000000000000000010000000000000000000000000000000000000000000000000000000000000000000000000000000000000000000000000000000000000000000000000008000000000000000000002000000000000040000000008000000000000000000000000000000000000000000000000001000000000000000000000000000000000000000000080",
      "type": "0x2",
      "transactionHash": "0x1d116ff84301d74c2cc8662fb49caca6f108c80e1f145d65ec2be17f7abcfc2f",
      "transactionIndex": "0x2",
      "blockHash": "0xe078dd9185267e892cace4aa008f4ce633d3745677a1cab2e22ea672482f72b9",
      "blockNumber": "0x8dcf67a",
      "gasUsed": "0x4038b",
      "effectiveGasPrice": "0x165a0bc00",
      "from": "0x973c770d78e4183dc5464a819ba154e2d26d9048",
      "to": "0x2feba17aaf40adb4fdb579ac82721be359dc2782",
      "contractAddress": null
    }
  ],
  "libraries": [],
  "pending": [],
  "returns": {},
  "timestamp": 1755091493,
  "chain": 50312,
  "commit": null
}