{
  "transactions": [
    {
      "hash": "0x6f707ad813029a69cb718933153cb7ee49c94c88764ee9f96cc6e06be3b97a7f",
      "transactionType": "CREATE",
      "contractName": "SimpleMomentumStrategy",
      "contractAddress": "0x94bc338ea3e7e74804a2d7f71394e047fe9abbea",
      "function": null,
      "arguments": [
        "0x5751727946F90eA235feF74AA989b8145b7b62aE",
        "0xDa0b11d93728Fa7F2d0bd2E154b8107FCAFd5B28"
      ],
      "transaction": {
        "from": "0x973c770d78e4183dc5464a819ba154e2d26d9048",
        "value": "0x0",
        "input": "0x60c06040526107d0600155348015610015575f5ffd5b50604051610ec4380380610ec483398181016040528101906100379190610150565b8173ffffffffffffffffffffffffffffffffffffffff1660808173ffffffffffffffffffffffffffffffffffffffff16815250508073ffffffffffffffffffffffffffffffffffffffff1660a08173ffffffffffffffffffffffffffffffffffffffff1681525050505061018e565b5f5ffd5b5f73ffffffffffffffffffffffffffffffffffffffff82169050919050565b5f6100d3826100aa565b9050919050565b5f6100e4826100c9565b9050919050565b6100f4816100da565b81146100fe575f5ffd5b50565b5f8151905061010f816100eb565b92915050565b5f61011f826100c9565b9050919050565b61012f81610115565b8114610139575f5ffd5b50565b5f8151905061014a81610126565b92915050565b5f5f60408385031215610166576101656100a6565b5b5f61017385828601610101565b92505060206101848582860161013c565b9150509250929050565b60805160a051610cd66101ee5f395f8181610137015281816101c701528181610257015281816105f60152818161061c015281816106ac015261073c01525f818161030c015281816103a90152818161049f01526105cc0152610cd65ff3fe608060405234801561000f575f5ffd5b5060043610610060575f3560e01c8063046956611461006457806318e784db146100825780632861e3e0146100b55780637b103999146100d15780639a213d4f146100ef578063fd3705f91461010d575b5f5ffd5b61006c61012b565b6040516100799190610879565b60405180910390f35b61009c600480360381019061009791906108c0565b610130565b6040516100ac9493929190610944565b60405180910390f35b6100cf60048036038101906100ca91906108c0565b61057b565b005b6100d96105ca565b6040516100e691906109e2565b60405180910390f35b6100f76105ee565b6040516101049190610879565b60405180910390f35b6101156105f4565b6040516101229190610a1b565b60405180910390f35b5f5481565b5f5f5f5f5f7f000000000000000000000000000000000000000000000000000000000000000073ffffffffffffffffffffffffffffffffffffffff16630fc63d106040518163ffffffff1660e01b8152600401602060405180830381865afa15801561019e573d5f5f3e3d5ffd5b505050506040513d601f19601f820116820180604052508101906101c29190610a5e565b90505f7f000000000000000000000000000000000000000000000000000000000000000073ffffffffffffffffffffffffffffffffffffffff16635f64b55b6040518163ffffffff1660e01b8152600401602060405180830381865afa15801561022e573d5f5f3e3d5ffd5b505050506040513d601f19601f820116820180604052508101906102529190610a5e565b90505f7f000000000000000000000000000000000000000000000000000000000000000073ffffffffffffffffffffffffffffffffffffffff1663217a4b706040518163ffffffff1660e01b8152600401602060405180830381865afa1580156102be573d5f5f3e3d5ffd5b505050506040513d601f19601f820116820180604052508101906102e29190610a5e565b90505f6102ed610618565b90505f5f5f54146102ff575f54610301565b815b90505f81831190505f7f000000000000000000000000000000000000000000000000000000000000000073ffffffffffffffffffffffffffffffffffffffff1663865ed3308d896040518363ffffffff1660e01b8152600401610365929190610a89565b602060405180830381865afa158015610380573d5f5f3e3d5ffd5b505050506040513d601f19601f820116820180604052508101906103a49190610ac4565b90505f7f000000000000000000000000000000000000000000000000000000000000000073ffffffffffffffffffffffffffffffffffffffff1663865ed3308e896040518363ffffffff1660e01b8152600401610402929190610a89565b602060405180830381865afa15801561041d573d5f5f3e3d5ffd5b505050506040513d601f19601f820116820180604052508101906104419190610ac4565b9050821561047157869a50879950612710600154826104609190610b1c565b61046a9190610b8a565b9850610495565b879a50869950612710600154836104889190610b1c565b6104929190610b8a565b98505b5f8903610567575f7f000000000000000000000000000000000000000000000000000000000000000073ffffffffffffffffffffffffffffffffffffffff1663865ed3308f896040518363ffffffff1660e01b81526004016104f8929190610a89565b602060405180830381865afa158015610513573d5f5f3e3d5ffd5b505050506040513d601f19601f820116820180604052508101906105379190610ac4565b90505f81111561056557869b50889a50612710600154826105589190610b1c565b6105629190610b8a565b99505b505b5f89119b5050505050505050509193509193565b6113888111156105c0576040517f08c379a00000000000000000000000000000000000000000000000000000000081526004016105b790610c14565b60405180910390fd5b8060018190555050565b7f000000000000000000000000000000000000000000000000000000000000000081565b60015481565b7f000000000000000000000000000000000000000000000000000000000000000081565b5f5f7f000000000000000000000000000000000000000000000000000000000000000073ffffffffffffffffffffffffffffffffffffffff16630fc63d106040518163ffffffff1660e01b8152600401602060405180830381865afa158015610683573d5f5f3e3d5ffd5b505050506040513d601f19601f820116820180604052508101906106a79190610a5e565b90505f7f000000000000000000000000000000000000000000000000000000000000000073ffffffffffffffffffffffffffffffffffffffff16635f64b55b6040518163ffffffff1660e01b8152600401602060405180830381865afa158015610713573d5f5f3e3d5ffd5b505050506040513d601f19601f820116820180604052508101906107379190610a5e565b90505f7f000000000000000000000000000000000000000000000000000000000000000073ffffffffffffffffffffffffffffffffffffffff16634837e2046040518163ffffffff1660e01b8152600401602060405180830381865afa1580156107a3573d5f5f3e3d5ffd5b505050506040513d601f19601f820116820180604052508101906107c79190610a5e565b73ffffffffffffffffffffffffffffffffffffffff16634aa066528484670de0b6b3a76400006040518463ffffffff1660e01b815260040161080b93929190610c6b565b602060405180830381865afa158015610826573d5f5f3e3d5ffd5b505050506040513d601f19601f8201168201806040525081019061084a9190610ac4565b90505f810361085857600190505b80935050505090565b5f819050919050565b61087381610861565b82525050565b5f60208201905061088c5f83018461086a565b92915050565b5f5ffd5b61089f81610861565b81146108a9575f5ffd5b50565b5f813590506108ba81610896565b92915050565b5f602082840312156108d5576108d4610892565b5b5f6108e2848285016108ac565b91505092915050565b5f8115159050919050565b6108ff816108eb565b82525050565b5f73ffffffffffffffffffffffffffffffffffffffff82169050919050565b5f61092e82610905565b9050919050565b61093e81610924565b82525050565b5f6080820190506109575f8301876108f6565b6109646020830186610935565b6109716040830185610935565b61097e606083018461086a565b95945050505050565b5f819050919050565b5f6109aa6109a56109a084610905565b610987565b610905565b9050919050565b5f6109bb82610990565b9050919050565b5f6109cc826109b1565b9050919050565b6109dc816109c2565b82525050565b5f6020820190506109f55f8301846109d3565b92915050565b5f610a05826109b1565b9050919050565b610a15816109fb565b82525050565b5f602082019050610a2e5f830184610a0c565b92915050565b610a3d81610924565b8114610a47575f5ffd5b50565b5f81519050610a5881610a34565b92915050565b5f60208284031215610a7357610a72610892565b5b5f610a8084828501610a4a565b91505092915050565b5f604082019050610a9c5f83018561086a565b610aa96020830184610935565b9392505050565b5f81519050610abe81610896565b92915050565b5f60208284031215610ad957610ad8610892565b5b5f610ae684828501610ab0565b91505092915050565b7f4e487b71000000000000000000000000000000000000000000000000000000005f52601160045260245ffd5b5f610b2682610861565b9150610b3183610861565b9250828202610b3f81610861565b91508282048414831517610b5657610b55610aef565b5b5092915050565b7f4e487b71000000000000000000000000000000000000000000000000000000005f52601260045260245ffd5b5f610b9482610861565b9150610b9f83610861565b925082610baf57610bae610b5d565b5b828204905092915050565b5f82825260208201905092915050565b7f4d41585f353025000000000000000000000000000000000000000000000000005f82015250565b5f610bfe600783610bba565b9150610c0982610bca565b602082019050919050565b5f6020820190508181035f830152610c2b81610bf2565b9050919050565b5f819050919050565b5f610c55610c50610c4b84610c32565b610987565b610861565b9050919050565b610c6581610c3b565b82525050565b5f606082019050610c7e5f830186610935565b610c8b6020830185610935565b610c986040830184610c5c565b94935050505056fea26469706673582212201d674cc3e8bcdd181324b7d0eac081329ecc55d6fcfb98f51a1b72e95e9cf4ed64736f6c634300081e00330000000000000000000000005751727946f90ea235fef74aa989b8145b7b62ae000000000000000000000000da0b11d93728fa7f2d0bd2e154b8107fcafd5b28",
        "nonce": "0xc2",
        "chainId": "0xc488"
      },
      "additionalContracts": [],
      "isFixedGasLimit": false
    },
    {
      "hash": "0x1e7017d75e75235eef1ce9f0246903190e93e28dfe0b7afd6f5152f63224a7cf",
      "transactionType": "CALL",
      "contractName": null,
      "contractAddress": "0x5751727946f90ea235fef74aa989b8145b7b62ae",
      "function": "setStrategy(uint256,address)",
      "arguments": [
        "1",
        "0x94Bc338EA3e7e74804A2d7f71394e047fE9ABBea"
      ],
      "transaction": {
        "from": "0x973c770d78e4183dc5464a819ba154e2d26d9048",
        "to": "0x5751727946f90ea235fef74aa989b8145b7b62ae",
        "value": "0x0",
        "input": "0xfaac4325000000000000000000000000000000000000000000000000000000000000000100000000000000000000000094bc338ea3e7e74804a2d7f71394e047fe9abbea",
        "nonce": "0xc3",
        "chainId": "0xc488"
      },
      "additionalContracts": [],
      "isFixedGasLimit": false
    },
    {
      "hash": "0x25d52a7ee3857867ee8ba917cfeda233967a19eebf3ed71fef3e66c27bd47fe5",
      "transactionType": "CALL",
      "contractName": null,
      "contractAddress": "0x729b67aa1b2f740da96d445c365fc07369600ebb",
      "function": "approve(address,uint256)",
      "arguments": [
        "0x5751727946F90eA235feF74AA989b8145b7b62aE",
        "100000000000000000000"
      ],
      "transaction": {
        "from": "0x973c770d78e4183dc5464a819ba154e2d26d9048",
        "to": "0x729b67aa1b2f740da96d445c365fc07369600ebb",
        "value": "0x0",
        "input": "0x095ea7b30000000000000000000000005751727946f90ea235fef74aa989b8145b7b62ae0000000000000000000000000000000000000000000000056bc75e2d63100000",
        "nonce": "0xc4",
        "chainId": "0xc488"
      },
      "additionalContracts": [],
      "isFixedGasLimit": false
    },
    {
      "hash": "0x7e8ce1efd39213da1e67bdbbae9d76478f6f28e130e7a4de8cdaf6f81aeb6cb0",
      "transactionType": "CALL",
      "contractName": null,
      "contractAddress": "0x729b67aa1b2f740da96d445c365fc07369600ebb",
      "function": "transfer(address,uint256)",
      "arguments": [
        "0x5751727946F90eA235feF74AA989b8145b7b62aE",
        "100000000000000000000"
      ],
      "transaction": {
        "from": "0x973c770d78e4183dc5464a819ba154e2d26d9048",
        "to": "0x729b67aa1b2f740da96d445c365fc07369600ebb",
        "value": "0x0",
        "input": "0xa9059cbb0000000000000000000000005751727946f90ea235fef74aa989b8145b7b62ae0000000000000000000000000000000000000000000000056bc75e2d63100000",
        "nonce": "0xc5",
        "chainId": "0xc488"
      },
      "additionalContracts": [],
      "isFixedGasLimit": false
    },
    {
      "hash": "0x1afe3ff1247f0e8d272e6c572ecf8a26a78273e5e3ff7afa4d91cabeb218ee26",
      "transactionType": "CALL",
      "contractName": null,
      "contractAddress": "0x2feba17aaf40adb4fdb579ac82721be359dc2782",
      "function": "approve(address,uint256)",
      "arguments": [
        "0x5751727946F90eA235feF74AA989b8145b7b62aE",
        "50000000000000000000"
      ],
      "transaction": {
        "from": "0x973c770d78e4183dc5464a819ba154e2d26d9048",
        "to": "0x2feba17aaf40adb4fdb579ac82721be359dc2782",
        "value": "0x0",
        "input": "0x095ea7b30000000000000000000000005751727946f90ea235fef74aa989b8145b7b62ae000000000000000000000000000000000000000000000002b5e3af16b1880000",
        "nonce": "0xc6",
        "chainId": "0xc488"
      },
      "additionalContracts": [],
      "isFixedGasLimit": false
    },
    {
      "hash": "0x1534881138b079f244ab4ed77d7e2232c21a5a49a7851ef4f284ecf634bf7916",
      "transactionType": "CALL",
      "contractName": null,
      "contractAddress": "0x2feba17aaf40adb4fdb579ac82721be359dc2782",
      "function": "transfer(address,uint256)",
      "arguments": [
        "0x5751727946F90eA235feF74AA989b8145b7b62aE",
        "50000000000000000000"
      ],
      "transaction": {
        "from": "0x973c770d78e4183dc5464a819ba154e2d26d9048",
        "to": "0x2feba17aaf40adb4fdb579ac82721be359dc2782",
        "value": "0x0",
        "input": "0xa9059cbb0000000000000000000000005751727946f90ea235fef74aa989b8145b7b62ae000000000000000000000000000000000000000000000002b5e3af16b1880000",
        "nonce": "0xc7",
        "chainId": "0xc488"
      },
      "additionalContracts": [],
      "isFixedGasLimit": false
    },
    {
      "hash": "0x11fe62bd337843168955b747686f96e26568e2920a848ec044a741262fed2400",
      "transactionType": "CALL",
      "contractName": null,
      "contractAddress": "0x6e22ced53e126ffb215e633a5b793092dccfa5ee",
      "function": "approve(address,uint256)",
      "arguments": [
        "0x5751727946F90eA235feF74AA989b8145b7b62aE",
        "20000000000000000000"
      ],
      "transaction": {
        "from": "0x973c770d78e4183dc5464a819ba154e2d26d9048",
        "to": "0x6e22ced53e126ffb215e633a5b793092dccfa5ee",
        "value": "0x0",
        "input": "0x095ea7b30000000000000000000000005751727946f90ea235fef74aa989b8145b7b62ae000000000000000000000000000000000000000000000001158e460913d00000",
        "nonce": "0xc8",
        "chainId": "0xc488"
      },
      "additionalContracts": [],
      "isFixedGasLimit": false
    },
    {
      "hash": "0x7152198031a481427434b3a816c46c501c41175c9b3d53f9e9e139926a2da448",
      "transactionType": "CALL",
      "contractName": null,
      "contractAddress": "0x6e22ced53e126ffb215e633a5b793092dccfa5ee",
      "function": "transfer(address,uint256)",
      "arguments": [
        "0x5751727946F90eA235feF74AA989b8145b7b62aE",
        "20000000000000000000"
      ],
      "transaction": {
        "from": "0x973c770d78e4183dc5464a819ba154e2d26d9048",
        "to": "0x6e22ced53e126ffb215e633a5b793092dccfa5ee",
        "value": "0x0",
        "input": "0xa9059cbb0000000000000000000000005751727946f90ea235fef74aa989b8145b7b62ae000000000000000000000000000000000000000000000001158e460913d00000",
        "nonce": "0xc9",
        "chainId": "0xc488"
      },
      "additionalContracts": [],
      "isFixedGasLimit": false
    },
    {
      "hash": "0x925aa933254e273744c6bfd9b4b837a739de834133ccb28f7ef51003f4a251b8",
      "transactionType": "CALL",
      "contractName": null,
      "contractAddress": "0xda0b11d93728fa7f2d0bd2e154b8107fcafd5b28",
      "function": "initializeBot(uint256,uint256)",
      "arguments": [
        "1",
        "170000000000000000000"
      ],
      "transaction": {
        "from": "0x973c770d78e4183dc5464a819ba154e2d26d9048",
        "to": "0xda0b11d93728fa7f2d0bd2e154b8107fcafd5b28",
        "value": "0x0",
        "input": "0x9e2a7de700000000000000000000000000000000000000000000000000000000000000010000000000000000000000000000000000000000000000093739534d28680000",
        "nonce": "0xca",
        "chainId": "0xc488"
      },
      "additionalContracts": [],
      "isFixedGasLimit": false
    },
    {
      "hash": "0xf7073a4bbb8e1deabc9b528ecc2857fd9e0e1259e7a65891940e31969b33aba1",
      "transactionType": "CALL",
      "contractName": null,
      "contractAddress": "0xda0b11d93728fa7f2d0bd2e154b8107fcafd5b28",
      "function": "tick(uint256)",
      "arguments": [
        "1"
      ],
      "transaction": {
        "from": "0x973c770d78e4183dc5464a819ba154e2d26d9048",
        "to": "0xda0b11d93728fa7f2d0bd2e154b8107fcafd5b28",
        "value": "0x0",
        "input": "0xfc7b6aee0000000000000000000000000000000000000000000000000000000000000001",
        "nonce": "0xcb",
        "chainId": "0xc488"
      },
      "additionalContracts": [],
      "isFixedGasLimit": false
    }
  ],
  "receipts": [
    {
      "status": "0x1",
      "cumulativeGasUsed": "0x71098",
      "logs": [],
      "logsBloom": "0x00000000000000000000000000000000000000000000000000000000000000000000000000000000000000000000000000000000000000000000000000000000000000000000000000000000000000000000000000000000000000000000000000000000000000000000000000000000000000000000000000000000000000000000000000000000000000000000000000000000000000000000000000000000000000000000000000000000000000000000000000000000000000000000000000000000000000000000000000000000000000000000000000000000000000000000000000000000000000000000000000000000000000000000000000000000",
      "type": "0x2",
      "transactionHash": "0x6f707ad813029a69cb718933153cb7ee49c94c88764ee9f96cc6e06be3b97a7f",
      "transactionIndex": "0x3",
      "blockHash": "0xf803d3583f94c0343bb6f832a9eaa77816378c49c203dda4adb1482774bf8305",
      "blockNumber": "0x8de9881",
      "gasUsed": "0xb01026",
      "effectiveGasPrice": "0x165a0bc00",
      "from": "0x973c770d78e4183dc5464a819ba154e2d26d9048",
      "to": "0x0000000000000000000000000000000000000000",
      "contractAddress": "0x94bc338ea3e7e74804a2d7f71394e047fe9abbea"
    },
    {
      "status": "0x1",
      "cumulativeGasUsed": "0x1b21ed",
      "logs": [
        {
          "address": "0x5751727946f90ea235fef74aa989b8145b7b62ae",
          "topics": [
            "0x0961628e3a897604e54509dbd098d00cb4b779d14cbdde39bb7e3ffa9ad3d179",
            "0x0000000000000000000000000000000000000000000000000000000000000001",
            "0x0000000000000000000000009e2c0267918b605dbd6411256ba7721a4f0cc4fd",
            "0x00000000000000000000000094bc338ea3e7e74804a2d7f71394e047fe9abbea"
          ],
          "data": "0x",
          "blockHash": "0x44e443c9440689aec4f6897ec8a867fee022144f06bb8def36297edeee39542b",
          "blockNumber": "0x8de989a",
          "transactionHash": "0x1e7017d75e75235eef1ce9f0246903190e93e28dfe0b7afd6f5152f63224a7cf",
          "transactionIndex": "0xa",
          "logIndex": "0x13",
          "removed": false
        }
      ],
      "logsBloom": "0x00000000000004000000000020002000000010000000000000000000000000000000000000000000000800000004002000000000001000000000000000040000000000000000000000000000000000000000000000040000000000000000000000000000000000000000000000000000000000000000000000000000000000080000000000000000000000000000000000000000000000000000000000000000000000080000000000000000000000000020000000000000000000000000000000000000000000000000000000000000000000000000000000000000000040000000000000000000010000000000000000000000000000000000000000000000",
      "type": "0x2",
      "transactionHash": "0x1e7017d75e75235eef1ce9f0246903190e93e28dfe0b7afd6f5152f63224a7cf",
      "transactionIndex": "0xa",
      "blockHash": "0x44e443c9440689aec4f6897ec8a867fee022144f06bb8def36297edeee39542b",
      "blockNumber": "0x8de989a",
      "gasUsed": "0xf57c",
      "effectiveGasPrice": "0x165a0bc00",
      "from": "0x973c770d78e4183dc5464a819ba154e2d26d9048",
      "to": "0x5751727946f90ea235fef74aa989b8145b7b62ae",
      "contractAddress": null
    },
    {
      "status": "0x1",
      "cumulativeGasUsed": "0x8172e",
      "logs": [
        {
          "address": "0x729b67aa1b2f740da96d445c365fc07369600ebb",
          "topics": [
            "0x8c5be1e5ebec7d5bd14f71427d1e84f3dd0314c0f7b2291e5b200ac8c7c3b925",
            "0x000000000000000000000000973c770d78e4183dc5464a819ba154e2d26d9048",
            "0x0000000000000000000000005751727946f90ea235fef74aa989b8145b7b62ae"
          ],
          "data": "0x0000000000000000000000000000000000000000000000056bc75e2d63100000",
          "blockHash": "0xe7b0f8eb63e9fc95cae860cb63a30f4d2bea7924e02e9c41113cf0681e0c1833",
          "blockNumber": "0x8de98b3",
          "transactionHash": "0x25d52a7ee3857867ee8ba917cfeda233967a19eebf3ed71fef3e66c27bd47fe5",
          "transactionIndex": "0x4",
          "logIndex": "0x9",
          "removed": false
        }
      ],
      "logsBloom": "0x00000000000000000000000000000000000000000000000000000000800000000000000000000000000000000000000000000000000000000000000000200000000000000000000000000000000000000000000000000000000000080000000080000000000000000000000000000000000000000010000000000000000000000800000000000000000000000000000000000000000000000000000000000000020000000000000000000000000000000000000000000000008000000000000000000000000000000000040000000000000000000000000000000000000000000010000000000000000000000000000000000000000000200000000000000080",
      "type": "0x2",
      "transactionHash": "0x25d52a7ee3857867ee8ba917cfeda233967a19eebf3ed71fef3e66c27bd47fe5",
      "transactionIndex": "0x4",
      "blockHash": "0xe7b0f8eb63e9fc95cae860cb63a30f4d2bea7924e02e9c41113cf0681e0c1833",
      "blockNumber": "0x8de98b3",
      "gasUsed": "0x3fa6c",
      "effectiveGasPrice": "0x165a0bc00",
      "from": "0x973c770d78e4183dc5464a819ba154e2d26d9048",
      "to": "0x729b67aa1b2f740da96d445c365fc07369600ebb",
      "contractAddress": null
    },
    {
      "status": "0x1",
      "cumulativeGasUsed": "0x0",
      "logs": [
        {
          "address": "0x729b67aa1b2f740da96d445c365fc07369600ebb",
          "topics": [
            "0xddf252ad1be2c89b69c2b068fc378daa952ba7f163c4a11628f55a4df523b3ef",
            "0x000000000000000000000000973c770d78e4183dc5464a819ba154e2d26d9048",
            "0x0000000000000000000000005751727946f90ea235fef74aa989b8145b7b62ae"
          ],
          "data": "0x0000000000000000000000000000000000000000000000056bc75e2d63100000",
          "blockHash": "0xd467e02aa72121e043ea2339f7fe3ee056d4b337462006f8144c26bc25399963",
          "blockNumber": "0x8de98cb",
          "transactionHash": "0x7e8ce1efd39213da1e67bdbbae9d76478f6f28e130e7a4de8cdaf6f81aeb6cb0",
          "transactionIndex": "0x0",
          "logIndex": "0x0",
          "removed": false
        }
      ],
      "logsBloom": "0x00000000000000000000000000000000000000000000000000000000800000000000000000000000000000000000000000000000000000000000000000000000000000000000000000000008000000000000000000000000000000080000000080000000000000000000000000000000000000000010000000000010000000000800000000000000000000000000000000000000000000000000000000000000000000000000000000000000000000000000000000000000008000000000000000000002000000000000040000000000000000000000000000000000000000000000000000000000000000000000000000000000000000200000000000000080",
      "type": "0x2",
      "transactionHash": "0x7e8ce1efd39213da1e67bdbbae9d76478f6f28e130e7a4de8cdaf6f81aeb6cb0",
      "transactionIndex": "0x0",
      "blockHash": "0xd467e02aa72121e043ea2339f7fe3ee056d4b337462006f8144c26bc25399963",
      "blockNumber": "0x8de98cb",
      "gasUsed": "0xf64b",
      "effectiveGasPrice": "0x165a0bc00",
      "from": "0x973c770d78e4183dc5464a819ba154e2d26d9048",
      "to": "0x729b67aa1b2f740da96d445c365fc07369600ebb",
      "contractAddress": null
    },
    {
      "status": "0x1",
      "cumulativeGasUsed": "0x8f169",
      "logs": [
        {
          "address": "0x2feba17aaf40adb4fdb579ac82721be359dc2782",
          "topics": [
            "0x8c5be1e5ebec7d5bd14f71427d1e84f3dd0314c0f7b2291e5b200ac8c7c3b925",
            "0x000000000000000000000000973c770d78e4183dc5464a819ba154e2d26d9048",
            "0x0000000000000000000000005751727946f90ea235fef74aa989b8145b7b62ae"
          ],
          "data": "0x000000000000000000000000000000000000000000000002b5e3af16b1880000",
          "blockHash": "0x62b986d318ee4084c01b8b3b1acf9de8eab23c7db7392a28b14a2e1969095330",
          "blockNumber": "0x8de98eb",
          "transactionHash": "0x1afe3ff1247f0e8d272e6c572ecf8a26a78273e5e3ff7afa4d91cabeb218ee26",
          "transactionIndex": "0x1",
          "logIndex": "0x3",
          "removed": false
        }
      ],
      "logsBloom": "0x00000000000000000000000000000000000000800000000000000000800000000000000000000000000000000000000000000000000000000000000000200000000000000000000000000000000000000000000000000000000000080000000080000000000000000000000000000000000000000000000000000000000000000000000000000000000000000000000000000000000000000000000000000000020000000000000000000000000000000000000000000000008000000000000000000000000000000000040000000008000000000000000000000000000000000010000000000000001000000000000000000000000000000000000000000080",
      "type": "0x2",
      "transactionHash": "0x1afe3ff1247f0e8d272e6c572ecf8a26a78273e5e3ff7afa4d91cabeb218ee26",
      "transactionIndex": "0x1",
      "blockHash": "0x62b986d318ee4084c01b8b3b1acf9de8eab23c7db7392a28b14a2e1969095330",
      "blockNumber": "0x8de98eb",
      "gasUsed": "0x3fa6c",
      "effectiveGasPrice": "0x165a0bc00",
      "from": "0x973c770d78e4183dc5464a819ba154e2d26d9048",
      "to": "0x2feba17aaf40adb4fdb579ac82721be359dc2782",
      "contractAddress": null
    },
    {
      "status": "0x1",
      "cumulativeGasUsed": "0xd4231",
      "logs": [
        {
          "address": "0x2feba17aaf40adb4fdb579ac82721be359dc2782",
          "topics": [
            "0xddf252ad1be2c89b69c2b068fc378daa952ba7f163c4a11628f55a4df523b3ef",
            "0x000000000000000000000000973c770d78e4183dc5464a819ba154e2d26d9048",
            "0x0000000000000000000000005751727946f90ea235fef74aa989b8145b7b62ae"
          ],
          "data": "0x000000000000000000000000000000000000000000000002b5e3af16b1880000",
          "blockHash": "0x4a7482fb2eb1d63f66fc0d1a5a5aea3f0b82e290fcd0950a8973548795e5d952",
          "blockNumber": "0x8de9906",
          "transactionHash": "0x1534881138b079f244ab4ed77d7e2232c21a5a49a7851ef4f284ecf634bf7916",
          "transactionIndex": "0x6",
          "logIndex": "0xa",
          "removed": false
        }
      ],
      "logsBloom": "0x00000000000000000000000000000000000000800000000000000000800000000000000000000000000000000000000000000000000000000000000000000000000000000000000000000008000000000000000000000000000000080000000080000000000000000000000000000000000000000000000000000010000000000000000000000000000000000000000000000000000000000000000000000000000000000000000000000000000000000000000000000000008000000000000000000002000000000000040000000008000000000000000000000000000000000000000000000000001000000000000000000000000000000000000000000080",
      "type": "0x2",
      "transactionHash": "0x1534881138b079f244ab4ed77d7e2232c21a5a49a7851ef4f284ecf634bf7916",
      "transactionIndex": "0x6",
      "blockHash": "0x4a7482fb2eb1d63f66fc0d1a5a5aea3f0b82e290fcd0950a8973548795e5d952",
      "blockNumber": "0x8de9906",
      "gasUsed": "0xf64b",
      "effectiveGasPrice": "0x165a0bc00",
      "from": "0x973c770d78e4183dc5464a819ba154e2d26d9048",
      "to": "0x2feba17aaf40adb4fdb579ac82721be359dc2782",
      "contractAddress": null
    },
    {
      "status": "0x1",
      "cumulativeGasUsed": "0xed2c",
      "logs": [
        {
          "address": "0x6e22ced53e126ffb215e633a5b793092dccfa5ee",
          "topics": [
            "0x8c5be1e5ebec7d5bd14f71427d1e84f3dd0314c0f7b2291e5b200ac8c7c3b925",
            "0x000000000000000000000000973c770d78e4183dc5464a819ba154e2d26d9048",
            "0x0000000000000000000000005751727946f90ea235fef74aa989b8145b7b62ae"
          ],
          "data": "0x000000000000000000000000000000000000000000000001158e460913d00000",
          "blockHash": "0x16b2b696bc23552c432254aade1d2d05f6c044ff2b603c2ad26b94ef67cb3872",
          "blockNumber": "0x8de991e",
          "transactionHash": "0x11fe62bd337843168955b747686f96e26568e2920a848ec044a741262fed2400",
          "transactionIndex": "0x1",
          "logIndex": "0x1",
          "removed": false
        }
      ],
      "logsBloom": "0x00000000000000000000000000000000000000000000000000000000800000000000000000000000000000000000000000000000000000000000000000200000000000000000000000000002000000000000000000000000000000080000000080000000000000000000000000000000000000000000000000000000000000000000000000000000000000000000000000000000000000000000000000000000020000000000000000000000000000000000000000000000008000000000000000000400000000000000040000000000000000000000000000000000000000000010000000000000000000000000000008000000000000000000000000000080",
      "type": "0x2",
      "transactionHash": "0x11fe62bd337843168955b747686f96e26568e2920a848ec044a741262fed2400",
      "transactionIndex": "0x1",
      "blockHash": "0x16b2b696bc23552c432254aade1d2d05f6c044ff2b603c2ad26b94ef67cb3872",
      "blockNumber": "0x8de991e",
      "gasUsed": "0x3fa6c",
      "effectiveGasPrice": "0x165a0bc00",
      "from": "0x973c770d78e4183dc5464a819ba154e2d26d9048",
      "to": "0x6e22ced53e126ffb215e633a5b793092dccfa5ee",
      "contractAddress": null
    },
    {
      "status": "0x1",
      "cumulativeGasUsed": "0x10cf78",
      "logs": [
        {
          "address": "0x6e22ced53e126ffb215e633a5b793092dccfa5ee",
          "topics": [
            "0xddf252ad1be2c89b69c2b068fc378daa952ba7f163c4a11628f55a4df523b3ef",
            "0x000000000000000000000000973c770d78e4183dc5464a819ba154e2d26d9048",
            "0x0000000000000000000000005751727946f90ea235fef74aa989b8145b7b62ae"
          ],
          "data": "0x000000000000000000000000000000000000000000000001158e460913d00000",
          "blockHash": "0x8fdf61ed773388963df125488b1c994b193f1347318c082f0cd9bc8cb21cad12",
          "blockNumber": "0x8de9937",
          "transactionHash": "0x7152198031a481427434b3a816c46c501c41175c9b3d53f9e9e139926a2da448",
          "transactionIndex": "0x5",
          "logIndex": "0x5",
          "removed": false
        }
      ],
      "logsBloom": "0x0000000000000000000000000000000000000000000000000000000080000000000000000000000000000000000000000000000000000000000000000000000000000000000000000000000a000000000000000000000000000000080000000080000000000000000000000000000000000000000000000000000010000000000000000000000000000000000000000000000000000000000000000000000000000000000000000000000000000000000000000000000000008000000000000000000402000000000000040000000000000000000000000000000000000000000000000000000000000000000000000008000000000000000000000000000080",
      "type": "0x2",
      "transactionHash": "0x7152198031a481427434b3a816c46c501c41175c9b3d53f9e9e139926a2da448",
      "transactionIndex": "0x5",
      "blockHash": "0x8fdf61ed773388963df125488b1c994b193f1347318c082f0cd9bc8cb21cad12",
      "blockNumber": "0x8de9937",
      "gasUsed": "0x4038b",
      "effectiveGasPrice": "0x165a0bc00",
      "from": "0x973c770d78e4183dc5464a819ba154e2d26d9048",
      "to": "0x6e22ced53e126ffb215e633a5b793092dccfa5ee",
      "contractAddress": null
    },
    {
      "status": "0x1",
      "cumulativeGasUsed": "0x529f3",
      "logs": [
        {
          "address": "0x581c414663bbaf0257c024433da937b3431ede68",
          "topics": [
            "0x0877fbda66ac5e21ceac7a34ebb16f4c39fbd9606294b374acdf4b1266aa4705",
            "0x0000000000000000000000000000000000000000000000000000000000000001"
          ],
          "data": "0x0000000000000000000000000000000000000000000000093739534d286800000000000000000000000000000000000000000000000000000000000000000000",
          "blockHash": "0xce1030e84be9da45764619d6d0c0a6c67abdd00713d0154c50cbf55d213cd656",
          "blockNumber": "0x8de994c",
          "transactionHash": "0x925aa933254e273744c6bfd9b4b837a739de834133ccb28f7ef51003f4a251b8",
          "transactionIndex": "0x4",
          "logIndex": "0x6",
          "removed": false
        }
      ],
      "logsBloom": "0x00000000000000000000000000000000000000000000000000000000000000000000002000000000000000000000080000000000000000000000000000040000000000000000000000000000000000004000000000040000000000000000000000000000000000000000000000000000000000000000000000000000000000000000000000000000000000000000000000000000000000000800000000000000044000000000000000000000000000000000000000000000000000000000000000000000000000000000000000000000000000000000000000000000000040000000000000000000000000000000000000000000000000000000000000000000",
      "type": "0x2",
      "transactionHash": "0x925aa933254e273744c6bfd9b4b837a739de834133ccb28f7ef51003f4a251b8",
      "transactionIndex": "0x4",
      "blockHash": "0xce1030e84be9da45764619d6d0c0a6c67abdd00713d0154c50cbf55d213cd656",
      "blockNumber": "0x8de994c",
      "gasUsed": "0xa384f",
      "effectiveGasPrice": "0x165a0bc00",
      "from": "0x973c770d78e4183dc5464a819ba154e2d26d9048",
      "to": "0xda0b11d93728fa7f2d0bd2e154b8107fcafd5b28",
      "contractAddress": null
    },
    {
      "status": "0x1",
      "cumulativeGasUsed": "0x1736a2",
      "logs": [
        {
          "address": "0x581c414663bbaf0257c024433da937b3431ede68",
          "topics": [
            "0x0877fbda66ac5e21ceac7a34ebb16f4c39fbd9606294b374acdf4b1266aa4705",
            "0x0000000000000000000000000000000000000000000000000000000000000001"
          ],
          "data": "0x0000000000000000000000000000000000000000000000000000000000000000ffffffffffffffffffffffffffffffffffffffffffffffffffffffffffffd8f0",
          "blockHash": "0x194892e9f30da33381eda6696145d8e55fe5dd8ff65ad616683b145ff56da39e",
          "blockNumber": "0x8de9962",
          "transactionHash": "0xf7073a4bbb8e1deabc9b528ecc2857fd9e0e1259e7a65891940e31969b33aba1",
          "transactionIndex": "0xa",
          "logIndex": "0xb",
          "removed": false
        }
      ],
      "logsBloom": "0x00000000000000000000000000000000000000000000000000000000000000000000002000000000000000000000080000000000000000000000000000040000000000000000000000000000000000004000000000040000000000000000000000000000000000000000000000000000000000000000000000000000000000000000000000000000000000000000000000000000000000000800000000000000044000000000000000000000000000000000000000000000000000000000000000000000000000000000000000000000000000000000000000000000000040000000000000000000000000000000000000000000000000000000000000000000",
      "type": "0x2",
      "transactionHash": "0xf7073a4bbb8e1deabc9b528ecc2857fd9e0e1259e7a65891940e31969b33aba1",
      "transactionIndex": "0xa",
      "blockHash": "0x194892e9f30da33381eda6696145d8e55fe5dd8ff65ad616683b145ff56da39e",
      "blockNumber": "0x8de9962",
      "gasUsed": "0x4fc44",
      "effectiveGasPrice": "0x165a0bc00",
      "from": "0x973c770d78e4183dc5464a819ba154e2d26d9048",
      "to": "0xda0b11d93728fa7f2d0bd2e154b8107fcafd5b28",
      "contractAddress": null
    }
  ],
  "libraries": [],
  "pending": [],
  "returns": {},
  "timestamp": 1755102282,
  "chain": 50312,
  "commit": null
}