{
  "transactions": [
    {
      "hash": "0x47b95029bf00f121130c5c4c48c55884550afd0ce190eec54a77e1c34957d81b",
      "transactionType": "CREATE",
      "contractName": "Token",
      "contractAddress": "0xb5e5433bba01a7d869b267b5b447000734f371bd",
      "function": null,
      "arguments": [
        "Arena Token A",
        "TKNA"
      ],
      "transaction": {
        "from": "0x973c770d78e4183dc5464a819ba154e2d26d9048",
        "gas": "0xc289b",
        "value": "0x0",
        "input": "0x608060405234801562000010575f80fd5b5060405162000c0c38038062000c0c8339810160408190526200003391620001aa565b33828260036200004483826200029a565b5060046200005382826200029a565b5050506001600160a01b0381166200008457604051631e4fbdf760e01b81525f600482015260240160405180910390fd5b6200008f8162000098565b50505062000366565b600580546001600160a01b038381166001600160a01b0319831681179093556040519116919082907f8be0079c531659141344cd1fd0a4f28419497f9722a3daafe3b4186f6b6457e0905f90a35050565b634e487b7160e01b5f52604160045260245ffd5b5f82601f8301126200010d575f80fd5b81516001600160401b03808211156200012a576200012a620000e9565b604051601f8301601f19908116603f01168101908282118183101715620001555762000155620000e9565b816040528381526020925086602085880101111562000172575f80fd5b5f91505b8382101562000195578582018301518183018401529082019062000176565b5f602085830101528094505050505092915050565b5f8060408385031215620001bc575f80fd5b82516001600160401b0380821115620001d3575f80fd5b620001e186838701620000fd565b93506020850151915080821115620001f7575f80fd5b506200020685828601620000fd565b9150509250929050565b600181811c908216806200022557607f821691505b6020821081036200024457634e487b7160e01b5f52602260045260245ffd5b50919050565b601f8211156200029557805f5260205f20601f840160051c81016020851015620002715750805b601f840160051c820191505b8181101562000292575f81556001016200027d565b50505b505050565b81516001600160401b03811115620002b657620002b6620000e9565b620002ce81620002c7845462000210565b846200024a565b602080601f83116001811462000304575f8415620002ec5750858301515b5f19600386901b1c1916600185901b1785556200035e565b5f85815260208120601f198616915b82811015620003345788860151825594840194600190910190840162000313565b50858210156200035257878501515f19600388901b60f8161c191681555b505060018460011b0185555b505050505050565b61089880620003745f395ff3fe608060405234801561000f575f80fd5b50600436106100cb575f3560e01c806370a082311161008857806395d89b411161006357806395d89b41146101a4578063a9059cbb146101ac578063dd62ed3e146101bf578063f2fde38b146101f7575f80fd5b806370a0823114610159578063715018a6146101815780638da5cb5b14610189575f80fd5b806306fdde03146100cf578063095ea7b3146100ed57806318160ddd1461011057806323b872dd14610122578063313ce5671461013557806340c10f1914610144575b5f80fd5b6100d761020a565b6040516100e491906106f2565b60405180910390f35b6101006100fb366004610759565b61029a565b60405190151581526020016100e4565b6002545b6040519081526020016100e4565b610100610130366004610781565b6102b3565b604051601281526020016100e4565b610157610152366004610759565b6102d6565b005b6101146101673660046107ba565b6001600160a01b03165f9081526020819052604090205490565b6101576102ec565b6005546040516001600160a01b0390911681526020016100e4565b6100d76102ff565b6101006101ba366004610759565b61030e565b6101146101cd3660046107da565b6001600160a01b039182165f90815260016020908152604080832093909416825291909152205490565b6101576102053660046107ba565b61031b565b6060600380546102199061080b565b80601f01602080910402602001604051908101604052809291908181526020018280546102459061080b565b80156102905780601f1061026757610100808354040283529160200191610290565b820191905f5260205f20905b81548152906001019060200180831161027357829003601f168201915b5050505050905090565b5f336102a781858561035d565b60019150505b92915050565b5f336102c085828561036f565b6102cb8585856103eb565b506001949350505050565b6102de610448565b6102e88282610475565b5050565b6102f4610448565b6102fd5f6104a9565b565b6060600480546102199061080b565b5f336102a78185856103eb565b610323610448565b6001600160a01b03811661035157604051631e4fbdf760e01b81525f60048201526024015b60405180910390fd5b61035a816104a9565b50565b61036a83838360016104fa565b505050565b6001600160a01b038381165f908152600160209081526040808320938616835292905220545f198110156103e557818110156103d757604051637dc7a0d960e11b81526001600160a01b03841660048201526024810182905260448101839052606401610348565b6103e584848484035f6104fa565b50505050565b6001600160a01b03831661041457604051634b637e8f60e11b81525f6004820152602401610348565b6001600160a01b03821661043d5760405163ec442f0560e01b81525f6004820152602401610348565b61036a8383836105cc565b6005546001600160a01b031633146102fd5760405163118cdaa760e01b8152336004820152602401610348565b6001600160a01b03821661049e5760405163ec442f0560e01b81525f6004820152602401610348565b6102e85f83836105cc565b600580546001600160a01b038381166001600160a01b0319831681179093556040519116919082907f8be0079c531659141344cd1fd0a4f28419497f9722a3daafe3b4186f6b6457e0905f90a35050565b6001600160a01b0384166105235760405163e602df0560e01b81525f6004820152602401610348565b6001600160a01b03831661054c57604051634a1406b160e11b81525f6004820152602401610348565b6001600160a01b038085165f90815260016020908152604080832093871683529290522082905580156103e557826001600160a01b0316846001600160a01b03167f8c5be1e5ebec7d5bd14f71427d1e84f3dd0314c0f7b2291e5b200ac8c7c3b925846040516105be91815260200190565b60405180910390a350505050565b6001600160a01b0383166105f6578060025f8282546105eb9190610843565b909155506106669050565b6001600160a01b0383165f90815260208190526040902054818110156106485760405163391434e360e21b81526001600160a01b03851660048201526024810182905260448101839052606401610348565b6001600160a01b0384165f9081526020819052604090209082900390555b6001600160a01b038216610682576002805482900390556106a0565b6001600160a01b0382165f9081526020819052604090208054820190555b816001600160a01b0316836001600160a01b03167fddf252ad1be2c89b69c2b068fc378daa952ba7f163c4a11628f55a4df523b3ef836040516106e591815260200190565b60405180910390a3505050565b5f602080835283518060208501525f5b8181101561071e57858101830151858201604001528201610702565b505f604082860101526040601f19601f8301168501019250505092915050565b80356001600160a01b0381168114610754575f80fd5b919050565b5f806040838503121561076a575f80fd5b6107738361073e565b946020939093013593505050565b5f805f60608486031215610793575f80fd5b61079c8461073e565b92506107aa6020850161073e565b9150604084013590509250925092565b5f602082840312156107ca575f80fd5b6107d38261073e565b9392505050565b5f80604083850312156107eb575f80fd5b6107f48361073e565b91506108026020840161073e565b90509250929050565b600181811c9082168061081f57607f821691505b60208210810361083d57634e487b7160e01b5f52602260045260245ffd5b50919050565b808201808211156102ad57634e487b7160e01b5f52601160045260245ffdfea2646970667358221220f25fec4651ca8b8bc5f0ef848b4fe31ca0e0d86c882702db2ba9f333635eae2a64736f6c6343000818003300000000000000000000000000000000000000000000000000000000000000400000000000000000000000000000000000000000000000000000000000000080000000000000000000000000000000000000000000000000000000000000000d4172656e6120546f6b656e2041000000000000000000000000000000000000000000000000000000000000000000000000000000000000000000000000000004544b4e4100000000000000000000000000000000000000000000000000000000",
        "nonce": "0x62",
        "chainId": "0xc488"
      },
      "additionalContracts": [],
      "isFixedGasLimit": false
    },
    {
      "hash": "0xa8bd1805eef02fe50832093dd0cbcdd3263849d8ddfc9fe3c05a1a47779fa618",
      "transactionType": "CREATE",
      "contractName": "Token",
      "contractAddress": "0x23adac424fd41317253ab7341f416a8455d80666",
      "function": null,
      "arguments": [
        "Arena Token B",
        "TKNB"
      ],
      "transaction": {
        "from": "0x973c770d78e4183dc5464a819ba154e2d26d9048",
        "gas": "0xc289b",
        "value": "0x0",
        "input": "0x608060405234801562000010575f80fd5b5060405162000c0c38038062000c0c8339810160408190526200003391620001aa565b33828260036200004483826200029a565b5060046200005382826200029a565b5050506001600160a01b0381166200008457604051631e4fbdf760e01b81525f600482015260240160405180910390fd5b6200008f8162000098565b50505062000366565b600580546001600160a01b038381166001600160a01b0319831681179093556040519116919082907f8be0079c531659141344cd1fd0a4f28419497f9722a3daafe3b4186f6b6457e0905f90a35050565b634e487b7160e01b5f52604160045260245ffd5b5f82601f8301126200010d575f80fd5b81516001600160401b03808211156200012a576200012a620000e9565b604051601f8301601f19908116603f01168101908282118183101715620001555762000155620000e9565b816040528381526020925086602085880101111562000172575f80fd5b5f91505b8382101562000195578582018301518183018401529082019062000176565b5f602085830101528094505050505092915050565b5f8060408385031215620001bc575f80fd5b82516001600160401b0380821115620001d3575f80fd5b620001e186838701620000fd565b93506020850151915080821115620001f7575f80fd5b506200020685828601620000fd565b9150509250929050565b600181811c908216806200022557607f821691505b6020821081036200024457634e487b7160e01b5f52602260045260245ffd5b50919050565b601f8211156200029557805f5260205f20601f840160051c81016020851015620002715750805b601f840160051c820191505b8181101562000292575f81556001016200027d565b50505b505050565b81516001600160401b03811115620002b657620002b6620000e9565b620002ce81620002c7845462000210565b846200024a565b602080601f83116001811462000304575f8415620002ec5750858301515b5f19600386901b1c1916600185901b1785556200035e565b5f85815260208120601f198616915b82811015620003345788860151825594840194600190910190840162000313565b50858210156200035257878501515f19600388901b60f8161c191681555b505060018460011b0185555b505050505050565b61089880620003745f395ff3fe608060405234801561000f575f80fd5b50600436106100cb575f3560e01c806370a082311161008857806395d89b411161006357806395d89b41146101a4578063a9059cbb146101ac578063dd62ed3e146101bf578063f2fde38b146101f7575f80fd5b806370a0823114610159578063715018a6146101815780638da5cb5b14610189575f80fd5b806306fdde03146100cf578063095ea7b3146100ed57806318160ddd1461011057806323b872dd14610122578063313ce5671461013557806340c10f1914610144575b5f80fd5b6100d761020a565b6040516100e491906106f2565b60405180910390f35b6101006100fb366004610759565b61029a565b60405190151581526020016100e4565b6002545b6040519081526020016100e4565b610100610130366004610781565b6102b3565b604051601281526020016100e4565b610157610152366004610759565b6102d6565b005b6101146101673660046107ba565b6001600160a01b03165f9081526020819052604090205490565b6101576102ec565b6005546040516001600160a01b0390911681526020016100e4565b6100d76102ff565b6101006101ba366004610759565b61030e565b6101146101cd3660046107da565b6001600160a01b039182165f90815260016020908152604080832093909416825291909152205490565b6101576102053660046107ba565b61031b565b6060600380546102199061080b565b80601f01602080910402602001604051908101604052809291908181526020018280546102459061080b565b80156102905780601f1061026757610100808354040283529160200191610290565b820191905f5260205f20905b81548152906001019060200180831161027357829003601f168201915b5050505050905090565b5f336102a781858561035d565b60019150505b92915050565b5f336102c085828561036f565b6102cb8585856103eb565b506001949350505050565b6102de610448565b6102e88282610475565b5050565b6102f4610448565b6102fd5f6104a9565b565b6060600480546102199061080b565b5f336102a78185856103eb565b610323610448565b6001600160a01b03811661035157604051631e4fbdf760e01b81525f60048201526024015b60405180910390fd5b61035a816104a9565b50565b61036a83838360016104fa565b505050565b6001600160a01b038381165f908152600160209081526040808320938616835292905220545f198110156103e557818110156103d757604051637dc7a0d960e11b81526001600160a01b03841660048201526024810182905260448101839052606401610348565b6103e584848484035f6104fa565b50505050565b6001600160a01b03831661041457604051634b637e8f60e11b81525f6004820152602401610348565b6001600160a01b03821661043d5760405163ec442f0560e01b81525f6004820152602401610348565b61036a8383836105cc565b6005546001600160a01b031633146102fd5760405163118cdaa760e01b8152336004820152602401610348565b6001600160a01b03821661049e5760405163ec442f0560e01b81525f6004820152602401610348565b6102e85f83836105cc565b600580546001600160a01b038381166001600160a01b0319831681179093556040519116919082907f8be0079c531659141344cd1fd0a4f28419497f9722a3daafe3b4186f6b6457e0905f90a35050565b6001600160a01b0384166105235760405163e602df0560e01b81525f6004820152602401610348565b6001600160a01b03831661054c57604051634a1406b160e11b81525f6004820152602401610348565b6001600160a01b038085165f90815260016020908152604080832093871683529290522082905580156103e557826001600160a01b0316846001600160a01b03167f8c5be1e5ebec7d5bd14f71427d1e84f3dd0314c0f7b2291e5b200ac8c7c3b925846040516105be91815260200190565b60405180910390a350505050565b6001600160a01b0383166105f6578060025f8282546105eb9190610843565b909155506106669050565b6001600160a01b0383165f90815260208190526040902054818110156106485760405163391434e360e21b81526001600160a01b03851660048201526024810182905260448101839052606401610348565b6001600160a01b0384165f9081526020819052604090209082900390555b6001600160a01b038216610682576002805482900390556106a0565b6001600160a01b0382165f9081526020819052604090208054820190555b816001600160a01b0316836001600160a01b03167fddf252ad1be2c89b69c2b068fc378daa952ba7f163c4a11628f55a4df523b3ef836040516106e591815260200190565b60405180910390a3505050565b5f602080835283518060208501525f5b8181101561071e57858101830151858201604001528201610702565b505f604082860101526040601f19601f8301168501019250505092915050565b80356001600160a01b0381168114610754575f80fd5b919050565b5f806040838503121561076a575f80fd5b6107738361073e565b946020939093013593505050565b5f805f60608486031215610793575f80fd5b61079c8461073e565b92506107aa6020850161073e565b9150604084013590509250925092565b5f602082840312156107ca575f80fd5b6107d38261073e565b9392505050565b5f80604083850312156107eb575f80fd5b6107f48361073e565b91506108026020840161073e565b90509250929050565b600181811c9082168061081f57607f821691505b60208210810361083d57634e487b7160e01b5f52602260045260245ffd5b50919050565b808201808211156102ad57634e487b7160e01b5f52601160045260245ffdfea2646970667358221220f25fec4651ca8b8bc5f0ef848b4fe31ca0e0d86c882702db2ba9f333635eae2a64736f6c6343000818003300000000000000000000000000000000000000000000000000000000000000400000000000000000000000000000000000000000000000000000000000000080000000000000000000000000000000000000000000000000000000000000000d4172656e6120546f6b656e2042000000000000000000000000000000000000000000000000000000000000000000000000000000000000000000000000000004544b4e4200000000000000000000000000000000000000000000000000000000",
        "nonce": "0x63",
        "chainId": "0xc488"
      },
      "additionalContracts": [],
      "isFixedGasLimit": false
    },
    {
      "hash": "0x73b0c5e6826e6d8262b9eb499a745903e1a1e1d0cf9c0aeed53b37d84aaff414",
      "transactionType": "CREATE",
      "contractName": "Token",
      "contractAddress": "0xd06cbe7da736fbe4e696d0186025133de930a75a",
      "function": null,
      "arguments": [
        "Arena USD",
        "aUSD"
      ],
      "transaction": {
        "from": "0x973c770d78e4183dc5464a819ba154e2d26d9048",
        "gas": "0xc285c",
        "value": "0x0",
        "input": "0x608060405234801562000010575f80fd5b5060405162000c0c38038062000c0c8339810160408190526200003391620001aa565b33828260036200004483826200029a565b5060046200005382826200029a565b5050506001600160a01b0381166200008457604051631e4fbdf760e01b81525f600482015260240160405180910390fd5b6200008f8162000098565b50505062000366565b600580546001600160a01b038381166001600160a01b0319831681179093556040519116919082907f8be0079c531659141344cd1fd0a4f28419497f9722a3daafe3b4186f6b6457e0905f90a35050565b634e487b7160e01b5f52604160045260245ffd5b5f82601f8301126200010d575f80fd5b81516001600160401b03808211156200012a576200012a620000e9565b604051601f8301601f19908116603f01168101908282118183101715620001555762000155620000e9565b816040528381526020925086602085880101111562000172575f80fd5b5f91505b8382101562000195578582018301518183018401529082019062000176565b5f602085830101528094505050505092915050565b5f8060408385031215620001bc575f80fd5b82516001600160401b0380821115620001d3575f80fd5b620001e186838701620000fd565b93506020850151915080821115620001f7575f80fd5b506200020685828601620000fd565b9150509250929050565b600181811c908216806200022557607f821691505b6020821081036200024457634e487b7160e01b5f52602260045260245ffd5b50919050565b601f8211156200029557805f5260205f20601f840160051c81016020851015620002715750805b601f840160051c820191505b8181101562000292575f81556001016200027d565b50505b505050565b81516001600160401b03811115620002b657620002b6620000e9565b620002ce81620002c7845462000210565b846200024a565b602080601f83116001811462000304575f8415620002ec5750858301515b5f19600386901b1c1916600185901b1785556200035e565b5f85815260208120601f198616915b82811015620003345788860151825594840194600190910190840162000313565b50858210156200035257878501515f19600388901b60f8161c191681555b505060018460011b0185555b505050505050565b61089880620003745f395ff3fe608060405234801561000f575f80fd5b50600436106100cb575f3560e01c806370a082311161008857806395d89b411161006357806395d89b41146101a4578063a9059cbb146101ac578063dd62ed3e146101bf578063f2fde38b146101f7575f80fd5b806370a0823114610159578063715018a6146101815780638da5cb5b14610189575f80fd5b806306fdde03146100cf578063095ea7b3146100ed57806318160ddd1461011057806323b872dd14610122578063313ce5671461013557806340c10f1914610144575b5f80fd5b6100d761020a565b6040516100e491906106f2565b60405180910390f35b6101006100fb366004610759565b61029a565b60405190151581526020016100e4565b6002545b6040519081526020016100e4565b610100610130366004610781565b6102b3565b604051601281526020016100e4565b610157610152366004610759565b6102d6565b005b6101146101673660046107ba565b6001600160a01b03165f9081526020819052604090205490565b6101576102ec565b6005546040516001600160a01b0390911681526020016100e4565b6100d76102ff565b6101006101ba366004610759565b61030e565b6101146101cd3660046107da565b6001600160a01b039182165f90815260016020908152604080832093909416825291909152205490565b6101576102053660046107ba565b61031b565b6060600380546102199061080b565b80601f01602080910402602001604051908101604052809291908181526020018280546102459061080b565b80156102905780601f1061026757610100808354040283529160200191610290565b820191905f5260205f20905b81548152906001019060200180831161027357829003601f168201915b5050505050905090565b5f336102a781858561035d565b60019150505b92915050565b5f336102c085828561036f565b6102cb8585856103eb565b506001949350505050565b6102de610448565b6102e88282610475565b5050565b6102f4610448565b6102fd5f6104a9565b565b6060600480546102199061080b565b5f336102a78185856103eb565b610323610448565b6001600160a01b03811661035157604051631e4fbdf760e01b81525f60048201526024015b60405180910390fd5b61035a816104a9565b50565b61036a83838360016104fa565b505050565b6001600160a01b038381165f908152600160209081526040808320938616835292905220545f198110156103e557818110156103d757604051637dc7a0d960e11b81526001600160a01b03841660048201526024810182905260448101839052606401610348565b6103e584848484035f6104fa565b50505050565b6001600160a01b03831661041457604051634b637e8f60e11b81525f6004820152602401610348565b6001600160a01b03821661043d5760405163ec442f0560e01b81525f6004820152602401610348565b61036a8383836105cc565b6005546001600160a01b031633146102fd5760405163118cdaa760e01b8152336004820152602401610348565b6001600160a01b03821661049e5760405163ec442f0560e01b81525f6004820152602401610348565b6102e85f83836105cc565b600580546001600160a01b038381166001600160a01b0319831681179093556040519116919082907f8be0079c531659141344cd1fd0a4f28419497f9722a3daafe3b4186f6b6457e0905f90a35050565b6001600160a01b0384166105235760405163e602df0560e01b81525f6004820152602401610348565b6001600160a01b03831661054c57604051634a1406b160e11b81525f6004820152602401610348565b6001600160a01b038085165f90815260016020908152604080832093871683529290522082905580156103e557826001600160a01b0316846001600160a01b03167f8c5be1e5ebec7d5bd14f71427d1e84f3dd0314c0f7b2291e5b200ac8c7c3b925846040516105be91815260200190565b60405180910390a350505050565b6001600160a01b0383166105f6578060025f8282546105eb9190610843565b909155506106669050565b6001600160a01b0383165f90815260208190526040902054818110156106485760405163391434e360e21b81526001600160a01b03851660048201526024810182905260448101839052606401610348565b6001600160a01b0384165f9081526020819052604090209082900390555b6001600160a01b038216610682576002805482900390556106a0565b6001600160a01b0382165f9081526020819052604090208054820190555b816001600160a01b0316836001600160a01b03167fddf252ad1be2c89b69c2b068fc378daa952ba7f163c4a11628f55a4df523b3ef836040516106e591815260200190565b60405180910390a3505050565b5f602080835283518060208501525f5b8181101561071e57858101830151858201604001528201610702565b505f604082860101526040601f19601f8301168501019250505092915050565b80356001600160a01b0381168114610754575f80fd5b919050565b5f806040838503121561076a575f80fd5b6107738361073e565b946020939093013593505050565b5f805f60608486031215610793575f80fd5b61079c8461073e565b92506107aa6020850161073e565b9150604084013590509250925092565b5f602082840312156107ca575f80fd5b6107d38261073e565b9392505050565b5f80604083850312156107eb575f80fd5b6107f48361073e565b91506108026020840161073e565b90509250929050565b600181811c9082168061081f57607f821691505b60208210810361083d57634e487b7160e01b5f52602260045260245ffd5b50919050565b808201808211156102ad57634e487b7160e01b5f52601160045260245ffdfea2646970667358221220f25fec4651ca8b8bc5f0ef848b4fe31ca0e0d86c882702db2ba9f333635eae2a64736f6c634300081800330000000000000000000000000000000000000000000000000000000000000040000000000000000000000000000000000000000000000000000000000000008000000000000000000000000000000000000000000000000000000000000000094172656e6120555344000000000000000000000000000000000000000000000000000000000000000000000000000000000000000000000000000000000000046155534400000000000000000000000000000000000000000000000000000000",
        "nonce": "0x64",
        "chainId": "0xc488"
      },
      "additionalContracts": [],
      "isFixedGasLimit": false
    },
    {
      "hash": "0x88b16b186e8632664617cb1c37cc5aa8c7d049e0ae34ee505d778aa356f0010e",
      "transactionType": "CALL",
      "contractName": "Token",
      "contractAddress": "0xb5e5433bba01a7d869b267b5b447000734f371bd",
      "function": "mint(address,uint256)",
      "arguments": [
        "0x973c770D78e4183dC5464A819Ba154e2d26d9048",
        "1000000000000000000000000"
      ],
      "transaction": {
        "from": "0x973c770d78e4183dc5464a819ba154e2d26d9048",
        "to": "0xb5e5433bba01a7d869b267b5b447000734f371bd",
        "gas": "0x17d79",
        "value": "0x0",
        "input": "0x40c10f19000000000000000000000000973c770d78e4183dc5464a819ba154e2d26d904800000000000000000000000000000000000000000000d3c21bcecceda1000000",
        "nonce": "0x65",
        "chainId": "0xc488"
      },
      "additionalContracts": [],
      "isFixedGasLimit": false
    },
    {
      "hash": "0x98bbc75c9b3551cdc1b860e27de149220b052768d80df8cb7fcdc5e4cb2e73c9",
      "transactionType": "CALL",
      "contractName": "Token",
      "contractAddress": "0x23adac424fd41317253ab7341f416a8455d80666",
      "function": "mint(address,uint256)",
      "arguments": [
        "0x973c770D78e4183dC5464A819Ba154e2d26d9048",
        "1000000000000000000000000"
      ],
      "transaction": {
        "from": "0x973c770d78e4183dc5464a819ba154e2d26d9048",
        "to": "0x23adac424fd41317253ab7341f416a8455d80666",
        "gas": "0x17d79",
        "value": "0x0",
        "input": "0x40c10f19000000000000000000000000973c770d78e4183dc5464a819ba154e2d26d904800000000000000000000000000000000000000000000d3c21bcecceda1000000",
        "nonce": "0x66",
        "chainId": "0xc488"
      },
      "additionalContracts": [],
      "isFixedGasLimit": false
    },
    {
      "hash": "0x8707ab6cb73a572ddbf66c0199bffbc629c709396aafd2e4321176705b832a22",
      "transactionType": "CALL",
      "contractName": "Token",
      "contractAddress": "0xd06cbe7da736fbe4e696d0186025133de930a75a",
      "function": "mint(address,uint256)",
      "arguments": [
        "0x973c770D78e4183dC5464A819Ba154e2d26d9048",
        "1000000000000000000000000"
      ],
      "transaction": {
        "from": "0x973c770d78e4183dc5464a819ba154e2d26d9048",
        "to": "0xd06cbe7da736fbe4e696d0186025133de930a75a",
        "gas": "0x17d79",
        "value": "0x0",
        "input": "0x40c10f19000000000000000000000000973c770d78e4183dc5464a819ba154e2d26d904800000000000000000000000000000000000000000000d3c21bcecceda1000000",
        "nonce": "0x67",
        "chainId": "0xc488"
      },
      "additionalContracts": [],
      "isFixedGasLimit": false
    },
    {
      "hash": "0x1a3ac69a8ec9e73263010c29d4d699efc41da817544f46da434a9be2c109b84e",
      "transactionType": "CREATE",
      "contractName": "AMMMock",
      "contractAddress": "0xd464e92c6441a38c6ec89dbf398e565eb565f9f8",
      "function": null,
      "arguments": null,
      "transaction": {
        "from": "0x973c770d78e4183dc5464a819ba154e2d26d9048",
        "gas": "0xab7bc",
        "value": "0x0",
        "input": "0x608060405234801561000f575f80fd5b50338061003557604051631e4fbdf760e01b81525f600482015260240160405180910390fd5b61003e81610044565b50610093565b5f80546001600160a01b038381166001600160a01b0319831681178455604051919092169283917f8be0079c531659141344cd1fd0a4f28419497f9722a3daafe3b4186f6b6457e09190a35050565b610855806100a05f395ff3fe608060405234801561000f575f80fd5b506004361061007a575f3560e01c8063cf6c62ea11610058578063cf6c62ea146100c8578063df791e50146100db578063ea4afc54146100ee578063f2fde38b14610118575f80fd5b80634aa066521461007e578063715018a6146100a45780638da5cb5b146100ae575b5f80fd5b61009161008c3660046106c1565b61012b565b6040519081526020015b60405180910390f35b6100ac6101f1565b005b5f546040516001600160a01b03909116815260200161009b565b6100ac6100d63660046106fa565b610204565b6100916100e93660046106c1565b610428565b6100916100fc366004610739565b600160209081525f928352604080842090915290825290205481565b6100ac61012636600461076a565b6105ee565b6001600160a01b038084165f8181526001602081815260408084209588168452948152848320549181528483209383529290925291822054811580159061017157505f81115b6101ac5760405162461bcd60e51b81526020600482015260076024820152661393d7d413d3d360ca1b60448201526064015b60405180910390fd5b5f6103e86101bc866103e561079e565b6101c691906107bb565b90506101d281846107da565b6101dc838361079e565b6101e691906107bb565b979650505050505050565b6101f961062b565b6102025f610657565b565b826001600160a01b0316846001600160a01b03161415801561022e57506001600160a01b03841615155b801561024257506001600160a01b03831615155b6102795760405162461bcd60e51b81526020600482015260086024820152672120a22fa820a4a960c11b60448201526064016101a3565b6040516323b872dd60e01b8152336004820152306024820152604481018390526001600160a01b038516906323b872dd906064016020604051808303815f875af11580156102c9573d5f803e3d5ffd5b505050506040513d601f19601f820116820180604052508101906102ed91906107ed565b506040516323b872dd60e01b8152336004820152306024820152604481018290526001600160a01b038416906323b872dd906064016020604051808303815f875af115801561033e573d5f803e3d5ffd5b505050506040513d601f19601f8201168201806040525081019061036291906107ed565b506001600160a01b038085165f908152600160209081526040808320938716835292905290812080548492906103999084906107da565b90915550506001600160a01b038084165f908152600160209081526040808320938816835292905290812080548392906103d49084906107da565b909155505060408051838152602081018390526001600160a01b0380861692908716917f36f3b2e1a21c19137dd82ec243b0708a1d26b3d1fa1dc49c44c4c366a5878138910160405180910390a350505050565b5f61043484848461012b565b6040516323b872dd60e01b8152336004820152306024820152604481018490529091506001600160a01b038516906323b872dd906064016020604051808303815f875af1158015610487573d5f803e3d5ffd5b505050506040513d601f19601f820116820180604052508101906104ab91906107ed565b506001600160a01b038085165f908152600160209081526040808320938716835292905290812080548492906104e29084906107da565b90915550506001600160a01b038084165f9081526001602090815260408083209388168352929052908120805483929061051d90849061080c565b909155505060405163a9059cbb60e01b8152336004820152602481018290526001600160a01b0384169063a9059cbb906044016020604051808303815f875af115801561056c573d5f803e3d5ffd5b505050506040513d601f19601f8201168201806040525081019061059091906107ed565b50826001600160a01b0316846001600160a01b03167ffa2dda1cc1b86e41239702756b13effbc1a092b5c57e3ad320fbe4f3b13fe23584846040516105df929190918252602082015260400190565b60405180910390a39392505050565b6105f661062b565b6001600160a01b03811661061f57604051631e4fbdf760e01b81525f60048201526024016101a3565b61062881610657565b50565b5f546001600160a01b031633146102025760405163118cdaa760e01b81523360048201526024016101a3565b5f80546001600160a01b038381166001600160a01b0319831681178455604051919092169283917f8be0079c531659141344cd1fd0a4f28419497f9722a3daafe3b4186f6b6457e09190a35050565b80356001600160a01b03811681146106bc575f80fd5b919050565b5f805f606084860312156106d3575f80fd5b6106dc846106a6565b92506106ea602085016106a6565b9150604084013590509250925092565b5f805f806080858703121561070d575f80fd5b610716856106a6565b9350610724602086016106a6565b93969395505050506040820135916060013590565b5f806040838503121561074a575f80fd5b610753836106a6565b9150610761602084016106a6565b90509250929050565b5f6020828403121561077a575f80fd5b610783826106a6565b9392505050565b634e487b7160e01b5f52601160045260245ffd5b80820281158282048414176107b5576107b561078a565b92915050565b5f826107d557634e487b7160e01b5f52601260045260245ffd5b500490565b808201808211156107b5576107b561078a565b5f602082840312156107fd575f80fd5b81518015158114610783575f80fd5b818103818111156107b5576107b561078a56fea2646970667358221220d58e5639f5d0e636c5a4b20f901cc1a2bbb5f7b08e6176add1a76d1f47eacc0464736f6c63430008180033",
        "nonce": "0x68",
        "chainId": "0xc488"
      },
      "additionalContracts": [],
      "isFixedGasLimit": false
    },
    {
      "hash": "0xe62aae9d6ec825f7c20f2c54f7be1d09f39ec1f85684a0acb77eea1103769c06",
      "transactionType": "CALL",
      "contractName": "Token",
      "contractAddress": "0xb5e5433bba01a7d869b267b5b447000734f371bd",
      "function": "approve(address,uint256)",
      "arguments": [
        "0xD464E92C6441A38C6ec89dBf398E565eB565f9F8",
        "115792089237316195423570985008687907853269984665640564039457584007913129639935"
      ],
      "transaction": {
        "from": "0x973c770d78e4183dc5464a819ba154e2d26d9048",
        "to": "0xb5e5433bba01a7d869b267b5b447000734f371bd",
        "gas": "0xfbda",
        "value": "0x0",
        "input": "0x095ea7b3000000000000000000000000d464e92c6441a38c6ec89dbf398e565eb565f9f8ffffffffffffffffffffffffffffffffffffffffffffffffffffffffffffffff",
        "nonce": "0x69",
        "chainId": "0xc488"
      },
      "additionalContracts": [],
      "isFixedGasLimit": false
    },
    {
      "hash": "0xc2d7dfac42ee408bc3729f1c4fb6266a2624df2c0a753af0a135f39b793781bf",
      "transactionType": "CALL",
      "contractName": "Token",
      "contractAddress": "0x23adac424fd41317253ab7341f416a8455d80666",
      "function": "approve(address,uint256)",
      "arguments": [
        "0xD464E92C6441A38C6ec89dBf398E565eB565f9F8",
        "115792089237316195423570985008687907853269984665640564039457584007913129639935"
      ],
      "transaction": {
        "from": "0x973c770d78e4183dc5464a819ba154e2d26d9048",
        "to": "0x23adac424fd41317253ab7341f416a8455d80666",
        "gas": "0xfbda",
        "value": "0x0",
        "input": "0x095ea7b3000000000000000000000000d464e92c6441a38c6ec89dbf398e565eb565f9f8ffffffffffffffffffffffffffffffffffffffffffffffffffffffffffffffff",
        "nonce": "0x6a",
        "chainId": "0xc488"
      },
      "additionalContracts": [],
      "isFixedGasLimit": false
    },
    {
      "hash": "0x3e228381f7b4c456b926fdc3aedaec121842e2ce63154b3edcb0ef32782ed495",
      "transactionType": "CALL",
      "contractName": "Token",
      "contractAddress": "0xd06cbe7da736fbe4e696d0186025133de930a75a",
      "function": "approve(address,uint256)",
      "arguments": [
        "0xD464E92C6441A38C6ec89dBf398E565eB565f9F8",
        "115792089237316195423570985008687907853269984665640564039457584007913129639935"
      ],
      "transaction": {
        "from": "0x973c770d78e4183dc5464a819ba154e2d26d9048",
        "to": "0xd06cbe7da736fbe4e696d0186025133de930a75a",
        "gas": "0xfbda",
        "value": "0x0",
        "input": "0x095ea7b3000000000000000000000000d464e92c6441a38c6ec89dbf398e565eb565f9f8ffffffffffffffffffffffffffffffffffffffffffffffffffffffffffffffff",
        "nonce": "0x6b",
        "chainId": "0xc488"
      },
      "additionalContracts": [],
      "isFixedGasLimit": false
    },
    {
      "hash": "0x63c204c2026f160253225fd8a1e20d1c5736ddaf5551d21569dc927622b772e3",
      "transactionType": "CALL",
      "contractName": "AMMMock",
      "contractAddress": "0xd464e92c6441a38c6ec89dbf398e565eb565f9f8",
      "function": "addLiquidity(address,address,uint256,uint256)",
      "arguments": [
        "0xB5E5433bbA01a7D869b267b5b447000734f371BD",
        "0x23adAc424Fd41317253Ab7341F416a8455d80666",
        "200000000000000000000000",
        "200000000000000000000000"
      ],
      "transaction": {
        "from": "0x973c770d78e4183dc5464a819ba154e2d26d9048",
        "to": "0xd464e92c6441a38c6ec89dbf398e565eb565f9f8",
        "gas": "0x2f56d",
        "value": "0x0",
        "input": "0xcf6c62ea000000000000000000000000b5e5433bba01a7d869b267b5b447000734f371bd00000000000000000000000023adac424fd41317253ab7341f416a8455d80666000000000000000000000000000000000000000000002a5a058fc295ed000000000000000000000000000000000000000000000000002a5a058fc295ed000000",
        "nonce": "0x6c",
        "chainId": "0xc488"
      },
      "additionalContracts": [],
      "isFixedGasLimit": false
    },
    {
      "hash": "0x07a57c5845eafbd044225eead0fd912f44b76bd94820412aa146b5d6e1c8fec5",
      "transactionType": "CALL",
      "contractName": "AMMMock",
      "contractAddress": "0xd464e92c6441a38c6ec89dbf398e565eb565f9f8",
      "function": "addLiquidity(address,address,uint256,uint256)",
      "arguments": [
        "0xB5E5433bbA01a7D869b267b5b447000734f371BD",
        "0xd06CbE7DA736fbE4E696d0186025133de930a75a",
        "200000000000000000000000",
        "200000000000000000000000"
      ],
      "transaction": {
        "from": "0x973c770d78e4183dc5464a819ba154e2d26d9048",
        "to": "0xd464e92c6441a38c6ec89dbf398e565eb565f9f8",
        "gas": "0x2c04b",
        "value": "0x0",
        "input": "0xcf6c62ea000000000000000000000000b5e5433bba01a7d869b267b5b447000734f371bd000000000000000000000000d06cbe7da736fbe4e696d0186025133de930a75a000000000000000000000000000000000000000000002a5a058fc295ed000000000000000000000000000000000000000000000000002a5a058fc295ed000000",
        "nonce": "0x6d",
        "chainId": "0xc488"
      },
      "additionalContracts": [],
      "isFixedGasLimit": false
    },
    {
      "hash": "0x6d6c007e1087c3670ff726940b16ffb7c1f3a778a8c2f9f7d0cb700ad1e43976",
      "transactionType": "CALL",
      "contractName": "AMMMock",
      "contractAddress": "0xd464e92c6441a38c6ec89dbf398e565eb565f9f8",
      "function": "addLiquidity(address,address,uint256,uint256)",
      "arguments": [
        "0x23adAc424Fd41317253Ab7341F416a8455d80666",
        "0xd06CbE7DA736fbE4E696d0186025133de930a75a",
        "200000000000000000000000",
        "200000000000000000000000"
      ],
      "transaction": {
        "from": "0x973c770d78e4183dc5464a819ba154e2d26d9048",
        "to": "0xd464e92c6441a38c6ec89dbf398e565eb565f9f8",
        "gas": "0x25eac",
        "value": "0x0",
        "input": "0xcf6c62ea00000000000000000000000023adac424fd41317253ab7341f416a8455d80666000000000000000000000000d06cbe7da736fbe4e696d0186025133de930a75a000000000000000000000000000000000000000000002a5a058fc295ed000000000000000000000000000000000000000000000000002a5a058fc295ed000000",
        "nonce": "0x6e",
        "chainId": "0xc488"
      },
      "additionalContracts": [],
      "isFixedGasLimit": false
    },
    {
      "hash": "0xea0d9f2554bb8681e9f66e73019dd786c22459fe70f12b898034790f7ae60cea",
      "transactionType": "CREATE",
      "contractName": "BotRegistry",
      "contractAddress": "0x1ce76bdc5ce3299ec84d2a1154aacfe5302ac452",
      "function": null,
      "arguments": null,
      "transaction": {
        "from": "0x973c770d78e4183dc5464a819ba154e2d26d9048",
        "gas": "0x269ca5",
        "value": "0x0",
        "input": "0x608060405234801562000010575f80fd5b503360405180604001604052806009815260200168151c9859195c909bdd60ba1b81525060405180604001604052806004815260200163151093d560e21b815250815f9081620000619190620001c0565b506001620000708282620001c0565b5050506001600160a01b038116620000a157604051631e4fbdf760e01b81525f600482015260240160405180910390fd5b620000ac81620000b3565b506200028c565b600880546001600160a01b0319169055620000ce81620000d1565b50565b600780546001600160a01b038381166001600160a01b0319831681179093556040519116919082907f8be0079c531659141344cd1fd0a4f28419497f9722a3daafe3b4186f6b6457e0905f90a35050565b634e487b7160e01b5f52604160045260245ffd5b600181811c908216806200014b57607f821691505b6020821081036200016a57634e487b7160e01b5f52602260045260245ffd5b50919050565b601f821115620001bb57805f5260205f20601f840160051c81016020851015620001975750805b601f840160051c820191505b81811015620001b8575f8155600101620001a3565b50505b505050565b81516001600160401b03811115620001dc57620001dc62000122565b620001f481620001ed845462000136565b8462000170565b602080601f8311600181146200022a575f8415620002125750858301515b5f19600386901b1c1916600185901b17855562000284565b5f85815260208120601f198616915b828110156200025a5788860151825594840194600190910190840162000239565b50858210156200027857878501515f19600388901b60f8161c191681555b505060018460011b0185555b505050505050565b6120bd806200029a5f395ff3fe608060405234801561000f575f80fd5b50600436106101d1575f3560e01c8063865ed330116100fe578063e30c39781161009e578063f2fde38b1161006e578063f2fde38b14610402578063f593c89814610415578063faac432514610428578063fd3705f91461043b575f80fd5b8063e30c3978146103b8578063e63697c8146103c9578063e6bb023c146103dc578063e985e9c5146103ef575f80fd5b8063a22cb465116100d9578063a22cb4651461036c578063b88d4fde1461037f578063bc157ac114610392578063c87b56dd146103a5575f80fd5b8063865ed3301461031e5780638da5cb5b1461035357806395d89b4114610364575f80fd5b806342842e0e116101745780636352211e116101445780636352211e146102e857806370a08231146102fb578063715018a61461030e57806379ba509714610316575f80fd5b806342842e0e1461028b578063428b86171461029e578063598e8cca146102b55780635f70d9ac146102c8575f80fd5b8063095ea7b3116101af578063095ea7b31461023d5780631bd5ff281461025257806323b872dd146102655780633e247e6714610278575f80fd5b806301ffc9a7146101d557806306fdde03146101fd578063081812fc14610212575b5f80fd5b6101e86101e3366004611a57565b61044e565b60405190151581526020015b60405180910390f35b610205610478565b6040516101f49190611abf565b610225610220366004611ad1565b610507565b6040516001600160a01b0390911681526020016101f4565b61025061024b366004611b03565b61052e565b005b610250610260366004611b2b565b61053d565b610250610273366004611b44565b610567565b610250610286366004611b7d565b6105f5565b610250610299366004611b44565b610687565b6102a760095481565b6040519081526020016101f4565b6102a76102c3366004611bb6565b6106a6565b6102db6102d6366004611ad1565b610895565b6040516101f49190611c3d565b6102256102f6366004611ad1565b6109db565b6102a7610309366004611b2b565b6109e5565b610250610a2a565b610250610a3d565b6102a761032c366004611cae565b5f918252600c602090815260408084206001600160a01b0393909316845291905290205490565b6007546001600160a01b0316610225565b610205610a81565b61025061037a366004611cd8565b610a90565b61025061038d366004611d1a565b610a9b565b6102506103a0366004611def565b610ab3565b6102056103b3366004611ad1565b610be7565b6008546001600160a01b0316610225565b6102506103d7366004611def565b610cf2565b6102506103ea366004611def565b610e3a565b6101e86103fd366004611e11565b610f2d565b610250610410366004611b2b565b610f5a565b610250610423366004611def565b610fcb565b610250610436366004611cae565b611049565b600a54610225906001600160a01b031681565b5f6001600160e01b03198216632483248360e11b1480610472575061047282611100565b92915050565b60605f805461048690611e39565b80601f01602080910402602001604051908101604052809291908181526020018280546104b290611e39565b80156104fd5780601f106104d4576101008083540402835291602001916104fd565b820191905f5260205f20905b8154815290600101906020018083116104e057829003601f168201915b5050505050905090565b5f6105118261114f565b505f828152600460205260409020546001600160a01b0316610472565b610539828233611187565b5050565b610545611194565b600a80546001600160a01b0319166001600160a01b0392909216919091179055565b6001600160a01b03821661059557604051633250574960e11b81525f60048201526024015b60405180910390fd5b5f6105a18383336111c1565b9050836001600160a01b0316816001600160a01b0316146105ef576040516364283d7b60e01b81526001600160a01b038086166004830152602482018490528216604482015260640161058c565b50505050565b600a546040805180820190915260098152684e4f545f4152454e4160b81b6020820152906001600160a01b031633146106415760405162461bcd60e51b815260040161058c9190611abf565b505f918252600b602052604090912060020180546001600160601b03909216600160401b0273ffffffffffffffffffffffff000000000000000019909216919091179055565b6106a183838360405180602001604052805f815250610a9b565b505050565b5f8060095f81546106b690611e85565b918290555090506106c786826112b3565b6107068185858080601f0160208091040260200160405190810160405280939291908181526020018383808284375f9201919091525061131492505050565b6040518060c00160405280876001600160a01b03168152602001866001600160a01b031681526020014267ffffffffffffffff1681526020015f67ffffffffffffffff1681526020015f6001600160601b0316815260200185858080601f0160208091040260200160405190810160405280939291908181526020018383808284375f920182905250939094525050838152600b6020908152604091829020845181546001600160a01b039182166001600160a01b0319918216178355928601516001830180549588015167ffffffffffffffff908116600160a01b026001600160e01b0319909716929093169190911794909417909355606085015160028201805460808801516001600160601b0316600160401b02941691909416179190911790915560a083015190915060038201906108429082611ee1565b50905050856001600160a01b0316817f72bfbe7decacf8bb4ea5e9d9361bded547eb654c929b2358aab4bb88d8ca1f0a87878760405161088493929190611f9d565b60405180910390a395945050505050565b6040805160c0810182525f808252602082018190529181018290526060808201839052608082019290925260a08101919091525f828152600b6020908152604091829020825160c08101845281546001600160a01b03908116825260018301549081169382019390935267ffffffffffffffff600160a01b909304831693810193909352600281015491821660608401526001600160601b03600160401b90920491909116608083015260038101805460a08401919061095490611e39565b80601f016020809104026020016040519081016040528092919081815260200182805461098090611e39565b80156109cb5780601f106109a2576101008083540402835291602001916109cb565b820191905f5260205f20905b8154815290600101906020018083116109ae57829003601f168201915b5050505050815250509050919050565b5f61047282611363565b5f6001600160a01b038216610a0f576040516322718ad960e21b81525f600482015260240161058c565b506001600160a01b03165f9081526003602052604090205490565b610a32611194565b610a3b5f61136d565b565b60085433906001600160a01b03168114610a755760405163118cdaa760e01b81526001600160a01b038216600482015260240161058c565b610a7e8161136d565b50565b60606001805461048690611e39565b610539338383611386565b610aa6848484610567565b6105ef3385858585611424565b8233610abe826109db565b6001600160a01b031614604051806040016040528060098152602001682727aa2fa7aba722a960b91b81525090610b085760405162461bcd60e51b815260040161058c9190611abf565b5060408051808201909152600d81526c24a72b20a624a22faa27a5a2a760991b60208201526001600160a01b038416610b545760405162461bcd60e51b815260040161058c9190611abf565b50610b6a6001600160a01b03841633308561154c565b5f848152600c602090815260408083206001600160a01b038716845290915281208054849290610b9b908490611fdc565b90915550506040518281526001600160a01b0384169085907feaa18152488ce5959073c9c79c88ca90b3d96c00de1f118cfaad664c3dab06b9906020015b60405180910390a350505050565b6060610bf28261114f565b505f8281526006602052604081208054610c0b90611e39565b80601f0160208091040260200160405190810160405280929190818152602001828054610c3790611e39565b8015610c825780601f10610c5957610100808354040283529160200191610c82565b820191905f5260205f20905b815481529060010190602001808311610c6557829003601f168201915b505050505090505f610c9e60408051602081019091525f815290565b905080515f03610caf575092915050565b815115610ce1578082604051602001610cc9929190611fef565b60405160208183030381529060405292505050919050565b610cea846115b3565b949350505050565b8233610cfd826109db565b6001600160a01b031614604051806040016040528060098152602001682727aa2fa7aba722a960b91b81525090610d475760405162461bcd60e51b815260040161058c9190611abf565b505f848152600c602090815260408083206001600160a01b0387168452825291829020548251808401909352601083526f125394d551919250d251539517d0905360821b91830191909152831115610db25760405162461bcd60e51b815260040161058c9190611abf565b505f848152600c602090815260408083206001600160a01b038716845290915281208054849290610de490849061201d565b90915550610dfe90506001600160a01b0384163384611624565b826001600160a01b0316847f9da6493a92039daf47d1f2d7a782299c5994c6323eb1e972f69c432089ec52bf84604051610bd991815260200190565b600a546040805180820190915260098152684e4f545f4152454e4160b81b6020820152906001600160a01b03163314610e865760405162461bcd60e51b815260040161058c9190611abf565b505f838152600c602090815260408083206001600160a01b0386168452825291829020548251808401909352601083526f125394d551919250d251539517d0905360821b91830191909152821115610ef15760405162461bcd60e51b815260040161058c9190611abf565b505f838152600c602090815260408083206001600160a01b038616845290915281208054839290610f2390849061201d565b9091555050505050565b6001600160a01b039182165f90815260056020908152604080832093909416825291909152205460ff1690565b610f62611194565b600880546001600160a01b0383166001600160a01b03199091168117909155610f936007546001600160a01b031690565b6001600160a01b03167f38d16b8cac22d99fc7c124b9cd0de2d3fa1faef420bfe791d8c362d765e2270060405160405180910390a350565b600a546040805180820190915260098152684e4f545f4152454e4160b81b6020820152906001600160a01b031633146110175760405162461bcd60e51b815260040161058c9190611abf565b505f838152600c602090815260408083206001600160a01b038616845290915281208054839290610f23908490611fdc565b8133611054826109db565b6001600160a01b031614604051806040016040528060098152602001682727aa2fa7aba722a960b91b8152509061109e5760405162461bcd60e51b815260040161058c9190611abf565b505f838152600b602052604080822060010180546001600160a01b031981166001600160a01b038781169182179093559251911692839187917f0961628e3a897604e54509dbd098d00cb4b779d14cbdde39bb7e3ffa9ad3d17991a450505050565b5f6001600160e01b031982166380ac58cd60e01b148061113057506001600160e01b03198216635b5e139f60e01b145b8061047257506301ffc9a760e01b6001600160e01b0319831614610472565b5f818152600260205260408120546001600160a01b03168061047257604051637e27328960e01b81526004810184905260240161058c565b6106a18383836001611655565b6007546001600160a01b03163314610a3b5760405163118cdaa760e01b815233600482015260240161058c565b5f828152600260205260408120546001600160a01b03908116908316156111ed576111ed818486611759565b6001600160a01b03811615611227576112085f855f80611655565b6001600160a01b0381165f90815260036020526040902080545f190190555b6001600160a01b03851615611255576001600160a01b0385165f908152600360205260409020805460010190555b5f8481526002602052604080822080546001600160a01b0319166001600160a01b0389811691821790925591518793918516917fddf252ad1be2c89b69c2b068fc378daa952ba7f163c4a11628f55a4df523b3ef91a4949350505050565b6001600160a01b0382166112dc57604051633250574960e11b81525f600482015260240161058c565b5f6112e883835f6111c1565b90506001600160a01b038116156106a1576040516339e3563760e11b81525f600482015260240161058c565b5f82815260066020526040902061132b8282611ee1565b506040518281527ff8e1a15aba9398e019f0b49df1a4fde98ee17ae345cb5f6b5e2c27f5033e8ce79060200160405180910390a15050565b5f6104728261114f565b600880546001600160a01b0319169055610a7e816117bd565b6001600160a01b0382166113b857604051630b61174360e31b81526001600160a01b038316600482015260240161058c565b6001600160a01b038381165f81815260056020908152604080832094871680845294825291829020805460ff191686151590811790915591519182527f17307eab39ab6107e8899845ad3d59bd9653f200f220920489ca2b5937696c31910160405180910390a3505050565b6001600160a01b0383163b1561154557604051630a85bd0160e11b81526001600160a01b0384169063150b7a0290611466908890889087908790600401612030565b6020604051808303815f875af19250505080156114a0575060408051601f3d908101601f1916820190925261149d9181019061206c565b60015b611507573d8080156114cd576040519150601f19603f3d011682016040523d82523d5f602084013e6114d2565b606091505b5080515f036114ff57604051633250574960e11b81526001600160a01b038516600482015260240161058c565b805160208201fd5b6001600160e01b03198116630a85bd0160e11b1461154357604051633250574960e11b81526001600160a01b038516600482015260240161058c565b505b5050505050565b6040516001600160a01b0384811660248301528381166044830152606482018390526105ef9186918216906323b872dd906084015b604051602081830303815290604052915060e01b6020820180516001600160e01b03838183161783525050505061180e565b60606115be8261114f565b505f6115d460408051602081019091525f815290565b90505f8151116115f25760405180602001604052805f81525061161d565b806115fc8461187a565b60405160200161160d929190611fef565b6040516020818303038152906040525b9392505050565b6040516001600160a01b038381166024830152604482018390526106a191859182169063a9059cbb90606401611581565b808061166957506001600160a01b03821615155b1561172a575f6116788461114f565b90506001600160a01b038316158015906116a45750826001600160a01b0316816001600160a01b031614155b80156116b757506116b58184610f2d565b155b156116e05760405163a9fbf51f60e01b81526001600160a01b038416600482015260240161058c565b81156117285783856001600160a01b0316826001600160a01b03167f8c5be1e5ebec7d5bd14f71427d1e84f3dd0314c0f7b2291e5b200ac8c7c3b92560405160405180910390a45b505b50505f90815260046020526040902080546001600160a01b0319166001600160a01b0392909216919091179055565b61176483838361190a565b6106a1576001600160a01b03831661179257604051637e27328960e01b81526004810182905260240161058c565b60405163177e802f60e01b81526001600160a01b03831660048201526024810182905260440161058c565b600780546001600160a01b038381166001600160a01b0319831681179093556040519116919082907f8be0079c531659141344cd1fd0a4f28419497f9722a3daafe3b4186f6b6457e0905f90a35050565b5f8060205f8451602086015f885af18061182d576040513d5f823e3d81fd5b50505f513d91508115611844578060011415611851565b6001600160a01b0384163b155b156105ef57604051635274afe760e01b81526001600160a01b038516600482015260240161058c565b60605f6118868361196b565b60010190505f8167ffffffffffffffff8111156118a5576118a5611d06565b6040519080825280601f01601f1916602001820160405280156118cf576020820181803683370190505b5090508181016020015b5f19016f181899199a1a9b1b9c1cb0b131b232b360811b600a86061a8153600a85049450846118d957509392505050565b5f6001600160a01b03831615801590610cea5750826001600160a01b0316846001600160a01b0316148061194357506119438484610f2d565b80610cea5750505f908152600460205260409020546001600160a01b03908116911614919050565b5f8072184f03e93ff9f4daa797ed6e38ed64bf6a1f0160401b83106119a95772184f03e93ff9f4daa797ed6e38ed64bf6a1f0160401b830492506040015b6d04ee2d6d415b85acef810000000083106119d5576d04ee2d6d415b85acef8100000000830492506020015b662386f26fc1000083106119f357662386f26fc10000830492506010015b6305f5e1008310611a0b576305f5e100830492506008015b6127108310611a1f57612710830492506004015b60648310611a31576064830492506002015b600a83106104725760010192915050565b6001600160e01b031981168114610a7e575f80fd5b5f60208284031215611a67575f80fd5b813561161d81611a42565b5f5b83811015611a8c578181015183820152602001611a74565b50505f910152565b5f8151808452611aab816020860160208601611a72565b601f01601f19169290920160200192915050565b602081525f61161d6020830184611a94565b5f60208284031215611ae1575f80fd5b5035919050565b80356001600160a01b0381168114611afe575f80fd5b919050565b5f8060408385031215611b14575f80fd5b611b1d83611ae8565b946020939093013593505050565b5f60208284031215611b3b575f80fd5b61161d82611ae8565b5f805f60608486031215611b56575f80fd5b611b5f84611ae8565b9250611b6d60208501611ae8565b9150604084013590509250925092565b5f8060408385031215611b8e575f80fd5b8235915060208301356001600160601b0381168114611bab575f80fd5b809150509250929050565b5f805f8060608587031215611bc9575f80fd5b611bd285611ae8565b9350611be060208601611ae8565b9250604085013567ffffffffffffffff80821115611bfc575f80fd5b818701915087601f830112611c0f575f80fd5b813581811115611c1d575f80fd5b886020828501011115611c2e575f80fd5b95989497505060200194505050565b602081525f60018060a01b0380845116602084015280602085015116604084015250604083015167ffffffffffffffff808216606085015280606086015116608085015250506001600160601b0360808401511660a083015260a083015160c080840152610cea60e0840182611a94565b5f8060408385031215611cbf575f80fd5b82359150611ccf60208401611ae8565b90509250929050565b5f8060408385031215611ce9575f80fd5b611cf283611ae8565b915060208301358015158114611bab575f80fd5b634e487b7160e01b5f52604160045260245ffd5b5f805f8060808587031215611d2d575f80fd5b611d3685611ae8565b9350611d4460208601611ae8565b925060408501359150606085013567ffffffffffffffff80821115611d67575f80fd5b818701915087601f830112611d7a575f80fd5b813581811115611d8c57611d8c611d06565b604051601f8201601f19908116603f01168101908382118183101715611db457611db4611d06565b816040528281528a6020848701011115611dcc575f80fd5b826020860160208301375f60208483010152809550505050505092959194509250565b5f805f60608486031215611e01575f80fd5b83359250611b6d60208501611ae8565b5f8060408385031215611e22575f80fd5b611e2b83611ae8565b9150611ccf60208401611ae8565b600181811c90821680611e4d57607f821691505b602082108103611e6b57634e487b7160e01b5f52602260045260245ffd5b50919050565b634e487b7160e01b5f52601160045260245ffd5b5f60018201611e9657611e96611e71565b5060010190565b601f8211156106a157805f5260205f20601f840160051c81016020851015611ec25750805b601f840160051c820191505b81811015611545575f8155600101611ece565b815167ffffffffffffffff811115611efb57611efb611d06565b611f0f81611f098454611e39565b84611e9d565b602080601f831160018114611f42575f8415611f2b5750858301515b5f19600386901b1c1916600185901b178555611543565b5f85815260208120601f198616915b82811015611f7057888601518255948401946001909101908401611f51565b5085821015611f8d57878501515f19600388901b60f8161c191681555b5050505050600190811b01905550565b6001600160a01b03841681526040602082018190528101829052818360608301375f818301606090810191909152601f909201601f1916010192915050565b8082018082111561047257610472611e71565b5f8351612000818460208801611a72565b835190830190612014818360208801611a72565b01949350505050565b8181038181111561047257610472611e71565b6001600160a01b03858116825284166020820152604081018390526080606082018190525f9061206290830184611a94565b9695505050505050565b5f6020828403121561207c575f80fd5b815161161d81611a4256fea26469706673582212202b5b74d99a2d196575cd81081bea669da3d6a060c97bfb64269f8c193aeb81f964736f6c63430008180033",
        "nonce": "0x6f",
        "chainId": "0xc488"
      },
      "additionalContracts": [],
      "isFixedGasLimit": false
    },
    {
      "hash": "0x4a49f274071ccef889f61949eb07ab9b36558a365f1900a28156d7e56939da0b",
      "transactionType": "CREATE",
      "contractName": "Leaderboard",
      "contractAddress": "0xe56cbbb241f23555d5539a5d305fce86e762a228",
      "function": null,
      "arguments": null,
      "transaction": {
        "from": "0x973c770d78e4183dc5464a819ba154e2d26d9048",
        "gas": "0x9ea3c",
        "value": "0x0",
        "input": "0x608060405234801561000f575f80fd5b50338061003557604051631e4fbdf760e01b81525f600482015260240160405180910390fd5b61003e81610044565b506100af565b600180546001600160a01b031916905561005d81610060565b50565b5f80546001600160a01b038381166001600160a01b0319831681178455604051919092169283917f8be0079c531659141344cd1fd0a4f28419497f9722a3daafe3b4186f6b6457e09190a35050565b61078d806100bc5f395ff3fe608060405234801561000f575f80fd5b50600436106100fb575f3560e01c806379ba509711610093578063cce5675511610063578063cce5675514610227578063e30c397814610246578063f2fde38b14610257578063fd3705f91461026a575f80fd5b806379ba5097146101d15780638da5cb5b146101d9578063afdc3f86146101e9578063c5a46ee614610208575f80fd5b8063217a4b70116100ce578063217a4b701461017857806328d0dd71146101a35780635b500826146101b6578063715018a6146101c9575f80fd5b80630176d39f146100ff5780630a66b598146101315780631bd5ff28146101505780631cfb886d14610165575b5f80fd5b61011e61010d366004610600565b60036020525f908152604090205481565b6040519081526020015b60405180910390f35b61011e61013f366004610600565b5f9081526004602052604090205490565b61016361015e366004610617565b61027d565b005b610163610173366004610617565b6102a7565b60025461018b906001600160a01b031681565b6040516001600160a01b039091168152602001610128565b6101636101b1366004610644565b6102d1565b6101636101c4366004610644565b6103ad565b6101636104aa565b6101636104bd565b5f546001600160a01b031661018b565b61011e6101f7366004610600565b5f9081526005602052604090205490565b61011e610216366004610600565b60046020525f908152604090205481565b61011e610235366004610600565b60056020525f908152604090205481565b6001546001600160a01b031661018b565b610163610265366004610617565b610501565b60065461018b906001600160a01b031681565b610285610571565b600680546001600160a01b0319166001600160a01b0392909216919091179055565b6102af610571565b600280546001600160a01b0319166001600160a01b0392909216919091179055565b6006546040805180820190915260098152684e4f545f4152454e4160b81b6020820152906001600160a01b031633146103265760405162461bcd60e51b815260040161031d9190610664565b60405180910390fd5b505f82815260036020526040812054900361034c575f8281526003602052604090208190555b5f82815260046020908152604080832084905560059091528082208290555183917f0877fbda66ac5e21ceac7a34ebb16f4c39fbd9606294b374acdf4b1266aa4705916103a191858252602082015260400190565b60405180910390a25050565b6006546040805180820190915260098152684e4f545f4152454e4160b81b6020820152906001600160a01b031633146103f95760405162461bcd60e51b815260040161031d9190610664565b505f82815260046020908152604080832084905560039091528120541561042d575f83815260036020526040902054610430565b60015b90505f6127108261044185836106c4565b61044b91906106f9565b6104559190610731565b5f85815260056020908152604091829020839055815186815290810183905291925085917f0877fbda66ac5e21ceac7a34ebb16f4c39fbd9606294b374acdf4b1266aa4705910160405180910390a250505050565b6104b2610571565b6104bb5f61059d565b565b60015433906001600160a01b031681146104f55760405163118cdaa760e01b81526001600160a01b038216600482015260240161031d565b6104fe8161059d565b50565b610509610571565b600180546001600160a01b0383166001600160a01b031990911681179091556105395f546001600160a01b031690565b6001600160a01b03167f38d16b8cac22d99fc7c124b9cd0de2d3fa1faef420bfe791d8c362d765e2270060405160405180910390a350565b5f546001600160a01b031633146104bb5760405163118cdaa760e01b815233600482015260240161031d565b600180546001600160a01b03191690556104fe815f80546001600160a01b038381166001600160a01b0319831681178455604051919092169283917f8be0079c531659141344cd1fd0a4f28419497f9722a3daafe3b4186f6b6457e09190a35050565b5f60208284031215610610575f80fd5b5035919050565b5f60208284031215610627575f80fd5b81356001600160a01b038116811461063d575f80fd5b9392505050565b5f8060408385031215610655575f80fd5b50508035926020909101359150565b5f602080835283518060208501525f5b8181101561069057858101830151858201604001528201610674565b505f604082860101526040601f19601f8301168501019250505092915050565b634e487b7160e01b5f52601160045260245ffd5b8082025f8212600160ff1b841416156106df576106df6106b0565b81810583148215176106f3576106f36106b0565b92915050565b5f8261071357634e487b7160e01b5f52601260045260245ffd5b600160ff1b82145f198414161561072c5761072c6106b0565b500590565b8181035f831280158383131683831282161715610750576107506106b0565b509291505056fea264697066735822122007dcca8943fa595a71ea0edaa57102326173c6a236b2b5ca7fde80fb6396c8f364736f6c63430008180033",
        "nonce": "0x70",
        "chainId": "0xc488"
      },
      "additionalContracts": [],
      "isFixedGasLimit": false
    },
    {
      "hash": "0x7ebe25e324d11acba141168991759dac4f6c270aab5e078c7be966ac766b0e1f",
      "transactionType": "CREATE",
      "contractName": "TradingArena",
      "contractAddress": "0x22510fc89fcc90a17c754c68cb581350b3f664be",
      "function": null,
      "arguments": [
        "0x1CE76BDC5cE3299eC84d2A1154AaCFE5302AC452",
        "0xE56CBbB241F23555D5539a5d305fCe86e762A228",
        "0xD464E92C6441A38C6ec89dBf398E565eB565f9F8",
        "0xd06CbE7DA736fbE4E696d0186025133de930a75a"
      ],
      "transaction": {
        "from": "0x973c770d78e4183dc5464a819ba154e2d26d9048",
        "gas": "0x1c0b95",
        "value": "0x0",
        "input": "0x60e060405260016003556107d06004553480156200001b575f80fd5b5060405162001908380380620019088339810160408190526200003e9162000126565b33806200006457604051631e4fbdf760e01b81525f600482015260240160405180910390fd5b6200006f81620000a4565b506001600160a01b0393841660805291831660a052821660c052600280546001600160a01b031916919092161790556200018b565b600180546001600160a01b0319169055620000bf81620000c2565b50565b5f80546001600160a01b038381166001600160a01b0319831681178455604051919092169283917f8be0079c531659141344cd1fd0a4f28419497f9722a3daafe3b4186f6b6457e09190a35050565b6001600160a01b0381168114620000bf575f80fd5b5f805f80608085870312156200013a575f80fd5b8451620001478162000111565b60208601519094506200015a8162000111565b60408601519093506200016d8162000111565b6060860151909250620001808162000111565b939692955090935050565b60805160a05160c0516116db6200022d5f395f8181610188015281816101c30152818161068a015281816106df01528181610d340152610e0301525f818161024901528181610eac01528181610f40015261104a01525f81816102220152818161041b0152818161051c015281816106230152818161077b015281816108e201528181610b4201528181610bd901528181610c720152610fc701526116db5ff3fe608060405234801561000f575f80fd5b5060043610610127575f3560e01c80637b103999116100a9578063af8f72361161006e578063af8f7236146102a1578063c4590d3f146102aa578063e30c3978146102bd578063f2fde38b146102ce578063fc7b6aee146102e1575f80fd5b80637b1039991461021d5780637cd3229a146102445780638bfef4421461026b5780638da5cb5b1461027e57806392151cd31461028e575f80fd5b80634837e204116100ef5780634837e204146101c157806355b36c83146101e75780635f64b55b146101fa578063715018a61461020d57806379ba509714610215575f80fd5b80630600bfe81461012b5780630fc63d1014610140578063217a4b70146101705780632a943945146101835780634656988b146101aa575b5f80fd5b61013e610139366004611280565b6102f4565b005b600554610153906001600160a01b031681565b6040516001600160a01b0390911681526020015b60405180910390f35b600254610153906001600160a01b031681565b6101537f000000000000000000000000000000000000000000000000000000000000000081565b6101b360045481565b604051908152602001610167565b7f0000000000000000000000000000000000000000000000000000000000000000610153565b61013e6101f53660046112b7565b61032a565b600654610153906001600160a01b031681565b61013e6103a7565b61013e6103ba565b6101537f000000000000000000000000000000000000000000000000000000000000000081565b6101537f000000000000000000000000000000000000000000000000000000000000000081565b61013e610279366004611326565b610403565b5f546001600160a01b0316610153565b61013e61029c36600461136b565b61083e565b6101b360035481565b61013e6102b8366004611382565b610847565b6001546001600160a01b0316610153565b61013e6102dc3660046113a2565b61085a565b61013e6102ef36600461136b565b6108ca565b6102fc610a45565b600580546001600160a01b039384166001600160a01b03199182161790915560068054929093169116179055565b5f5b818110156103a2573063fc7b6aee84848481811061034c5761034c6113c4565b905060200201356040518263ffffffff1660e01b815260040161037191815260200190565b5f604051808303815f87803b158015610388575f80fd5b505af1925050508015610399575060015b5060010161032c565b505050565b6103af610a45565b6103b85f610a71565b565b60015433906001600160a01b031681146103f75760405163118cdaa760e01b81526001600160a01b03821660048201526024015b60405180910390fd5b61040081610a71565b50565b6040516317dc366b60e21b8152600481018590525f907f00000000000000000000000000000000000000000000000000000000000000006001600160a01b031690635f70d9ac906024015f60405180830381865afa158015610467573d5f803e3d5ffd5b505050506040513d5f823e601f3d908101601f1916820160405261048e91908101906114d8565b9050600354816060015167ffffffffffffffff166104ac91906115bf565b43116040518060400160405280600e81526020016d2a2920a222afaa27a7afa9a7a7a760911b815250906104f35760405162461bcd60e51b81526004016103ee91906115d2565b50604051630865ed3360e41b8152600481018690526001600160a01b0385811660248301525f917f00000000000000000000000000000000000000000000000000000000000000009091169063865ed33090604401602060405180830381865afa158015610563573d5f803e3d5ffd5b505050506040513d601f19601f820116820180604052508101906105879190611604565b90505f6127106004548361059b919061161b565b6105a59190611632565b9050808411156105b3578093505b60408051808201909152600d81526c4e4f5448494e475f544f5f444f60981b6020820152846105f55760405162461bcd60e51b81526004016103ee91906115d2565b506040516339aec08f60e21b8152600481018890526001600160a01b038781166024830152604482018690527f0000000000000000000000000000000000000000000000000000000000000000169063e6bb023c906064015f604051808303815f87803b158015610664575f80fd5b505af1158015610676573d5f803e3d5ffd5b506106af925050506001600160a01b0387167f000000000000000000000000000000000000000000000000000000000000000086610a8a565b604051630df791e560e41b81526001600160a01b0387811660048301528681166024830152604482018690525f917f00000000000000000000000000000000000000000000000000000000000000009091169063df791e50906064016020604051808303815f875af1158015610727573d5f803e3d5ffd5b505050506040513d601f19601f8201168201806040525081019061074b9190611604565b604051631eb2791360e31b8152600481018a90526001600160a01b038881166024830152604482018390529192507f00000000000000000000000000000000000000000000000000000000000000009091169063f593c898906064015f604051808303815f87803b1580156107be575f80fd5b505af11580156107d0573d5f803e3d5ffd5b50505050856001600160a01b0316876001600160a01b0316897f229580ceeb2fce8a9a4b293b31ff060e8ae378a10f0134663475dc1d456dd6848885604051610823929190918252602082015260400190565b60405180910390a461083488610b17565b5050505050505050565b61040081610b17565b61084f610a45565b600391909155600455565b610862610a45565b600180546001600160a01b0383166001600160a01b031990911681179091556108925f546001600160a01b031690565b6001600160a01b03167f38d16b8cac22d99fc7c124b9cd0de2d3fa1faef420bfe791d8c362d765e2270060405160405180910390a350565b6040516317dc366b60e21b8152600481018290525f907f00000000000000000000000000000000000000000000000000000000000000006001600160a01b031690635f70d9ac906024015f60405180830381865afa15801561092e573d5f803e3d5ffd5b505050506040513d5f823e601f3d908101601f1916820160405261095591908101906114d8565b60208101519091506001600160a01b03166109a05760405162461bcd60e51b815260206004820152600b60248201526a4e4f5f535452415445475960a81b60448201526064016103ee565b5f805f8084602001516001600160a01b03166318e784db876040518263ffffffff1660e01b81526004016109d691815260200190565b608060405180830381865afa1580156109f1573d5f803e3d5ffd5b505050506040513d601f19601f82011682018060405250810190610a159190611651565b93509350935093508315610a3457610a2f86848484610403565b610a3d565b610a3d86610b17565b505050505050565b5f546001600160a01b031633146103b85760405163118cdaa760e01b81523360048201526024016103ee565b600180546001600160a01b0319169055610400816110b3565b604051636eb1769f60e11b81523060048201526001600160a01b0383811660248301525f919085169063dd62ed3e90604401602060405180830381865afa158015610ad7573d5f803e3d5ffd5b505050506040513d601f19601f82011682018060405250810190610afb9190611604565b9050610b118484610b0c85856115bf565b611102565b50505050565b600554604051630865ed3360e41b8152600481018390526001600160a01b0391821660248201525f917f0000000000000000000000000000000000000000000000000000000000000000169063865ed33090604401602060405180830381865afa158015610b87573d5f803e3d5ffd5b505050506040513d601f19601f82011682018060405250810190610bab9190611604565b600654604051630865ed3360e41b8152600481018590526001600160a01b0391821660248201529192505f917f00000000000000000000000000000000000000000000000000000000000000009091169063865ed33090604401602060405180830381865afa158015610c20573d5f803e3d5ffd5b505050506040513d601f19601f82011682018060405250810190610c449190611604565b600254604051630865ed3360e41b8152600481018690526001600160a01b0391821660248201529192505f917f00000000000000000000000000000000000000000000000000000000000000009091169063865ed33090604401602060405180830381865afa158015610cb9573d5f803e3d5ffd5b505050506040513d601f19601f82011682018060405250810190610cdd9190611604565b6002546005549192505f916001600160a01b03908116911614610daa578315610da457600554600254604051632550332960e11b81526001600160a01b0392831660048201529082166024820152604481018690527f000000000000000000000000000000000000000000000000000000000000000090911690634aa0665290606401602060405180830381865afa158015610d7b573d5f803e3d5ffd5b505050506040513d601f19601f82011682018060405250810190610d9f9190611604565b610dac565b5f610dac565b835b6002546006549192505f916001600160a01b03908116911614610e79578315610e7357600654600254604051632550332960e11b81526001600160a01b0392831660048201529082166024820152604481018690527f000000000000000000000000000000000000000000000000000000000000000090911690634aa0665290606401602060405180830381865afa158015610e4a573d5f803e3d5ffd5b505050506040513d601f19601f82011682018060405250810190610e6e9190611604565b610e7b565b5f610e7b565b835b90505f81610e8984866115bf565b610e9391906115bf565b60405163014cd6b360e31b8152600481018990529091507f00000000000000000000000000000000000000000000000000000000000000006001600160a01b031690630a66b59890602401602060405180830381865afa158015610ef9573d5f803e3d5ffd5b505050506040513d601f19601f82011682018060405250810190610f1d9190611604565b5f0361102d576040516328d0dd7160e01b815260048101889052602481018290527f00000000000000000000000000000000000000000000000000000000000000006001600160a01b0316906328d0dd71906044015f604051808303815f87803b158015610f89575f80fd5b505af1158015610f9b573d5f803e3d5ffd5b5050604051633e247e6760e01b8152600481018a90526bffffffffffffffffffffffff841660248201527f00000000000000000000000000000000000000000000000000000000000000006001600160a01b03169250633e247e6791506044015f604051808303815f87803b158015611012575f80fd5b505af1158015611024573d5f803e3d5ffd5b505050506110aa565b604051632da8041360e11b815260048101889052602481018290527f00000000000000000000000000000000000000000000000000000000000000006001600160a01b031690635b500826906044015f604051808303815f87803b158015611093575f80fd5b505af11580156110a5573d5f803e3d5ffd5b505050505b50505050505050565b5f80546001600160a01b038381166001600160a01b0319831681178455604051919092169283917f8be0079c531659141344cd1fd0a4f28419497f9722a3daafe3b4186f6b6457e09190a35050565b604080516001600160a01b038416602482015260448082018490528251808303909101815260649091019091526020810180516001600160e01b031663095ea7b360e01b17905261115384826111b5565b610b1157604080516001600160a01b03851660248201525f6044808301919091528251808303909101815260649091019091526020810180516001600160e01b031663095ea7b360e01b1790526111ab908590611200565b610b118482611200565b5f805f8060205f8651602088015f8a5af192503d91505f5190508280156111f4575081156111e657806001146111f4565b5f866001600160a01b03163b115b93505050505b92915050565b5f8060205f8451602086015f885af18061121f576040513d5f823e3d81fd5b50505f513d91508115611236578060011415611243565b6001600160a01b0384163b155b15610b1157604051635274afe760e01b81526001600160a01b03851660048201526024016103ee565b6001600160a01b0381168114610400575f80fd5b5f8060408385031215611291575f80fd5b823561129c8161126c565b915060208301356112ac8161126c565b809150509250929050565b5f80602083850312156112c8575f80fd5b823567ffffffffffffffff808211156112df575f80fd5b818501915085601f8301126112f2575f80fd5b813581811115611300575f80fd5b8660208260051b8501011115611314575f80fd5b60209290920196919550909350505050565b5f805f8060808587031215611339575f80fd5b84359350602085013561134b8161126c565b9250604085013561135b8161126c565b9396929550929360600135925050565b5f6020828403121561137b575f80fd5b5035919050565b5f8060408385031215611393575f80fd5b50508035926020909101359150565b5f602082840312156113b2575f80fd5b81356113bd8161126c565b9392505050565b634e487b7160e01b5f52603260045260245ffd5b634e487b7160e01b5f52604160045260245ffd5b60405160c0810167ffffffffffffffff8111828210171561140f5761140f6113d8565b60405290565b805167ffffffffffffffff8116811461142c575f80fd5b919050565b5f5b8381101561144b578181015183820152602001611433565b50505f910152565b5f82601f830112611462575f80fd5b815167ffffffffffffffff8082111561147d5761147d6113d8565b604051601f8301601f19908116603f011681019082821181831017156114a5576114a56113d8565b816040528381528660208588010111156114bd575f80fd5b6114ce846020830160208901611431565b9695505050505050565b5f602082840312156114e8575f80fd5b815167ffffffffffffffff808211156114ff575f80fd5b9083019060c08286031215611512575f80fd5b61151a6113ec565b82516115258161126c565b815260208301516115358161126c565b602082015261154660408401611415565b604082015261155760608401611415565b606082015260808301516bffffffffffffffffffffffff8116811461157a575f80fd5b608082015260a083015182811115611590575f80fd5b61159c87828601611453565b60a08301525095945050505050565b634e487b7160e01b5f52601160045260245ffd5b808201808211156111fa576111fa6115ab565b602081525f82518060208401526115f0816040850160208701611431565b601f01601f19169190910160400192915050565b5f60208284031215611614575f80fd5b5051919050565b80820281158282048414176111fa576111fa6115ab565b5f8261164c57634e487b7160e01b5f52601260045260245ffd5b500490565b5f805f8060808587031215611664575f80fd5b84518015158114611673575f80fd5b60208601519094506116848161126c565b60408601519093506116958161126c565b606095909501519396929550505056fea2646970667358221220cfb7b176956cfcb6f412e1de02025d1d2552a2d4eaa6615fb5422e5664ea739264736f6c634300081800330000000000000000000000001ce76bdc5ce3299ec84d2a1154aacfe5302ac452000000000000000000000000e56cbbb241f23555d5539a5d305fce86e762a228000000000000000000000000d464e92c6441a38c6ec89dbf398e565eb565f9f8000000000000000000000000d06cbe7da736fbe4e696d0186025133de930a75a",
        "nonce": "0x71",
        "chainId": "0xc488"
      },
      "additionalContracts": [],
      "isFixedGasLimit": false
    },
    {
      "hash": "0x7b616baa1e600a6f859f42ba23ca51bfb78b8e9d965336f39799e1be21caa425",
      "transactionType": "CALL",
      "contractName": "TradingArena",
      "contractAddress": "0x22510fc89fcc90a17c754c68cb581350b3f664be",
      "function": "setValuationTokens(address,address)",
      "arguments": [
        "0xB5E5433bbA01a7D869b267b5b447000734f371BD",
        "0x23adAc424Fd41317253Ab7341F416a8455d80666"
      ],
      "transaction": {
        "from": "0x973c770d78e4183dc5464a819ba154e2d26d9048",
        "to": "0x22510fc89fcc90a17c754c68cb581350b3f664be",
        "gas": "0x1726b",
        "value": "0x0",
        "input": "0x0600bfe8000000000000000000000000b5e5433bba01a7d869b267b5b447000734f371bd00000000000000000000000023adac424fd41317253ab7341f416a8455d80666",
        "nonce": "0x72",
        "chainId": "0xc488"
      },
      "additionalContracts": [],
      "isFixedGasLimit": false
    },
    {
      "hash": "0x718a735414a80fa53b993bb2f5c07edf0ebea32eb148c920c47b3140e19e35ee",
      "transactionType": "CALL",
      "contractName": "BotRegistry",
      "contractAddress": "0x1ce76bdc5ce3299ec84d2a1154aacfe5302ac452",
      "function": "setArena(address)",
      "arguments": [
        "0x22510fC89FCc90a17C754c68cB581350B3F664bE"
      ],
      "transaction": {
        "from": "0x973c770d78e4183dc5464a819ba154e2d26d9048",
        "to": "0x1ce76bdc5ce3299ec84d2a1154aacfe5302ac452",
        "gas": "0xf8e8",
        "value": "0x0",
        "input": "0x1bd5ff2800000000000000000000000022510fc89fcc90a17c754c68cb581350b3f664be",
        "nonce": "0x73",
        "chainId": "0xc488"
      },
      "additionalContracts": [],
      "isFixedGasLimit": false
    },
    {
      "hash": "0x3e0439347106f9b5c9da88cb8dbf3f66c67fae7eeed1a51f0e62455c2593e3a1",
      "transactionType": "CALL",
      "contractName": "Leaderboard",
      "contractAddress": "0xe56cbbb241f23555d5539a5d305fce86e762a228",
      "function": "setArena(address)",
      "arguments": [
        "0x22510fC89FCc90a17C754c68cB581350B3F664bE"
      ],
      "transaction": {
        "from": "0x973c770d78e4183dc5464a819ba154e2d26d9048",
        "to": "0xe56cbbb241f23555d5539a5d305fce86e762a228",
        "gas": "0x10758",
        "value": "0x0",
        "input": "0x1bd5ff2800000000000000000000000022510fc89fcc90a17c754c68cb581350b3f664be",
        "nonce": "0x74",
        "chainId": "0xc488"
      },
      "additionalContracts": [],
      "isFixedGasLimit": false
    },
    {
      "hash": "0x3d5d0aaaee7863c85ab4abaaa2b5ce0dd3557c1af3a2e4c92e575963b2eace23",
      "transactionType": "CALL",
      "contractName": "Leaderboard",
      "contractAddress": "0xe56cbbb241f23555d5539a5d305fce86e762a228",
      "function": "setQuoteToken(address)",
      "arguments": [
        "0xd06CbE7DA736fbE4E696d0186025133de930a75a"
      ],
      "transaction": {
        "from": "0x973c770d78e4183dc5464a819ba154e2d26d9048",
        "to": "0xe56cbbb241f23555d5539a5d305fce86e762a228",
        "gas": "0xf8d5",
        "value": "0x0",
        "input": "0x1cfb886d000000000000000000000000d06cbe7da736fbe4e696d0186025133de930a75a",
        "nonce": "0x75",
        "chainId": "0xc488"
      },
      "additionalContracts": [],
      "isFixedGasLimit": false
    },
    {
      "hash": "0xba5f69cd6b204592c521eb34332c28155b40f523948330977d0b838178b0ff4d",
      "transactionType": "CREATE",
      "contractName": "TournamentManager",
      "contractAddress": "0x2d27ecfed170176c63d9767e292b0fbab161d1cb",
      "function": null,
      "arguments": [
        "0xE56CBbB241F23555D5539a5d305fCe86e762A228",
        "0xd06CbE7DA736fbE4E696d0186025133de930a75a"
      ],
      "transaction": {
        "from": "0x973c770d78e4183dc5464a819ba154e2d26d9048",
        "gas": "0x10ae37",
        "value": "0x0",
        "input": "0x60c060405234801561000f575f80fd5b50604051610efe380380610efe83398101604081905261002e916100f3565b338061005357604051631e4fbdf760e01b81525f600482015260240160405180910390fd5b61005c81610074565b506001600160a01b039182166080521660a05261012b565b600180546001600160a01b031916905561008d81610090565b50565b5f80546001600160a01b038381166001600160a01b0319831681178455604051919092169283917f8be0079c531659141344cd1fd0a4f28419497f9722a3daafe3b4186f6b6457e09190a35050565b6001600160a01b038116811461008d575f80fd5b5f8060408385031215610104575f80fd5b825161010f816100df565b6020840151909250610120816100df565b809150509250929050565b60805160a051610dab6101535f395f818161027501526107df01525f6102000152610dab5ff3fe608060405234801561000f575f80fd5b50600436106100fb575f3560e01c8063aa3b47c011610093578063e30c397811610063578063e30c3978146102aa578063e59b262b146102bb578063f2fde38b146102ce578063fc8e7504146102e1575f80fd5b8063aa3b47c01461024a578063ba4cb8271461025d578063d0ef024a14610270578063e163461714610297575f80fd5b80637503e1b7116100ce5780637503e1b71461014b57806379ba5097146101f35780637cd3229a146101fb5780638da5cb5b1461023a575f80fd5b80633a2c7831146100ff578063574fc493146101255780636e12a1031461012e578063715018a614610143575b5f80fd5b61011261010d366004610aea565b6102e9565b6040519081526020015b60405180910390f35b61011260025481565b61014161013c366004610b36565b61049d565b005b610141610661565b6101ab610159366004610bae565b60036020525f90815260409020805460019091015467ffffffffffffffff80831692600160401b810490911691600160801b820463ffffffff1691600160a01b900460ff16906001600160601b031685565b6040805167ffffffffffffffff968716815295909416602086015263ffffffff9092169284019290925290151560608301526001600160601b0316608082015260a00161011c565b610141610674565b6102227f000000000000000000000000000000000000000000000000000000000000000081565b6040516001600160a01b03909116815260200161011c565b5f546001600160a01b0316610222565b610141610258366004610bae565b6106b8565b61011261026b366004610bc5565b610740565b6102227f000000000000000000000000000000000000000000000000000000000000000081565b6101416102a5366004610bc5565b61076b565b6001546001600160a01b0316610222565b6101126102c9366004610bc5565b61084f565b6101416102dc366004610be5565b610868565b600254610112565b5f6102f26108d8565b8367ffffffffffffffff168367ffffffffffffffff1611801561031a57505f8263ffffffff16115b6103585760405162461bcd60e51b815260206004820152600a6024820152694241445f504152414d5360b01b60448201526064015b60405180910390fd5b600160025f82825461036a9190610c26565b90915550506040805160a08101825267ffffffffffffffff868116808352868216602080850182815263ffffffff89811687890181815260016060808b018281525f60808d0181815260028054835260038b52918f90209d518e54995196519351908e166fffffffffffffffffffffffffffffffff19909a1699909917600160401b96909d16959095029b909b1764ffffffffff60801b1916600160801b919096160260ff60a01b191694909417600160a01b95151595909502949094178955519790920180546bffffffffffffffffffffffff19166001600160601b03909816979097179096559354865193845290830191909152938101919091527f13190ca8b13b8a1ddaaf4a20fb8e4bc80a5fcdd2a85808fee169da88a58569ec910160405180910390a2506002549392505050565b6104a56108d8565b5f8381526003602052604090208054600160a01b900460ff16156104fa5760405162461bcd60e51b815260206004820152600c60248201526b5354494c4c5f41435449564560a01b604482015260640161034f565b811580159061051757508054600160801b900463ffffffff168211155b6105515760405162461bcd60e51b815260206004820152600b60248201526a4241445f57494e4e45525360a81b604482015260640161034f565b60018101545f9061056c9084906001600160601b0316610c3f565b90505f8367ffffffffffffffff81111561058857610588610c5e565b6040519080825280602002602001820160405280156105b1578160200160208202803683370190505b5090505f5b848110156105e457828282815181106105d1576105d1610c72565b60209081029190910101526001016105b6565b505f8681526004602052604090206105fd908686610a38565b505f868152600560209081526040909120825161061c92840190610a81565b50857f7506627495eb87ca9aa6a20e1d7767031a5a9e80484d427c6816868fd96b2eb486868460405161065193929190610c86565b60405180910390a2505050505050565b6106696108d8565b6106725f610904565b565b60015433906001600160a01b031681146106ac5760405163118cdaa760e01b81526001600160a01b038216600482015260240161034f565b6106b581610904565b50565b6106c06108d8565b5f8181526003602052604090208054600160a01b900460ff1680156106f757508054600160401b900467ffffffffffffffff164210155b6107325760405162461bcd60e51b815260206004820152600c60248201526b1393d517d192539254d2115160a21b604482015260640161034f565b805460ff60a01b1916905550565b6005602052815f5260405f208181548110610759575f80fd5b905f5260205f20015f91509150505481565b5f82815260036020908152604091829020805483518085019094526013845272544f55524e414d454e545f494e41435449564560681b928401929092529190600160a01b900460ff166107d15760405162461bcd60e51b815260040161034f9190610d02565b506108076001600160a01b037f00000000000000000000000000000000000000000000000000000000000000001633308561091d565b6001810180548391905f906108269084906001600160601b0316610d4e565b92506101000a8154816001600160601b0302191690836001600160601b03160217905550505050565b6004602052815f5260405f208181548110610759575f80fd5b6108706108d8565b600180546001600160a01b0383166001600160a01b031990911681179091556108a05f546001600160a01b031690565b6001600160a01b03167f38d16b8cac22d99fc7c124b9cd0de2d3fa1faef420bfe791d8c362d765e2270060405160405180910390a350565b5f546001600160a01b031633146106725760405163118cdaa760e01b815233600482015260240161034f565b600180546001600160a01b03191690556106b58161097d565b604080516001600160a01b0385811660248301528416604482015260648082018490528251808303909101815260849091019091526020810180516001600160e01b03166323b872dd60e01b1790526109779085906109cc565b50505050565b5f80546001600160a01b038381166001600160a01b0319831681178455604051919092169283917f8be0079c531659141344cd1fd0a4f28419497f9722a3daafe3b4186f6b6457e09190a35050565b5f8060205f8451602086015f885af1806109eb576040513d5f823e3d81fd5b50505f513d91508115610a02578060011415610a0f565b6001600160a01b0384163b155b1561097757604051635274afe760e01b81526001600160a01b038516600482015260240161034f565b828054828255905f5260205f20908101928215610a71579160200282015b82811115610a71578235825591602001919060010190610a56565b50610a7d929150610aba565b5090565b828054828255905f5260205f20908101928215610a71579160200282015b82811115610a71578251825591602001919060010190610a9f565b5b80821115610a7d575f8155600101610abb565b803567ffffffffffffffff81168114610ae5575f80fd5b919050565b5f805f60608486031215610afc575f80fd5b610b0584610ace565b9250610b1360208501610ace565b9150604084013563ffffffff81168114610b2b575f80fd5b809150509250925092565b5f805f60408486031215610b48575f80fd5b83359250602084013567ffffffffffffffff80821115610b66575f80fd5b818601915086601f830112610b79575f80fd5b813581811115610b87575f80fd5b8760208260051b8501011115610b9b575f80fd5b6020830194508093505050509250925092565b5f60208284031215610bbe575f80fd5b5035919050565b5f8060408385031215610bd6575f80fd5b50508035926020909101359150565b5f60208284031215610bf5575f80fd5b81356001600160a01b0381168114610c0b575f80fd5b9392505050565b634e487b7160e01b5f52601160045260245ffd5b80820180821115610c3957610c39610c12565b92915050565b5f82610c5957634e487b7160e01b5f52601260045260245ffd5b500490565b634e487b7160e01b5f52604160045260245ffd5b634e487b7160e01b5f52603260045260245ffd5b604080825281018390525f6001600160fb1b03841115610ca4575f80fd5b8360051b80866060850137606090830183810382016020808601919091528551928201839052858101925f92608001905b80841015610cf55784518252938201936001939093019290820190610cd5565b5098975050505050505050565b5f602080835283518060208501525f5b81811015610d2e57858101830151858201604001528201610d12565b505f604082860101526040601f19601f8301168501019250505092915050565b6001600160601b03818116838216019080821115610d6e57610d6e610c12565b509291505056fea26469706673582212208624b175781e7be6e238e51d614e543a2f56df0d2bb544c86b7418276dccc68a64736f6c63430008180033000000000000000000000000e56cbbb241f23555d5539a5d305fce86e762a228000000000000000000000000d06cbe7da736fbe4e696d0186025133de930a75a",
        "nonce": "0x76",
        "chainId": "0xc488"
      },
      "additionalContracts": [],
      "isFixedGasLimit": false
    },
    {
      "hash": "0x95ce926409f43b0afb97c8ca7be3f6ac725df6f137879a6d797a5b58e6cf64f3",
      "transactionType": "CREATE",
      "contractName": "SimpleMomentumStrategy",
      "contractAddress": "0x7d18ed981f64b152dec225291bd6f7a7730af40f",
      "function": null,
      "arguments": [
        "0x1CE76BDC5cE3299eC84d2A1154AaCFE5302AC452",
        "0x22510fC89FCc90a17C754c68cB581350B3F664bE"
      ],
      "transaction": {
        "from": "0x973c770d78e4183dc5464a819ba154e2d26d9048",
        "gas": "0xad9e6",
        "value": "0x0",
        "input": "0x60c06040526107d0600155348015610015575f80fd5b5060405161097c38038061097c83398101604081905261003491610062565b6001600160a01b039182166080521660a05261009a565b6001600160a01b038116811461005f575f80fd5b50565b5f8060408385031215610073575f80fd5b825161007e8161004b565b602084015190925061008f8161004b565b809150509250929050565b60805160a0516108836100f95f395f81816101260152818161014f015281816101d201528181610255015281816105990152818161061c015261069f01525f818160de01528181610321015281816103b701526104a301526108835ff3fe608060405234801561000f575f80fd5b5060043610610060575f3560e01c8063046956611461006457806318e784db1461007f5780632861e3e0146100c45780637b103999146100d95780639a213d4f14610118578063fd3705f914610121575b5f80fd5b61006c5f5481565b6040519081526020015b60405180910390f35b61009261008d3660046107b1565b610148565b604051610076949392919093151584526001600160a01b03928316602085015291166040830152606082015260800190565b6100d76100d23660046107b1565b610550565b005b6101007f000000000000000000000000000000000000000000000000000000000000000081565b6040516001600160a01b039091168152602001610076565b61006c60015481565b6101007f000000000000000000000000000000000000000000000000000000000000000081565b5f805f805f7f00000000000000000000000000000000000000000000000000000000000000006001600160a01b0316630fc63d106040518163ffffffff1660e01b8152600401602060405180830381865afa1580156101a9573d5f803e3d5ffd5b505050506040513d601f19601f820116820180604052508101906101cd91906107c8565b90505f7f00000000000000000000000000000000000000000000000000000000000000006001600160a01b0316635f64b55b6040518163ffffffff1660e01b8152600401602060405180830381865afa15801561022c573d5f803e3d5ffd5b505050506040513d601f19601f8201168201806040525081019061025091906107c8565b90505f7f00000000000000000000000000000000000000000000000000000000000000006001600160a01b031663217a4b706040518163ffffffff1660e01b8152600401602060405180830381865afa1580156102af573d5f803e3d5ffd5b505050506040513d601f19601f820116820180604052508101906102d391906107c8565b90505f6102de610595565b90505f80545f146102f0575f546102f2565b815b604051630865ed3360e41b8152600481018c90526001600160a01b038781166024830152919250828411915f917f00000000000000000000000000000000000000000000000000000000000000009091169063865ed33090604401602060405180830381865afa158015610368573d5f803e3d5ffd5b505050506040513d601f19601f8201168201806040525081019061038c91906107ee565b604051630865ed3360e41b8152600481018e90526001600160a01b0388811660248301529192505f917f0000000000000000000000000000000000000000000000000000000000000000169063865ed33090604401602060405180830381865afa1580156103fc573d5f803e3d5ffd5b505050506040513d601f19601f8201168201806040525081019061042091906107ee565b9050821561045057869a508799506127106001548261043f9190610805565b610449919061082e565b9850610474565b879a50869950612710600154836104679190610805565b610471919061082e565b98505b885f0361053c57604051630865ed3360e41b8152600481018e90526001600160a01b0387811660248301525f917f00000000000000000000000000000000000000000000000000000000000000009091169063865ed33090604401602060405180830381865afa1580156104ea573d5f803e3d5ffd5b505050506040513d601f19601f8201168201806040525081019061050e91906107ee565b9050801561053a57869b50889a506127106001548261052d9190610805565b610537919061082e565b99505b505b5f89119b5050505050505050509193509193565b6113888111156105905760405162461bcd60e51b81526020600482015260076024820152664d41585f35302560c81b604482015260640160405180910390fd5b600155565b5f807f00000000000000000000000000000000000000000000000000000000000000006001600160a01b0316630fc63d106040518163ffffffff1660e01b8152600401602060405180830381865afa1580156105f3573d5f803e3d5ffd5b505050506040513d601f19601f8201168201806040525081019061061791906107c8565b90505f7f00000000000000000000000000000000000000000000000000000000000000006001600160a01b0316635f64b55b6040518163ffffffff1660e01b8152600401602060405180830381865afa158015610676573d5f803e3d5ffd5b505050506040513d601f19601f8201168201806040525081019061069a91906107c8565b90505f7f00000000000000000000000000000000000000000000000000000000000000006001600160a01b0316634837e2046040518163ffffffff1660e01b8152600401602060405180830381865afa1580156106f9573d5f803e3d5ffd5b505050506040513d601f19601f8201168201806040525081019061071d91906107c8565b604051632550332960e11b81526001600160a01b0385811660048301528481166024830152670de0b6b3a764000060448301529190911690634aa0665290606401602060405180830381865afa158015610779573d5f803e3d5ffd5b505050506040513d601f19601f8201168201806040525081019061079d91906107ee565b9050805f036107aa575060015b9392505050565b5f602082840312156107c1575f80fd5b5035919050565b5f602082840312156107d8575f80fd5b81516001600160a01b03811681146107aa575f80fd5b5f602082840312156107fe575f80fd5b5051919050565b808202811582820484141761082857634e487b7160e01b5f52601160045260245ffd5b92915050565b5f8261084857634e487b7160e01b5f52601260045260245ffd5b50049056fea26469706673582212208dc9eca9c2ed34933061a50dbf9b079fdc761f918e48154fe90494e6a8679cf364736f6c634300081800330000000000000000000000001ce76bdc5ce3299ec84d2a1154aacfe5302ac45200000000000000000000000022510fc89fcc90a17c754c68cb581350b3f664be",
        "nonce": "0x77",
        "chainId": "0xc488"
      },
      "additionalContracts": [],
      "isFixedGasLimit": false
    },
    {
      "hash": "0x175b828ba1f292a352835d96f94d5e5588675a5bf51f6c2ab3ae7f22ab746a5f",
      "transactionType": "CALL",
      "contractName": "BotRegistry",
      "contractAddress": "0x1ce76bdc5ce3299ec84d2a1154aacfe5302ac452",
      "function": "mintBot(address,address,string)",
      "arguments": [
        "0x973c770D78e4183dC5464A819Ba154e2d26d9048",
        "0x7d18eD981F64B152dEC225291Bd6F7a7730AF40f",
        "ipfs://bot1"
      ],
      "transaction": {
        "from": "0x973c770d78e4183dc5464a819ba154e2d26d9048",
        "to": "0x1ce76bdc5ce3299ec84d2a1154aacfe5302ac452",
        "gas": "0x433ac",
        "value": "0x0",
        "input": "0x598e8cca000000000000000000000000973c770d78e4183dc5464a819ba154e2d26d90480000000000000000000000007d18ed981f64b152dec225291bd6f7a7730af40f0000000000000000000000000000000000000000000000000000000000000060000000000000000000000000000000000000000000000000000000000000000b697066733a2f2f626f7431000000000000000000000000000000000000000000",
        "nonce": "0x78",
        "chainId": "0xc488"
      },
      "additionalContracts": [],
      "isFixedGasLimit": false
    },
    {
      "hash": "0xe9e849eb57cbec83317658203b86ebe9df30208f561eeb32b20db5e6525f8770",
      "transactionType": "CALL",
      "contractName": "BotRegistry",
      "contractAddress": "0x1ce76bdc5ce3299ec84d2a1154aacfe5302ac452",
      "function": "mintBot(address,address,string)",
      "arguments": [
        "0x973c770D78e4183dC5464A819Ba154e2d26d9048",
        "0x7d18eD981F64B152dEC225291Bd6F7a7730AF40f",
        "ipfs://bot2"
      ],
      "transaction": {
        "from": "0x973c770d78e4183dc5464a819ba154e2d26d9048",
        "to": "0x1ce76bdc5ce3299ec84d2a1154aacfe5302ac452",
        "gas": "0x3704b",
        "value": "0x0",
        "input": "0x598e8cca000000000000000000000000973c770d78e4183dc5464a819ba154e2d26d90480000000000000000000000007d18ed981f64b152dec225291bd6f7a7730af40f0000000000000000000000000000000000000000000000000000000000000060000000000000000000000000000000000000000000000000000000000000000b697066733a2f2f626f7432000000000000000000000000000000000000000000",
        "nonce": "0x79",
        "chainId": "0xc488"
      },
      "additionalContracts": [],
      "isFixedGasLimit": false
    },
    {
      "hash": "0x5d935ab4301e887c4c0e2df886934926ec4dc0d7c0d6d6621589e2278f7a16fd",
      "transactionType": "CALL",
      "contractName": "BotRegistry",
      "contractAddress": "0x1ce76bdc5ce3299ec84d2a1154aacfe5302ac452",
      "function": "mintBot(address,address,string)",
      "arguments": [
        "0x973c770D78e4183dC5464A819Ba154e2d26d9048",
        "0x7d18eD981F64B152dEC225291Bd6F7a7730AF40f",
        "ipfs://bot3"
      ],
      "transaction": {
        "from": "0x973c770d78e4183dc5464a819ba154e2d26d9048",
        "to": "0x1ce76bdc5ce3299ec84d2a1154aacfe5302ac452",
        "gas": "0x3704b",
        "value": "0x0",
        "input": "0x598e8cca000000000000000000000000973c770d78e4183dc5464a819ba154e2d26d90480000000000000000000000007d18ed981f64b152dec225291bd6f7a7730af40f0000000000000000000000000000000000000000000000000000000000000060000000000000000000000000000000000000000000000000000000000000000b697066733a2f2f626f7433000000000000000000000000000000000000000000",
        "nonce": "0x7a",
        "chainId": "0xc488"
      },
      "additionalContracts": [],
      "isFixedGasLimit": false
    },
    {
      "hash": "0xe41977a0b9291145878796da616e638f4f827ffe26c08a55cf2e99c38607a99f",
      "transactionType": "CALL",
      "contractName": "Token",
      "contractAddress": "0xb5e5433bba01a7d869b267b5b447000734f371bd",
      "function": "approve(address,uint256)",
      "arguments": [
        "0x1CE76BDC5cE3299eC84d2A1154AaCFE5302AC452",
        "10000000000000000000000"
      ],
      "transaction": {
        "from": "0x973c770d78e4183dc5464a819ba154e2d26d9048",
        "to": "0xb5e5433bba01a7d869b267b5b447000734f371bd",
        "gas": "0xfa4d",
        "value": "0x0",
        "input": "0x095ea7b30000000000000000000000001ce76bdc5ce3299ec84d2a1154aacfe5302ac45200000000000000000000000000000000000000000000021e19e0c9bab2400000",
        "nonce": "0x7b",
        "chainId": "0xc488"
      },
      "additionalContracts": [],
      "isFixedGasLimit": false
    },
    {
      "hash": "0xbe8b116c92b750a17a167e2d249e15ee719406e9ccfdc2f7776cb36a4872710d",
      "transactionType": "CALL",
      "contractName": "BotRegistry",
      "contractAddress": "0x1ce76bdc5ce3299ec84d2a1154aacfe5302ac452",
      "function": "deposit(uint256,address,uint256)",
      "arguments": [
        "1",
        "0xB5E5433bbA01a7D869b267b5b447000734f371BD",
        "10000000000000000000000"
      ],
      "transaction": {
        "from": "0x973c770d78e4183dc5464a819ba154e2d26d9048",
        "to": "0x1ce76bdc5ce3299ec84d2a1154aacfe5302ac452",
        "gas": "0x1d951",
        "value": "0x0",
        "input": "0xbc157ac10000000000000000000000000000000000000000000000000000000000000001000000000000000000000000b5e5433bba01a7d869b267b5b447000734f371bd00000000000000000000000000000000000000000000021e19e0c9bab2400000",
        "nonce": "0x7c",
        "chainId": "0xc488"
      },
      "additionalContracts": [],
      "isFixedGasLimit": false
    },
    {
      "hash": "0x7975524981ca31911dd03081f610b60bc1f0f0c8bba18ecdaaae53f5660d382c",
      "transactionType": "CALL",
      "contractName": "Token",
      "contractAddress": "0x23adac424fd41317253ab7341f416a8455d80666",
      "function": "approve(address,uint256)",
      "arguments": [
        "0x1CE76BDC5cE3299eC84d2A1154AaCFE5302AC452",
        "10000000000000000000000"
      ],
      "transaction": {
        "from": "0x973c770d78e4183dc5464a819ba154e2d26d9048",
        "to": "0x23adac424fd41317253ab7341f416a8455d80666",
        "gas": "0xfa4d",
        "value": "0x0",
        "input": "0x095ea7b30000000000000000000000001ce76bdc5ce3299ec84d2a1154aacfe5302ac45200000000000000000000000000000000000000000000021e19e0c9bab2400000",
        "nonce": "0x7d",
        "chainId": "0xc488"
      },
      "additionalContracts": [],
      "isFixedGasLimit": false
    },
    {
      "hash": "0x63949a2651d77f37025f9af484edfc5a47c5fcde95854fa7c618eb79f977b3ab",
      "transactionType": "CALL",
      "contractName": "BotRegistry",
      "contractAddress": "0x1ce76bdc5ce3299ec84d2a1154aacfe5302ac452",
      "function": "deposit(uint256,address,uint256)",
      "arguments": [
        "1",
        "0x23adAc424Fd41317253Ab7341F416a8455d80666",
        "10000000000000000000000"
      ],
      "transaction": {
        "from": "0x973c770d78e4183dc5464a819ba154e2d26d9048",
        "to": "0x1ce76bdc5ce3299ec84d2a1154aacfe5302ac452",
        "gas": "0x1bf15",
        "value": "0x0",
        "input": "0xbc157ac1000000000000000000000000000000000000000000000000000000000000000100000000000000000000000023adac424fd41317253ab7341f416a8455d8066600000000000000000000000000000000000000000000021e19e0c9bab2400000",
        "nonce": "0x7e",
        "chainId": "0xc488"
      },
      "additionalContracts": [],
      "isFixedGasLimit": false
    },
    {
      "hash": "0xb2c35ebdaf72d3b6019ee4ba304a79ae878a21b501061da2c975cc54c91ebd24",
      "transactionType": "CALL",
      "contractName": "Token",
      "contractAddress": "0xd06cbe7da736fbe4e696d0186025133de930a75a",
      "function": "approve(address,uint256)",
      "arguments": [
        "0x1CE76BDC5cE3299eC84d2A1154AaCFE5302AC452",
        "10000000000000000000000"
      ],
      "transaction": {
        "from": "0x973c770d78e4183dc5464a819ba154e2d26d9048",
        "to": "0xd06cbe7da736fbe4e696d0186025133de930a75a",
        "gas": "0xfa4d",
        "value": "0x0",
        "input": "0x095ea7b30000000000000000000000001ce76bdc5ce3299ec84d2a1154aacfe5302ac45200000000000000000000000000000000000000000000021e19e0c9bab2400000",
        "nonce": "0x7f",
        "chainId": "0xc488"
      },
      "additionalContracts": [],
      "isFixedGasLimit": false
    },
    {
      "hash": "0x568a77eb9ceb42ce8d50b5a2b5dc971c285f6a78125e523c8e3e77f8d5ae4e37",
      "transactionType": "CALL",
      "contractName": "BotRegistry",
      "contractAddress": "0x1ce76bdc5ce3299ec84d2a1154aacfe5302ac452",
      "function": "deposit(uint256,address,uint256)",
      "arguments": [
        "1",
        "0xd06CbE7DA736fbE4E696d0186025133de930a75a",
        "10000000000000000000000"
      ],
      "transaction": {
        "from": "0x973c770d78e4183dc5464a819ba154e2d26d9048",
        "to": "0x1ce76bdc5ce3299ec84d2a1154aacfe5302ac452",
        "gas": "0x1bf15",
        "value": "0x0",
        "input": "0xbc157ac10000000000000000000000000000000000000000000000000000000000000001000000000000000000000000d06cbe7da736fbe4e696d0186025133de930a75a00000000000000000000000000000000000000000000021e19e0c9bab2400000",
        "nonce": "0x80",
        "chainId": "0xc488"
      },
      "additionalContracts": [],
      "isFixedGasLimit": false
    },
    {
      "hash": "0xed258107d09d417ce2c88a132f5faf81d1d5806788d8c8ac8601897b93bbf1d8",
      "transactionType": "CALL",
      "contractName": "Token",
      "contractAddress": "0xb5e5433bba01a7d869b267b5b447000734f371bd",
      "function": "approve(address,uint256)",
      "arguments": [
        "0x1CE76BDC5cE3299eC84d2A1154AaCFE5302AC452",
        "8000000000000000000000"
      ],
      "transaction": {
        "from": "0x973c770d78e4183dc5464a819ba154e2d26d9048",
        "to": "0xb5e5433bba01a7d869b267b5b447000734f371bd",
        "gas": "0x108f4",
        "value": "0x0",
        "input": "0x095ea7b30000000000000000000000001ce76bdc5ce3299ec84d2a1154aacfe5302ac4520000000000000000000000000000000000000000000001b1ae4d6e2ef5000000",
        "nonce": "0x81",
        "chainId": "0xc488"
      },
      "additionalContracts": [],
      "isFixedGasLimit": false
    },
    {
      "hash": "0x46e8722386cde9246e4cfe1680f86381e77dc81c7a8820825a6d2e772b65a454",
      "transactionType": "CALL",
      "contractName": "BotRegistry",
      "contractAddress": "0x1ce76bdc5ce3299ec84d2a1154aacfe5302ac452",
      "function": "deposit(uint256,address,uint256)",
      "arguments": [
        "2",
        "0xB5E5433bbA01a7D869b267b5b447000734f371BD",
        "8000000000000000000000"
      ],
      "transaction": {
        "from": "0x973c770d78e4183dc5464a819ba154e2d26d9048",
        "to": "0x1ce76bdc5ce3299ec84d2a1154aacfe5302ac452",
        "gas": "0x1778e",
        "value": "0x0",
        "input": "0xbc157ac10000000000000000000000000000000000000000000000000000000000000002000000000000000000000000b5e5433bba01a7d869b267b5b447000734f371bd0000000000000000000000000000000000000000000001b1ae4d6e2ef5000000",
        "nonce": "0x82",
        "chainId": "0xc488"
      },
      "additionalContracts": [],
      "isFixedGasLimit": false
    },
    {
      "hash": "0xbe822a96384d144a5699115f2c3ff920efd5dd74e7a7118b8055d0daed90d8ed",
      "transactionType": "CALL",
      "contractName": "Token",
      "contractAddress": "0x23adac424fd41317253ab7341f416a8455d80666",
      "function": "approve(address,uint256)",
      "arguments": [
        "0x1CE76BDC5cE3299eC84d2A1154AaCFE5302AC452",
        "12000000000000000000000"
      ],
      "transaction": {
        "from": "0x973c770d78e4183dc5464a819ba154e2d26d9048",
        "to": "0x23adac424fd41317253ab7341f416a8455d80666",
        "gas": "0xfa4d",
        "value": "0x0",
        "input": "0x095ea7b30000000000000000000000001ce76bdc5ce3299ec84d2a1154aacfe5302ac45200000000000000000000000000000000000000000000028a857425466f800000",
        "nonce": "0x83",
        "chainId": "0xc488"
      },
      "additionalContracts": [],
      "isFixedGasLimit": false
    },
    {
      "hash": "0xcd8beee23a7f1eae3ffda2eb5949a9aac0f087a6bd37765dc394de24fe364682",
      "transactionType": "CALL",
      "contractName": "BotRegistry",
      "contractAddress": "0x1ce76bdc5ce3299ec84d2a1154aacfe5302ac452",
      "function": "deposit(uint256,address,uint256)",
      "arguments": [
        "2",
        "0x23adAc424Fd41317253Ab7341F416a8455d80666",
        "12000000000000000000000"
      ],
      "transaction": {
        "from": "0x973c770d78e4183dc5464a819ba154e2d26d9048",
        "to": "0x1ce76bdc5ce3299ec84d2a1154aacfe5302ac452",
        "gas": "0x177b1",
        "value": "0x0",
        "input": "0xbc157ac1000000000000000000000000000000000000000000000000000000000000000200000000000000000000000023adac424fd41317253ab7341f416a8455d8066600000000000000000000000000000000000000000000028a857425466f800000",
        "nonce": "0x84",
        "chainId": "0xc488"
      },
      "additionalContracts": [],
      "isFixedGasLimit": false
    },
    {
      "hash": "0x27d74bd64c7d0980627ae77d7a62d087d635c90ded90cd2dab19cf1fcb6d08c2",
      "transactionType": "CALL",
      "contractName": "Token",
      "contractAddress": "0xd06cbe7da736fbe4e696d0186025133de930a75a",
      "function": "approve(address,uint256)",
      "arguments": [
        "0x1CE76BDC5cE3299eC84d2A1154AaCFE5302AC452",
        "10000000000000000000000"
      ],
      "transaction": {
        "from": "0x973c770d78e4183dc5464a819ba154e2d26d9048",
        "to": "0xd06cbe7da736fbe4e696d0186025133de930a75a",
        "gas": "0xfa4d",
        "value": "0x0",
        "input": "0x095ea7b30000000000000000000000001ce76bdc5ce3299ec84d2a1154aacfe5302ac45200000000000000000000000000000000000000000000021e19e0c9bab2400000",
        "nonce": "0x85",
        "chainId": "0xc488"
      },
      "additionalContracts": [],
      "isFixedGasLimit": false
    },
    {
      "hash": "0xe3eea20cca135541e997ea19583e6fe12912096088477548fca2702fce673afe",
      "transactionType": "CALL",
      "contractName": "BotRegistry",
      "contractAddress": "0x1ce76bdc5ce3299ec84d2a1154aacfe5302ac452",
      "function": "deposit(uint256,address,uint256)",
      "arguments": [
        "2",
        "0xd06CbE7DA736fbE4E696d0186025133de930a75a",
        "10000000000000000000000"
      ],
      "transaction": {
        "from": "0x973c770d78e4183dc5464a819ba154e2d26d9048",
        "to": "0x1ce76bdc5ce3299ec84d2a1154aacfe5302ac452",
        "gas": "0x177b1",
        "value": "0x0",
        "input": "0xbc157ac10000000000000000000000000000000000000000000000000000000000000002000000000000000000000000d06cbe7da736fbe4e696d0186025133de930a75a00000000000000000000000000000000000000000000021e19e0c9bab2400000",
        "nonce": "0x86",
        "chainId": "0xc488"
      },
      "additionalContracts": [],
      "isFixedGasLimit": false
    },
    {
      "hash": "0x54866a52a17d20cd4dfe4e596549298be756b467d25af9a331e0d6c852053a35",
      "transactionType": "CALL",
      "contractName": "Token",
      "contractAddress": "0xb5e5433bba01a7d869b267b5b447000734f371bd",
      "function": "approve(address,uint256)",
      "arguments": [
        "0x1CE76BDC5cE3299eC84d2A1154AaCFE5302AC452",
        "12000000000000000000000"
      ],
      "transaction": {
        "from": "0x973c770d78e4183dc5464a819ba154e2d26d9048",
        "to": "0xb5e5433bba01a7d869b267b5b447000734f371bd",
        "gas": "0xfa4d",
        "value": "0x0",
        "input": "0x095ea7b30000000000000000000000001ce76bdc5ce3299ec84d2a1154aacfe5302ac45200000000000000000000000000000000000000000000028a857425466f800000",
        "nonce": "0x87",
        "chainId": "0xc488"
      },
      "additionalContracts": [],
      "isFixedGasLimit": false
    },
    {
      "hash": "0xb901137c78074fa8b679893ab5660a08f68033b5658f7c8f7f329b4430ae111f",
      "transactionType": "CALL",
      "contractName": "BotRegistry",
      "contractAddress": "0x1ce76bdc5ce3299ec84d2a1154aacfe5302ac452",
      "function": "deposit(uint256,address,uint256)",
      "arguments": [
        "3",
        "0xB5E5433bbA01a7D869b267b5b447000734f371BD",
        "12000000000000000000000"
      ],
      "transaction": {
        "from": "0x973c770d78e4183dc5464a819ba154e2d26d9048",
        "to": "0x1ce76bdc5ce3299ec84d2a1154aacfe5302ac452",
        "gas": "0x162c2",
        "value": "0x0",
        "input": "0xbc157ac10000000000000000000000000000000000000000000000000000000000000003000000000000000000000000b5e5433bba01a7d869b267b5b447000734f371bd00000000000000000000000000000000000000000000028a857425466f800000",
        "nonce": "0x88",
        "chainId": "0xc488"
      },
      "additionalContracts": [],
      "isFixedGasLimit": false
    },
    {
      "hash": "0xb2922f590a762d4d788c4efd93a518e9bcd306b5e1a6a4885a428593adbe483f",
      "transactionType": "CALL",
      "contractName": "Token",
      "contractAddress": "0x23adac424fd41317253ab7341f416a8455d80666",
      "function": "approve(address,uint256)",
      "arguments": [
        "0x1CE76BDC5cE3299eC84d2A1154AaCFE5302AC452",
        "8000000000000000000000"
      ],
      "transaction": {
        "from": "0x973c770d78e4183dc5464a819ba154e2d26d9048",
        "to": "0x23adac424fd41317253ab7341f416a8455d80666",
        "gas": "0x108f4",
        "value": "0x0",
        "input": "0x095ea7b30000000000000000000000001ce76bdc5ce3299ec84d2a1154aacfe5302ac4520000000000000000000000000000000000000000000001b1ae4d6e2ef5000000",
        "nonce": "0x89",
        "chainId": "0xc488"
      },
      "additionalContracts": [],
      "isFixedGasLimit": false
    },
    {
      "hash": "0xf584a8794752d26e599df70bd8783fbf4b0ff2b9e3739612e2eaafff3f636366",
      "transactionType": "CALL",
      "contractName": "BotRegistry",
      "contractAddress": "0x1ce76bdc5ce3299ec84d2a1154aacfe5302ac452",
      "function": "deposit(uint256,address,uint256)",
      "arguments": [
        "3",
        "0x23adAc424Fd41317253Ab7341F416a8455d80666",
        "8000000000000000000000"
      ],
      "transaction": {
        "from": "0x973c770d78e4183dc5464a819ba154e2d26d9048",
        "to": "0x1ce76bdc5ce3299ec84d2a1154aacfe5302ac452",
        "gas": "0x162c2",
        "value": "0x0",
        "input": "0xbc157ac1000000000000000000000000000000000000000000000000000000000000000300000000000000000000000023adac424fd41317253ab7341f416a8455d806660000000000000000000000000000000000000000000001b1ae4d6e2ef5000000",
        "nonce": "0x8a",
        "chainId": "0xc488"
      },
      "additionalContracts": [],
      "isFixedGasLimit": false
    },
    {
      "hash": "0x112d8026fdbc1c9f983b83c6b41fdb66b301a0285c372725537547f48a1920f7",
      "transactionType": "CALL",
      "contractName": "Token",
      "contractAddress": "0xd06cbe7da736fbe4e696d0186025133de930a75a",
      "function": "approve(address,uint256)",
      "arguments": [
        "0x1CE76BDC5cE3299eC84d2A1154AaCFE5302AC452",
        "10000000000000000000000"
      ],
      "transaction": {
        "from": "0x973c770d78e4183dc5464a819ba154e2d26d9048",
        "to": "0xd06cbe7da736fbe4e696d0186025133de930a75a",
        "gas": "0xfa4d",
        "value": "0x0",
        "input": "0x095ea7b30000000000000000000000001ce76bdc5ce3299ec84d2a1154aacfe5302ac45200000000000000000000000000000000000000000000021e19e0c9bab2400000",
        "nonce": "0x8b",
        "chainId": "0xc488"
      },
      "additionalContracts": [],
      "isFixedGasLimit": false
    },
    {
      "hash": "0xcb1ac86ff8fafde400f73162845af0db2bf11458e259323f1fa7c0b74375049b",
      "transactionType": "CALL",
      "contractName": "BotRegistry",
      "contractAddress": "0x1ce76bdc5ce3299ec84d2a1154aacfe5302ac452",
      "function": "deposit(uint256,address,uint256)",
      "arguments": [
        "3",
        "0xd06CbE7DA736fbE4E696d0186025133de930a75a",
        "10000000000000000000000"
      ],
      "transaction": {
        "from": "0x973c770d78e4183dc5464a819ba154e2d26d9048",
        "to": "0x1ce76bdc5ce3299ec84d2a1154aacfe5302ac452",
        "gas": "0x177b1",
        "value": "0x0",
        "input": "0xbc157ac10000000000000000000000000000000000000000000000000000000000000003000000000000000000000000d06cbe7da736fbe4e696d0186025133de930a75a00000000000000000000000000000000000000000000021e19e0c9bab2400000",
        "nonce": "0x8c",
        "chainId": "0xc488"
      },
      "additionalContracts": [],
      "isFixedGasLimit": false
    },
    {
      "hash": "0x696657b91285ab084d38de2fcaa5457bc1c861b4a43832517ffac393cb671abb",
      "transactionType": "CALL",
      "contractName": "TradingArena",
      "contractAddress": "0x22510fc89fcc90a17c754c68cb581350b3f664be",
      "function": "refreshValue(uint256)",
      "arguments": [
        "1"
      ],
      "transaction": {
        "from": "0x973c770d78e4183dc5464a819ba154e2d26d9048",
        "to": "0x22510fc89fcc90a17c754c68cb581350b3f664be",
        "gas": "0x2d76b",
        "value": "0x0",
        "input": "0x92151cd30000000000000000000000000000000000000000000000000000000000000001",
        "nonce": "0x8d",
        "chainId": "0xc488"
      },
      "additionalContracts": [],
      "isFixedGasLimit": false
    },
    {
      "hash": "0xa83e650266e74b7f9dde26fb786cf5d52e3f9c7e8adf0f35b5df2c7bf796e19e",
      "transactionType": "CALL",
      "contractName": "TradingArena",
      "contractAddress": "0x22510fc89fcc90a17c754c68cb581350b3f664be",
      "function": "refreshValue(uint256)",
      "arguments": [
        "2"
      ],
      "transaction": {
        "from": "0x973c770d78e4183dc5464a819ba154e2d26d9048",
        "to": "0x22510fc89fcc90a17c754c68cb581350b3f664be",
        "gas": "0x2d76b",
        "value": "0x0",
        "input": "0x92151cd30000000000000000000000000000000000000000000000000000000000000002",
        "nonce": "0x8e",
        "chainId": "0xc488"
      },
      "additionalContracts": [],
      "isFixedGasLimit": false
    },
    {
      "hash": "0xd88fd39020233568c87e5c215b702d342e333996121a20e87ae77bff44e210a7",
      "transactionType": "CALL",
      "contractName": "TradingArena",
      "contractAddress": "0x22510fc89fcc90a17c754c68cb581350b3f664be",
      "function": "refreshValue(uint256)",
      "arguments": [
        "3"
      ],
      "transaction": {
        "from": "0x973c770d78e4183dc5464a819ba154e2d26d9048",
        "to": "0x22510fc89fcc90a17c754c68cb581350b3f664be",
        "gas": "0x2d76b",
        "value": "0x0",
        "input": "0x92151cd30000000000000000000000000000000000000000000000000000000000000003",
        "nonce": "0x8f",
        "chainId": "0xc488"
      },
      "additionalContracts": [],
      "isFixedGasLimit": false
    },
    {
      "hash": "0xb909112eb4945c15cc1eb540a188901ef704829e70584a18b5893b38c05a9a6f",
      "transactionType": "CALL",
      "contractName": "TournamentManager",
      "contractAddress": "0x2d27ecfed170176c63d9767e292b0fbab161d1cb",
      "function": "startTournament(uint64,uint64,uint32)",
      "arguments": [
        "1755074115",
        "1755077715",
        "2"
      ],
      "transaction": {
        "from": "0x973c770d78e4183dc5464a819ba154e2d26d9048",
        "to": "0x2d27ecfed170176c63d9767e292b0fbab161d1cb",
        "gas": "0x1a49c",
        "value": "0x0",
        "input": "0x3a2c783100000000000000000000000000000000000000000000000000000000689c4e4300000000000000000000000000000000000000000000000000000000689c5c530000000000000000000000000000000000000000000000000000000000000002",
        "nonce": "0x90",
        "chainId": "0xc488"
      },
      "additionalContracts": [],
      "isFixedGasLimit": false
    },
    {
      "hash": "0x3acbce190717107bb4e3ab754077a0fe99e29dc2326ff1459cd4d269bfb22e75",
      "transactionType": "CALL",
      "contractName": "Token",
      "contractAddress": "0xd06cbe7da736fbe4e696d0186025133de930a75a",
      "function": "approve(address,uint256)",
      "arguments": [
        "0x2d27ECfED170176c63D9767e292b0FBAB161D1cb",
        "3000000000000000000000"
      ],
      "transaction": {
        "from": "0x973c770d78e4183dc5464a819ba154e2d26d9048",
        "to": "0xd06cbe7da736fbe4e696d0186025133de930a75a",
        "gas": "0x108f4",
        "value": "0x0",
        "input": "0x095ea7b30000000000000000000000002d27ecfed170176c63d9767e292b0fbab161d1cb0000000000000000000000000000000000000000000000a2a15d09519be00000",
        "nonce": "0x91",
        "chainId": "0xc488"
      },
      "additionalContracts": [],
      "isFixedGasLimit": false
    },
    {
      "hash": "0x7e2870f4fa2d4ec49960cc16704240fe704ab989ce63105a268b7cb22c61ebd2",
      "transactionType": "CALL",
      "contractName": "TournamentManager",
      "contractAddress": "0x2d27ecfed170176c63d9767e292b0fbab161d1cb",
      "function": "addToPrizePool(uint256,uint256)",
      "arguments": [
        "1",
        "3000000000000000000000"
      ],
      "transaction": {
        "from": "0x973c770d78e4183dc5464a819ba154e2d26d9048",
        "to": "0x2d27ecfed170176c63d9767e292b0fbab161d1cb",
        "gas": "0x1b1a9",
        "value": "0x0",
        "input": "0xe163461700000000000000000000000000000000000000000000000000000000000000010000000000000000000000000000000000000000000000a2a15d09519be00000",
        "nonce": "0x92",
        "chainId": "0xc488"
      },
      "additionalContracts": [],
      "isFixedGasLimit": false
    }
  ],
  "receipts": [
    {
      "status": "0x1",
      "cumulativeGasUsed": "0xcb3a32",
      "logs": [],
      "logsBloom": "0x00000000000000000000000000000000000000000000000000000000000000000000000000000000000000000000000000000000000000000000000000000000000000000000000000000000000000000000000000000000000000000000000000000000000000000000000000000000000000000000000000000000000000000000000000000000000000000000000000000000000000000000000000000000000000000000000000000000000000000000000000000000000000000000000000000000000000000000000000000000000000000000000000000000000000000000000000000000000000000000000000000000000000000000000000000000",
      "type": "0x2",
      "transactionHash": "0x88b16b186e8632664617cb1c37cc5aa8c7d049e0ae34ee505d778aa356f0010e",
      "transactionIndex": "0xe",
      "blockHash": "0x706def836b455e3f9ac6a724aaae52c2d7ec62f9f092c9b71c9c3680e288494c",
      "blockNumber": "0x8da54af",
      "gasUsed": "0x7c88",
      "effectiveGasPrice": "0x165a0bc00",
      "from": "0x973c770d78e4183dc5464a819ba154e2d26d9048",
      "to": "0xb5e5433bba01a7d869b267b5b447000734f371bd",
      "contractAddress": null
    },
    {
      "status": "0x1",
      "cumulativeGasUsed": "0xcbb6ba",
      "logs": [],
      "logsBloom": "0x00000000000000000000000000000000000000000000000000000000000000000000000000000000000000000000000000000000000000000000000000000000000000000000000000000000000000000000000000000000000000000000000000000000000000000000000000000000000000000000000000000000000000000000000000000000000000000000000000000000000000000000000000000000000000000000000000000000000000000000000000000000000000000000000000000000000000000000000000000000000000000000000000000000000000000000000000000000000000000000000000000000000000000000000000000000",
      "type": "0x2",
      "transactionHash": "0x98bbc75c9b3551cdc1b860e27de149220b052768d80df8cb7fcdc5e4cb2e73c9",
      "transactionIndex": "0xf",
      "blockHash": "0x706def836b455e3f9ac6a724aaae52c2d7ec62f9f092c9b71c9c3680e288494c",
      "blockNumber": "0x8da54af",
      "gasUsed": "0x7c88",
      "effectiveGasPrice": "0x165a0bc00",
      "from": "0x973c770d78e4183dc5464a819ba154e2d26d9048",
      "to": "0x23adac424fd41317253ab7341f416a8455d80666",
      "contractAddress": null
    },
    {
      "status": "0x1",
      "cumulativeGasUsed": "0xcc3342",
      "logs": [],
      "logsBloom": "0x00000000000000000000000000000000000000000000000000000000000000000000000000000000000000000000000000000000000000000000000000000000000000000000000000000000000000000000000000000000000000000000000000000000000000000000000000000000000000000000000000000000000000000000000000000000000000000000000000000000000000000000000000000000000000000000000000000000000000000000000000000000000000000000000000000000000000000000000000000000000000000000000000000000000000000000000000000000000000000000000000000000000000000000000000000000",
      "type": "0x2",
      "transactionHash": "0x8707ab6cb73a572ddbf66c0199bffbc629c709396aafd2e4321176705b832a22",
      "transactionIndex": "0x10",
      "blockHash": "0x706def836b455e3f9ac6a724aaae52c2d7ec62f9f092c9b71c9c3680e288494c",
      "blockNumber": "0x8da54af",
      "gasUsed": "0x7c88",
      "effectiveGasPrice": "0x165a0bc00",
      "from": "0x973c770d78e4183dc5464a819ba154e2d26d9048",
      "to": "0xd06cbe7da736fbe4e696d0186025133de930a75a",
      "contractAddress": null
    },
    {
      "status": "0x1",
      "cumulativeGasUsed": "0xb45af3",
      "logs": [],
      "logsBloom": "0x00000000000000000000000000000000000000000000000000000000000000000000000000000000000000000000000000000000000000000000000000000000000000000000000000000000000000000000000000000000000000000000000000000000000000000000000000000000000000000000000000000000000000000000000000000000000000000000000000000000000000000000000000000000000000000000000000000000000000000000000000000000000000000000000000000000000000000000000000000000000000000000000000000000000000000000000000000000000000000000000000000000000000000000000000000000",
      "type": "0x2",
      "transactionHash": "0xe62aae9d6ec825f7c20f2c54f7be1d09f39ec1f85684a0acb77eea1103769c06",
      "transactionIndex": "0xb",
      "blockHash": "0xa4d0b10a76209ab1b1c1d06320299252c070ff2b0df64baf739afed2b5ceb030",
      "blockNumber": "0x8da54b4",
      "gasUsed": "0x7c88",
      "effectiveGasPrice": "0x165a0bc00",
      "from": "0x973c770d78e4183dc5464a819ba154e2d26d9048",
      "to": "0xb5e5433bba01a7d869b267b5b447000734f371bd",
      "contractAddress": null
    },
    {
      "status": "0x1",
      "cumulativeGasUsed": "0xb4d77b",
      "logs": [],
      "logsBloom": "0x00000000000000000000000000000000000000000000000000000000000000000000000000000000000000000000000000000000000000000000000000000000000000000000000000000000000000000000000000000000000000000000000000000000000000000000000000000000000000000000000000000000000000000000000000000000000000000000000000000000000000000000000000000000000000000000000000000000000000000000000000000000000000000000000000000000000000000000000000000000000000000000000000000000000000000000000000000000000000000000000000000000000000000000000000000000",
      "type": "0x2",
      "transactionHash": "0xc2d7dfac42ee408bc3729f1c4fb6266a2624df2c0a753af0a135f39b793781bf",
      "transactionIndex": "0xc",
      "blockHash": "0xa4d0b10a76209ab1b1c1d06320299252c070ff2b0df64baf739afed2b5ceb030",
      "blockNumber": "0x8da54b4",
      "gasUsed": "0x7c88",
      "effectiveGasPrice": "0x165a0bc00",
      "from": "0x973c770d78e4183dc5464a819ba154e2d26d9048",
      "to": "0x23adac424fd41317253ab7341f416a8455d80666",
      "contractAddress": null
    },
    {
      "status": "0x1",
      "cumulativeGasUsed": "0xb55403",
      "logs": [],
      "logsBloom": "0x00000000000000000000000000000000000000000000000000000000000000000000000000000000000000000000000000000000000000000000000000000000000000000000000000000000000000000000000000000000000000000000000000000000000000000000000000000000000000000000000000000000000000000000000000000000000000000000000000000000000000000000000000000000000000000000000000000000000000000000000000000000000000000000000000000000000000000000000000000000000000000000000000000000000000000000000000000000000000000000000000000000000000000000000000000000",
      "type": "0x2",
      "transactionHash": "0x3e228381f7b4c456b926fdc3aedaec121842e2ce63154b3edcb0ef32782ed495",
      "transactionIndex": "0xd",
      "blockHash": "0xa4d0b10a76209ab1b1c1d06320299252c070ff2b0df64baf739afed2b5ceb030",
      "blockNumber": "0x8da54b4",
      "gasUsed": "0x7c88",
      "effectiveGasPrice": "0x165a0bc00",
      "from": "0x973c770d78e4183dc5464a819ba154e2d26d9048",
      "to": "0xd06cbe7da736fbe4e696d0186025133de930a75a",
      "contractAddress": null
    },
    {
      "status": "0x1",
      "cumulativeGasUsed": "0xb5d08b",
      "logs": [],
      "logsBloom": "0x00000000000000000000000000000000000000000000000000000000000000000000000000000000000000000000000000000000000000000000000000000000000000000000000000000000000000000000000000000000000000000000000000000000000000000000000000000000000000000000000000000000000000000000000000000000000000000000000000000000000000000000000000000000000000000000000000000000000000000000000000000000000000000000000000000000000000000000000000000000000000000000000000000000000000000000000000000000000000000000000000000000000000000000000000000000",
      "type": "0x2",
      "transactionHash": "0x63c204c2026f160253225fd8a1e20d1c5736ddaf5551d21569dc927622b772e3",
      "transactionIndex": "0xe",
      "blockHash": "0xa4d0b10a76209ab1b1c1d06320299252c070ff2b0df64baf739afed2b5ceb030",
      "blockNumber": "0x8da54b4",
      "gasUsed": "0xa488",
      "effectiveGasPrice": "0x165a0bc00",
      "from": "0x973c770d78e4183dc5464a819ba154e2d26d9048",
      "to": "0xd464e92c6441a38c6ec89dbf398e565eb565f9f8",
      "contractAddress": null
    },
    {
      "status": "0x1",
      "cumulativeGasUsed": "0xb67513",
      "logs": [],
      "logsBloom": "0x00000000000000000000000000000000000000000000000000000000000000000000000000000000000000000000000000000000000000000000000000000000000000000000000000000000000000000000000000000000000000000000000000000000000000000000000000000000000000000000000000000000000000000000000000000000000000000000000000000000000000000000000000000000000000000000000000000000000000000000000000000000000000000000000000000000000000000000000000000000000000000000000000000000000000000000000000000000000000000000000000000000000000000000000000000000",
      "type": "0x2",
      "transactionHash": "0x07a57c5845eafbd044225eead0fd912f44b76bd94820412aa146b5d6e1c8fec5",
      "transactionIndex": "0xf",
      "blockHash": "0xa4d0b10a76209ab1b1c1d06320299252c070ff2b0df64baf739afed2b5ceb030",
      "blockNumber": "0x8da54b4",
      "gasUsed": "0xa488",
      "effectiveGasPrice": "0x165a0bc00",
      "from": "0x973c770d78e4183dc5464a819ba154e2d26d9048",
      "to": "0xd464e92c6441a38c6ec89dbf398e565eb565f9f8",
      "contractAddress": null
    },
    {
      "status": "0x1",
      "cumulativeGasUsed": "0xb7199b",
      "logs": [],
      "logsBloom": "0x00000000000000000000000000000000000000000000000000000000000000000000000000000000000000000000000000000000000000000000000000000000000000000000000000000000000000000000000000000000000000000000000000000000000000000000000000000000000000000000000000000000000000000000000000000000000000000000000000000000000000000000000000000000000000000000000000000000000000000000000000000000000000000000000000000000000000000000000000000000000000000000000000000000000000000000000000000000000000000000000000000000000000000000000000000000",
      "type": "0x2",
      "transactionHash": "0x6d6c007e1087c3670ff726940b16ffb7c1f3a778a8c2f9f7d0cb700ad1e43976",
      "transactionIndex": "0x10",
      "blockHash": "0xa4d0b10a76209ab1b1c1d06320299252c070ff2b0df64baf739afed2b5ceb030",
      "blockNumber": "0x8da54b4",
      "gasUsed": "0xa488",
      "effectiveGasPrice": "0x165a0bc00",
      "from": "0x973c770d78e4183dc5464a819ba154e2d26d9048",
      "to": "0xd464e92c6441a38c6ec89dbf398e565eb565f9f8",
      "contractAddress": null
    },
    {
      "status": "0x1",
      "cumulativeGasUsed": "0x1440127",
      "logs": [],
      "logsBloom": "0x00000000000000000000000000000000000000000000000000000000000000000000000000000000000000000000000000000000000000000000000000000000000000000000000000000000000000000000000000000000000000000000000000000000000000000000000000000000000000000000000000000000000000000000000000000000000000000000000000000000000000000000000000000000000000000000000000000000000000000000000000000000000000000000000000000000000000000000000000000000000000000000000000000000000000000000000000000000000000000000000000000000000000000000000000000000",
      "type": "0x2",
      "transactionHash": "0x7b616baa1e600a6f859f42ba23ca51bfb78b8e9d965336f39799e1be21caa425",
      "transactionIndex": "0xe",
      "blockHash": "0xc3e66cfe65d504ba75a609271501d3a9f4a94c93f2e2826300e6c67f53727e61",
      "blockNumber": "0x8da54ba",
      "gasUsed": "0x7c88",
      "effectiveGasPrice": "0x165a0bc00",
      "from": "0x973c770d78e4183dc5464a819ba154e2d26d9048",
      "to": "0x22510fc89fcc90a17c754c68cb581350b3f664be",
      "contractAddress": null
    },
    {
      "status": "0x1",
      "cumulativeGasUsed": "0x1447daf",
      "logs": [],
      "logsBloom": "0x00000000000000000000000000000000000000000000000000000000000000000000000000000000000000000000000000000000000000000000000000000000000000000000000000000000000000000000000000000000000000000000000000000000000000000000000000000000000000000000000000000000000000000000000000000000000000000000000000000000000000000000000000000000000000000000000000000000000000000000000000000000000000000000000000000000000000000000000000000000000000000000000000000000000000000000000000000000000000000000000000000000000000000000000000000000",
      "type": "0x2",
      "transactionHash": "0x718a735414a80fa53b993bb2f5c07edf0ebea32eb148c920c47b3140e19e35ee",
      "transactionIndex": "0xf",
      "blockHash": "0xc3e66cfe65d504ba75a609271501d3a9f4a94c93f2e2826300e6c67f53727e61",
      "blockNumber": "0x8da54ba",
      "gasUsed": "0x6888",
      "effectiveGasPrice": "0x165a0bc00",
      "from": "0x973c770d78e4183dc5464a819ba154e2d26d9048",
      "to": "0x1ce76bdc5ce3299ec84d2a1154aacfe5302ac452",
      "contractAddress": null
    },
    {
      "status": "0x1",
      "cumulativeGasUsed": "0x144e637",
      "logs": [],
      "logsBloom": "0x00000000000000000000000000000000000000000000000000000000000000000000000000000000000000000000000000000000000000000000000000000000000000000000000000000000000000000000000000000000000000000000000000000000000000000000000000000000000000000000000000000000000000000000000000000000000000000000000000000000000000000000000000000000000000000000000000000000000000000000000000000000000000000000000000000000000000000000000000000000000000000000000000000000000000000000000000000000000000000000000000000000000000000000000000000000",
      "type": "0x2",
      "transactionHash": "0x3e0439347106f9b5c9da88cb8dbf3f66c67fae7eeed1a51f0e62455c2593e3a1",
      "transactionIndex": "0x10",
      "blockHash": "0xc3e66cfe65d504ba75a609271501d3a9f4a94c93f2e2826300e6c67f53727e61",
      "blockNumber": "0x8da54ba",
      "gasUsed": "0x6888",
      "effectiveGasPrice": "0x165a0bc00",
      "from": "0x973c770d78e4183dc5464a819ba154e2d26d9048",
      "to": "0xe56cbbb241f23555d5539a5d305fce86e762a228",
      "contractAddress": null
    },
    {
      "status": "0x1",
      "cumulativeGasUsed": "0x1454ebf",
      "logs": [],
      "logsBloom": "0x00000000000000000000000000000000000000000000000000000000000000000000000000000000000000000000000000000000000000000000000000000000000000000000000000000000000000000000000000000000000000000000000000000000000000000000000000000000000000000000000000000000000000000000000000000000000000000000000000000000000000000000000000000000000000000000000000000000000000000000000000000000000000000000000000000000000000000000000000000000000000000000000000000000000000000000000000000000000000000000000000000000000000000000000000000000",
      "type": "0x2",
      "transactionHash": "0x3d5d0aaaee7863c85ab4abaaa2b5ce0dd3557c1af3a2e4c92e575963b2eace23",
      "transactionIndex": "0x11",
      "blockHash": "0xc3e66cfe65d504ba75a609271501d3a9f4a94c93f2e2826300e6c67f53727e61",
      "blockNumber": "0x8da54ba",
      "gasUsed": "0x6888",
      "effectiveGasPrice": "0x165a0bc00",
      "from": "0x973c770d78e4183dc5464a819ba154e2d26d9048",
      "to": "0xe56cbbb241f23555d5539a5d305fce86e762a228",
      "contractAddress": null
    },
    {
      "status": "0x1",
      "cumulativeGasUsed": "0x3fbcdd",
      "logs": [],
      "logsBloom": "0x00000000000000000000000000000000000000000000000000000000000000000000000000000000000000000000000000000000000000000000000000000000000000000000000000000000000000000000000000000000000000000000000000000000000000000000000000000000000000000000000000000000000000000000000000000000000000000000000000000000000000000000000000000000000000000000000000000000000000000000000000000000000000000000000000000000000000000000000000000000000000000000000000000000000000000000000000000000000000000000000000000000000000000000000000000000",
      "type": "0x2",
      "transactionHash": "0x175b828ba1f292a352835d96f94d5e5588675a5bf51f6c2ab3ae7f22ab746a5f",
      "transactionIndex": "0xc",
      "blockHash": "0x48b5be86b86c097a4fe07ffe9a83a79292d70a63e0dbc339865605f4cf06e486",
      "blockNumber": "0x8da54be",
      "gasUsed": "0xb888",
      "effectiveGasPrice": "0x165a0bc00",
      "from": "0x973c770d78e4183dc5464a819ba154e2d26d9048",
      "to": "0x1ce76bdc5ce3299ec84d2a1154aacfe5302ac452",
      "contractAddress": null
    },
    {
      "status": "0x1",
      "cumulativeGasUsed": "0x407565",
      "logs": [],
      "logsBloom": "0x00000000000000000000000000000000000000000000000000000000000000000000000000000000000000000000000000000000000000000000000000000000000000000000000000000000000000000000000000000000000000000000000000000000000000000000000000000000000000000000000000000000000000000000000000000000000000000000000000000000000000000000000000000000000000000000000000000000000000000000000000000000000000000000000000000000000000000000000000000000000000000000000000000000000000000000000000000000000000000000000000000000000000000000000000000000",
      "type": "0x2",
      "transactionHash": "0xe9e849eb57cbec83317658203b86ebe9df30208f561eeb32b20db5e6525f8770",
      "transactionIndex": "0xd",
      "blockHash": "0x48b5be86b86c097a4fe07ffe9a83a79292d70a63e0dbc339865605f4cf06e486",
      "blockNumber": "0x8da54be",
      "gasUsed": "0xb888",
      "effectiveGasPrice": "0x165a0bc00",
      "from": "0x973c770d78e4183dc5464a819ba154e2d26d9048",
      "to": "0x1ce76bdc5ce3299ec84d2a1154aacfe5302ac452",
      "contractAddress": null
    },
    {
      "status": "0x1",
      "cumulativeGasUsed": "0x412ded",
      "logs": [],
      "logsBloom": "0x00000000000000000000000000000000000000000000000000000000000000000000000000000000000000000000000000000000000000000000000000000000000000000000000000000000000000000000000000000000000000000000000000000000000000000000000000000000000000000000000000000000000000000000000000000000000000000000000000000000000000000000000000000000000000000000000000000000000000000000000000000000000000000000000000000000000000000000000000000000000000000000000000000000000000000000000000000000000000000000000000000000000000000000000000000000",
      "type": "0x2",
      "transactionHash": "0x5d935ab4301e887c4c0e2df886934926ec4dc0d7c0d6d6621589e2278f7a16fd",
      "transactionIndex": "0xe",
      "blockHash": "0x48b5be86b86c097a4fe07ffe9a83a79292d70a63e0dbc339865605f4cf06e486",
      "blockNumber": "0x8da54be",
      "gasUsed": "0xb888",
      "effectiveGasPrice": "0x165a0bc00",
      "from": "0x973c770d78e4183dc5464a819ba154e2d26d9048",
      "to": "0x1ce76bdc5ce3299ec84d2a1154aacfe5302ac452",
      "contractAddress": null
    },
    {
      "status": "0x1",
      "cumulativeGasUsed": "0x41e675",
      "logs": [],
      "logsBloom": "0x00000000000000000000000000000000000000000000000000000000000000000000000000000000000000000000000000000000000000000000000000000000000000000000000000000000000000000000000000000000000000000000000000000000000000000000000000000000000000000000000000000000000000000000000000000000000000000000000000000000000000000000000000000000000000000000000000000000000000000000000000000000000000000000000000000000000000000000000000000000000000000000000000000000000000000000000000000000000000000000000000000000000000000000000000000000",
      "type": "0x2",
      "transactionHash": "0xe41977a0b9291145878796da616e638f4f827ffe26c08a55cf2e99c38607a99f",
      "transactionIndex": "0xf",
      "blockHash": "0x48b5be86b86c097a4fe07ffe9a83a79292d70a63e0dbc339865605f4cf06e486",
      "blockNumber": "0x8da54be",
      "gasUsed": "0x7c88",
      "effectiveGasPrice": "0x165a0bc00",
      "from": "0x973c770d78e4183dc5464a819ba154e2d26d9048",
      "to": "0xb5e5433bba01a7d869b267b5b447000734f371bd",
      "contractAddress": null
    },
    {
      "status": "0x1",
      "cumulativeGasUsed": "0x4262fd",
      "logs": [],
      "logsBloom": "0x00000000000000000000000000000000000000000000000000000000000000000000000000000000000000000000000000000000000000000000000000000000000000000000000000000000000000000000000000000000000000000000000000000000000000000000000000000000000000000000000000000000000000000000000000000000000000000000000000000000000000000000000000000000000000000000000000000000000000000000000000000000000000000000000000000000000000000000000000000000000000000000000000000000000000000000000000000000000000000000000000000000000000000000000000000000",
      "type": "0x2",
      "transactionHash": "0xbe8b116c92b750a17a167e2d249e15ee719406e9ccfdc2f7776cb36a4872710d",
      "transactionIndex": "0x10",
      "blockHash": "0x48b5be86b86c097a4fe07ffe9a83a79292d70a63e0dbc339865605f4cf06e486",
      "blockNumber": "0x8da54be",
      "gasUsed": "0x9088",
      "effectiveGasPrice": "0x165a0bc00",
      "from": "0x973c770d78e4183dc5464a819ba154e2d26d9048",
      "to": "0x1ce76bdc5ce3299ec84d2a1154aacfe5302ac452",
      "contractAddress": null
    },
    {
      "status": "0x1",
      "cumulativeGasUsed": "0x42f385",
      "logs": [],
      "logsBloom": "0x00000000000000000000000000000000000000000000000000000000000000000000000000000000000000000000000000000000000000000000000000000000000000000000000000000000000000000000000000000000000000000000000000000000000000000000000000000000000000000000000000000000000000000000000000000000000000000000000000000000000000000000000000000000000000000000000000000000000000000000000000000000000000000000000000000000000000000000000000000000000000000000000000000000000000000000000000000000000000000000000000000000000000000000000000000000",
      "type": "0x2",
      "transactionHash": "0x7975524981ca31911dd03081f610b60bc1f0f0c8bba18ecdaaae53f5660d382c",
      "transactionIndex": "0x11",
      "blockHash": "0x48b5be86b86c097a4fe07ffe9a83a79292d70a63e0dbc339865605f4cf06e486",
      "blockNumber": "0x8da54be",
      "gasUsed": "0x7c88",
      "effectiveGasPrice": "0x165a0bc00",
      "from": "0x973c770d78e4183dc5464a819ba154e2d26d9048",
      "to": "0x23adac424fd41317253ab7341f416a8455d80666",
      "contractAddress": null
    },
    {
      "status": "0x1",
      "cumulativeGasUsed": "0x8f3cec",
      "logs": [],
      "logsBloom": "0x00000000000000000000000000000000000000000000000000000000000000000000000000000000000000000000000000000000000000000000000000000000000000000000000000000000000000000000000000000000000000000000000000000000000000000000000000000000000000000000000000000000000000000000000000000000000000000000000000000000000000000000000000000000000000000000000000000000000000000000000000000000000000000000000000000000000000000000000000000000000000000000000000000000000000000000000000000000000000000000000000000000000000000000000000000000",
      "type": "0x2",
      "transactionHash": "0x63949a2651d77f37025f9af484edfc5a47c5fcde95854fa7c618eb79f977b3ab",
      "transactionIndex": "0x4",
      "blockHash": "0x269ae6954a661dd589437ae41507c827d9d1c5974d4d414e3406d72fdf1c0c04",
      "blockNumber": "0x8da54c3",
      "gasUsed": "0x9088",
      "effectiveGasPrice": "0x165a0bc00",
      "from": "0x973c770d78e4183dc5464a819ba154e2d26d9048",
      "to": "0x1ce76bdc5ce3299ec84d2a1154aacfe5302ac452",
      "contractAddress": null
    },
    {
      "status": "0x1",
      "cumulativeGasUsed": "0x8fcd74",
      "logs": [],
      "logsBloom": "0x00000000000000000000000000000000000000000000000000000000000000000000000000000000000000000000000000000000000000000000000000000000000000000000000000000000000000000000000000000000000000000000000000000000000000000000000000000000000000000000000000000000000000000000000000000000000000000000000000000000000000000000000000000000000000000000000000000000000000000000000000000000000000000000000000000000000000000000000000000000000000000000000000000000000000000000000000000000000000000000000000000000000000000000000000000000",
      "type": "0x2",
      "transactionHash": "0xb2c35ebdaf72d3b6019ee4ba304a79ae878a21b501061da2c975cc54c91ebd24",
      "transactionIndex": "0x5",
      "blockHash": "0x269ae6954a661dd589437ae41507c827d9d1c5974d4d414e3406d72fdf1c0c04",
      "blockNumber": "0x8da54c3",
      "gasUsed": "0x7c88",
      "effectiveGasPrice": "0x165a0bc00",
      "from": "0x973c770d78e4183dc5464a819ba154e2d26d9048",
      "to": "0xd06cbe7da736fbe4e696d0186025133de930a75a",
      "contractAddress": null
    },
    {
      "status": "0x1",
      "cumulativeGasUsed": "0x9049fc",
      "logs": [],
      "logsBloom": "0x00000000000000000000000000000000000000000000000000000000000000000000000000000000000000000000000000000000000000000000000000000000000000000000000000000000000000000000000000000000000000000000000000000000000000000000000000000000000000000000000000000000000000000000000000000000000000000000000000000000000000000000000000000000000000000000000000000000000000000000000000000000000000000000000000000000000000000000000000000000000000000000000000000000000000000000000000000000000000000000000000000000000000000000000000000000",
      "type": "0x2",
      "transactionHash": "0x568a77eb9ceb42ce8d50b5a2b5dc971c285f6a78125e523c8e3e77f8d5ae4e37",
      "transactionIndex": "0x6",
      "blockHash": "0x269ae6954a661dd589437ae41507c827d9d1c5974d4d414e3406d72fdf1c0c04",
      "blockNumber": "0x8da54c3",
      "gasUsed": "0x9088",
      "effectiveGasPrice": "0x165a0bc00",
      "from": "0x973c770d78e4183dc5464a819ba154e2d26d9048",
      "to": "0x1ce76bdc5ce3299ec84d2a1154aacfe5302ac452",
      "contractAddress": null
    },
    {
      "status": "0x1",
      "cumulativeGasUsed": "0x90da84",
      "logs": [],
      "logsBloom": "0x00000000000000000000000000000000000000000000000000000000000000000000000000000000000000000000000000000000000000000000000000000000000000000000000000000000000000000000000000000000000000000000000000000000000000000000000000000000000000000000000000000000000000000000000000000000000000000000000000000000000000000000000000000000000000000000000000000000000000000000000000000000000000000000000000000000000000000000000000000000000000000000000000000000000000000000000000000000000000000000000000000000000000000000000000000000",
      "type": "0x2",
      "transactionHash": "0xed258107d09d417ce2c88a132f5faf81d1d5806788d8c8ac8601897b93bbf1d8",
      "transactionIndex": "0x7",
      "blockHash": "0x269ae6954a661dd589437ae41507c827d9d1c5974d4d414e3406d72fdf1c0c04",
      "blockNumber": "0x8da54c3",
      "gasUsed": "0x7c88",
      "effectiveGasPrice": "0x165a0bc00",
      "from": "0x973c770d78e4183dc5464a819ba154e2d26d9048",
      "to": "0xb5e5433bba01a7d869b267b5b447000734f371bd",
      "contractAddress": null
    },
    {
      "status": "0x1",
      "cumulativeGasUsed": "0x91570c",
      "logs": [],
      "logsBloom": "0x00000000000000000000000000000000000000000000000000000000000000000000000000000000000000000000000000000000000000000000000000000000000000000000000000000000000000000000000000000000000000000000000000000000000000000000000000000000000000000000000000000000000000000000000000000000000000000000000000000000000000000000000000000000000000000000000000000000000000000000000000000000000000000000000000000000000000000000000000000000000000000000000000000000000000000000000000000000000000000000000000000000000000000000000000000000",
      "type": "0x2",
      "transactionHash": "0x46e8722386cde9246e4cfe1680f86381e77dc81c7a8820825a6d2e772b65a454",
      "transactionIndex": "0x8",
      "blockHash": "0x269ae6954a661dd589437ae41507c827d9d1c5974d4d414e3406d72fdf1c0c04",
      "blockNumber": "0x8da54c3",
      "gasUsed": "0x9088",
      "effectiveGasPrice": "0x165a0bc00",
      "from": "0x973c770d78e4183dc5464a819ba154e2d26d9048",
      "to": "0x1ce76bdc5ce3299ec84d2a1154aacfe5302ac452",
      "contractAddress": null
    },
    {
      "status": "0x1",
      "cumulativeGasUsed": "0x91e794",
      "logs": [],
      "logsBloom": "0x00000000000000000000000000000000000000000000000000000000000000000000000000000000000000000000000000000000000000000000000000000000000000000000000000000000000000000000000000000000000000000000000000000000000000000000000000000000000000000000000000000000000000000000000000000000000000000000000000000000000000000000000000000000000000000000000000000000000000000000000000000000000000000000000000000000000000000000000000000000000000000000000000000000000000000000000000000000000000000000000000000000000000000000000000000000",
      "type": "0x2",
      "transactionHash": "0xbe822a96384d144a5699115f2c3ff920efd5dd74e7a7118b8055d0daed90d8ed",
      "transactionIndex": "0x9",
      "blockHash": "0x269ae6954a661dd589437ae41507c827d9d1c5974d4d414e3406d72fdf1c0c04",
      "blockNumber": "0x8da54c3",
      "gasUsed": "0x7c88",
      "effectiveGasPrice": "0x165a0bc00",
      "from": "0x973c770d78e4183dc5464a819ba154e2d26d9048",
      "to": "0x23adac424fd41317253ab7341f416a8455d80666",
      "contractAddress": null
    },
    {
      "status": "0x1",
      "cumulativeGasUsed": "0x92641c",
      "logs": [],
      "logsBloom": "0x00000000000000000000000000000000000000000000000000000000000000000000000000000000000000000000000000000000000000000000000000000000000000000000000000000000000000000000000000000000000000000000000000000000000000000000000000000000000000000000000000000000000000000000000000000000000000000000000000000000000000000000000000000000000000000000000000000000000000000000000000000000000000000000000000000000000000000000000000000000000000000000000000000000000000000000000000000000000000000000000000000000000000000000000000000000",
      "type": "0x2",
      "transactionHash": "0xcd8beee23a7f1eae3ffda2eb5949a9aac0f087a6bd37765dc394de24fe364682",
      "transactionIndex": "0xa",
      "blockHash": "0x269ae6954a661dd589437ae41507c827d9d1c5974d4d414e3406d72fdf1c0c04",
      "blockNumber": "0x8da54c3",
      "gasUsed": "0x9088",
      "effectiveGasPrice": "0x165a0bc00",
      "from": "0x973c770d78e4183dc5464a819ba154e2d26d9048",
      "to": "0x1ce76bdc5ce3299ec84d2a1154aacfe5302ac452",
      "contractAddress": null
    },
    {
      "status": "0x1",
      "cumulativeGasUsed": "0x1e480a",
      "logs": [],
      "logsBloom": "0x00000000000000000000000000000000000000000000000000000000000000000000000000000000000000000000000000000000000000000000000000000000000000000000000000000000000000000000000000000000000000000000000000000000000000000000000000000000000000000000000000000000000000000000000000000000000000000000000000000000000000000000000000000000000000000000000000000000000000000000000000000000000000000000000000000000000000000000000000000000000000000000000000000000000000000000000000000000000000000000000000000000000000000000000000000000",
      "type": "0x2",
      "transactionHash": "0x27d74bd64c7d0980627ae77d7a62d087d635c90ded90cd2dab19cf1fcb6d08c2",
      "transactionIndex": "0xf",
      "blockHash": "0x511672a97ca45f82f7beb07bd36004bfbdc76b4e1f6c4b92b7869a1d47ca6ad9",
      "blockNumber": "0x8da54cb",
      "gasUsed": "0x7c88",
      "effectiveGasPrice": "0x165a0bc00",
      "from": "0x973c770d78e4183dc5464a819ba154e2d26d9048",
      "to": "0xd06cbe7da736fbe4e696d0186025133de930a75a",
      "contractAddress": null
    },
    {
      "status": "0x1",
      "cumulativeGasUsed": "0x1ec492",
      "logs": [],
      "logsBloom": "0x00000000000000000000000000000000000000000000000000000000000000000000000000000000000000000000000000000000000000000000000000000000000000000000000000000000000000000000000000000000000000000000000000000000000000000000000000000000000000000000000000000000000000000000000000000000000000000000000000000000000000000000000000000000000000000000000000000000000000000000000000000000000000000000000000000000000000000000000000000000000000000000000000000000000000000000000000000000000000000000000000000000000000000000000000000000",
      "type": "0x2",
      "transactionHash": "0xe3eea20cca135541e997ea19583e6fe12912096088477548fca2702fce673afe",
      "transactionIndex": "0x10",
      "blockHash": "0x511672a97ca45f82f7beb07bd36004bfbdc76b4e1f6c4b92b7869a1d47ca6ad9",
      "blockNumber": "0x8da54cb",
      "gasUsed": "0x9088",
      "effectiveGasPrice": "0x165a0bc00",
      "from": "0x973c770d78e4183dc5464a819ba154e2d26d9048",
      "to": "0x1ce76bdc5ce3299ec84d2a1154aacfe5302ac452",
      "contractAddress": null
    },
    {
      "status": "0x1",
      "cumulativeGasUsed": "0x1f551a",
      "logs": [],
      "logsBloom": "0x00000000000000000000000000000000000000000000000000000000000000000000000000000000000000000000000000000000000000000000000000000000000000000000000000000000000000000000000000000000000000000000000000000000000000000000000000000000000000000000000000000000000000000000000000000000000000000000000000000000000000000000000000000000000000000000000000000000000000000000000000000000000000000000000000000000000000000000000000000000000000000000000000000000000000000000000000000000000000000000000000000000000000000000000000000000",
      "type": "0x2",
      "transactionHash": "0x54866a52a17d20cd4dfe4e596549298be756b467d25af9a331e0d6c852053a35",
      "transactionIndex": "0x11",
      "blockHash": "0x511672a97ca45f82f7beb07bd36004bfbdc76b4e1f6c4b92b7869a1d47ca6ad9",
      "blockNumber": "0x8da54cb",
      "gasUsed": "0x7c88",
      "effectiveGasPrice": "0x165a0bc00",
      "from": "0x973c770d78e4183dc5464a819ba154e2d26d9048",
      "to": "0xb5e5433bba01a7d869b267b5b447000734f371bd",
      "contractAddress": null
    },
    {
      "status": "0x1",
      "cumulativeGasUsed": "0x1fd1a2",
      "logs": [],
      "logsBloom": "0x00000000000000000000000000000000000000000000000000000000000000000000000000000000000000000000000000000000000000000000000000000000000000000000000000000000000000000000000000000000000000000000000000000000000000000000000000000000000000000000000000000000000000000000000000000000000000000000000000000000000000000000000000000000000000000000000000000000000000000000000000000000000000000000000000000000000000000000000000000000000000000000000000000000000000000000000000000000000000000000000000000000000000000000000000000000",
      "type": "0x2",
      "transactionHash": "0xb901137c78074fa8b679893ab5660a08f68033b5658f7c8f7f329b4430ae111f",
      "transactionIndex": "0x12",
      "blockHash": "0x511672a97ca45f82f7beb07bd36004bfbdc76b4e1f6c4b92b7869a1d47ca6ad9",
      "blockNumber": "0x8da54cb",
      "gasUsed": "0x9088",
      "effectiveGasPrice": "0x165a0bc00",
      "from": "0x973c770d78e4183dc5464a819ba154e2d26d9048",
      "to": "0x1ce76bdc5ce3299ec84d2a1154aacfe5302ac452",
      "contractAddress": null
    },
    {
      "status": "0x1",
      "cumulativeGasUsed": "0x20622a",
      "logs": [],
      "logsBloom": "0x00000000000000000000000000000000000000000000000000000000000000000000000000000000000000000000000000000000000000000000000000000000000000000000000000000000000000000000000000000000000000000000000000000000000000000000000000000000000000000000000000000000000000000000000000000000000000000000000000000000000000000000000000000000000000000000000000000000000000000000000000000000000000000000000000000000000000000000000000000000000000000000000000000000000000000000000000000000000000000000000000000000000000000000000000000000",
      "type": "0x2",
      "transactionHash": "0xb2922f590a762d4d788c4efd93a518e9bcd306b5e1a6a4885a428593adbe483f",
      "transactionIndex": "0x13",
      "blockHash": "0x511672a97ca45f82f7beb07bd36004bfbdc76b4e1f6c4b92b7869a1d47ca6ad9",
      "blockNumber": "0x8da54cb",
      "gasUsed": "0x7c88",
      "effectiveGasPrice": "0x165a0bc00",
      "from": "0x973c770d78e4183dc5464a819ba154e2d26d9048",
      "to": "0x23adac424fd41317253ab7341f416a8455d80666",
      "contractAddress": null
    },
    {
      "status": "0x1",
      "cumulativeGasUsed": "0x20deb2",
      "logs": [],
      "logsBloom": "0x00000000000000000000000000000000000000000000000000000000000000000000000000000000000000000000000000000000000000000000000000000000000000000000000000000000000000000000000000000000000000000000000000000000000000000000000000000000000000000000000000000000000000000000000000000000000000000000000000000000000000000000000000000000000000000000000000000000000000000000000000000000000000000000000000000000000000000000000000000000000000000000000000000000000000000000000000000000000000000000000000000000000000000000000000000000",
      "type": "0x2",
      "transactionHash": "0xf584a8794752d26e599df70bd8783fbf4b0ff2b9e3739612e2eaafff3f636366",
      "transactionIndex": "0x14",
      "blockHash": "0x511672a97ca45f82f7beb07bd36004bfbdc76b4e1f6c4b92b7869a1d47ca6ad9",
      "blockNumber": "0x8da54cb",
      "gasUsed": "0x9088",
      "effectiveGasPrice": "0x165a0bc00",
      "from": "0x973c770d78e4183dc5464a819ba154e2d26d9048",
      "to": "0x1ce76bdc5ce3299ec84d2a1154aacfe5302ac452",
      "contractAddress": null
    },
    {
      "status": "0x1",
      "cumulativeGasUsed": "0x216f3a",
      "logs": [],
      "logsBloom": "0x00000000000000000000000000000000000000000000000000000000000000000000000000000000000000000000000000000000000000000000000000000000000000000000000000000000000000000000000000000000000000000000000000000000000000000000000000000000000000000000000000000000000000000000000000000000000000000000000000000000000000000000000000000000000000000000000000000000000000000000000000000000000000000000000000000000000000000000000000000000000000000000000000000000000000000000000000000000000000000000000000000000000000000000000000000000",
      "type": "0x2",
      "transactionHash": "0x112d8026fdbc1c9f983b83c6b41fdb66b301a0285c372725537547f48a1920f7",
      "transactionIndex": "0x15",
      "blockHash": "0x511672a97ca45f82f7beb07bd36004bfbdc76b4e1f6c4b92b7869a1d47ca6ad9",
      "blockNumber": "0x8da54cb",
      "gasUsed": "0x7c88",
      "effectiveGasPrice": "0x165a0bc00",
      "from": "0x973c770d78e4183dc5464a819ba154e2d26d9048",
      "to": "0xd06cbe7da736fbe4e696d0186025133de930a75a",
      "contractAddress": null
    },
    {
      "status": "0x1",
      "cumulativeGasUsed": "0x116e5e",
      "logs": [],
      "logsBloom": "0x00000000000000000000000000000000000000000000000000000000000000000000000000000000000000000000000000000000000000000000000000000000000000000000000000000000000000000000000000000000000000000000000000000000000000000000000000000000000000000000000000000000000000000000000000000000000000000000000000000000000000000000000000000000000000000000000000000000000000000000000000000000000000000000000000000000000000000000000000000000000000000000000000000000000000000000000000000000000000000000000000000000000000000000000000000000",
      "type": "0x2",
      "transactionHash": "0xcb1ac86ff8fafde400f73162845af0db2bf11458e259323f1fa7c0b74375049b",
      "transactionIndex": "0x7",
      "blockHash": "0xe4cd34b72b13e0b2af34b5508759e3e9f2f8064c20786d9fa8666ceb936a48c1",
      "blockNumber": "0x8da54cf",
      "gasUsed": "0x9088",
      "effectiveGasPrice": "0x165a0bc00",
      "from": "0x973c770d78e4183dc5464a819ba154e2d26d9048",
      "to": "0x1ce76bdc5ce3299ec84d2a1154aacfe5302ac452",
      "contractAddress": null
    },
    {
      "status": "0x1",
      "cumulativeGasUsed": "0x11fee6",
      "logs": [],
      "logsBloom": "0x00000000000000000000000000000000000000000000000000000000000000000000000000000000000000000000000000000000000000000000000000000000000000000000000000000000000000000000000000000000000000000000000000000000000000000000000000000000000000000000000000000000000000000000000000000000000000000000000000000000000000000000000000000000000000000000000000000000000000000000000000000000000000000000000000000000000000000000000000000000000000000000000000000000000000000000000000000000000000000000000000000000000000000000000000000000",
      "type": "0x2",
      "transactionHash": "0x696657b91285ab084d38de2fcaa5457bc1c861b4a43832517ffac393cb671abb",
      "transactionIndex": "0x8",
      "blockHash": "0xe4cd34b72b13e0b2af34b5508759e3e9f2f8064c20786d9fa8666ceb936a48c1",
      "blockNumber": "0x8da54cf",
      "gasUsed": "0x6888",
      "effectiveGasPrice": "0x165a0bc00",
      "from": "0x973c770d78e4183dc5464a819ba154e2d26d9048",
      "to": "0x22510fc89fcc90a17c754c68cb581350b3f664be",
      "contractAddress": null
    },
    {
      "status": "0x1",
      "cumulativeGasUsed": "0x12676e",
      "logs": [],
      "logsBloom": "0x00000000000000000000000000000000000000000000000000000000000000000000000000000000000000000000000000000000000000000000000000000000000000000000000000000000000000000000000000000000000000000000000000000000000000000000000000000000000000000000000000000000000000000000000000000000000000000000000000000000000000000000000000000000000000000000000000000000000000000000000000000000000000000000000000000000000000000000000000000000000000000000000000000000000000000000000000000000000000000000000000000000000000000000000000000000",
      "type": "0x2",
      "transactionHash": "0xa83e650266e74b7f9dde26fb786cf5d52e3f9c7e8adf0f35b5df2c7bf796e19e",
      "transactionIndex": "0x9",
      "blockHash": "0xe4cd34b72b13e0b2af34b5508759e3e9f2f8064c20786d9fa8666ceb936a48c1",
      "blockNumber": "0x8da54cf",
      "gasUsed": "0x6888",
      "effectiveGasPrice": "0x165a0bc00",
      "from": "0x973c770d78e4183dc5464a819ba154e2d26d9048",
      "to": "0x22510fc89fcc90a17c754c68cb581350b3f664be",
      "contractAddress": null
    },
    {
      "status": "0x1",
      "cumulativeGasUsed": "0x12cff6",
      "logs": [],
      "logsBloom": "0x00000000000000000000000000000000000000000000000000000000000000000000000000000000000000000000000000000000000000000000000000000000000000000000000000000000000000000000000000000000000000000000000000000000000000000000000000000000000000000000000000000000000000000000000000000000000000000000000000000000000000000000000000000000000000000000000000000000000000000000000000000000000000000000000000000000000000000000000000000000000000000000000000000000000000000000000000000000000000000000000000000000000000000000000000000000",
      "type": "0x2",
      "transactionHash": "0xd88fd39020233568c87e5c215b702d342e333996121a20e87ae77bff44e210a7",
      "transactionIndex": "0xa",
      "blockHash": "0xe4cd34b72b13e0b2af34b5508759e3e9f2f8064c20786d9fa8666ceb936a48c1",
      "blockNumber": "0x8da54cf",
      "gasUsed": "0x6888",
      "effectiveGasPrice": "0x165a0bc00",
      "from": "0x973c770d78e4183dc5464a819ba154e2d26d9048",
      "to": "0x22510fc89fcc90a17c754c68cb581350b3f664be",
      "contractAddress": null
    },
    {
      "status": "0x1",
      "cumulativeGasUsed": "0x13387e",
      "logs": [],
      "logsBloom": "0x00000000000000000000000000000000000000000000000000000000000000000000000000000000000000000000000000000000000000000000000000000000000000000000000000000000000000000000000000000000000000000000000000000000000000000000000000000000000000000000000000000000000000000000000000000000000000000000000000000000000000000000000000000000000000000000000000000000000000000000000000000000000000000000000000000000000000000000000000000000000000000000000000000000000000000000000000000000000000000000000000000000000000000000000000000000",
      "type": "0x2",
      "transactionHash": "0xb909112eb4945c15cc1eb540a188901ef704829e70584a18b5893b38c05a9a6f",
      "transactionIndex": "0xb",
      "blockHash": "0xe4cd34b72b13e0b2af34b5508759e3e9f2f8064c20786d9fa8666ceb936a48c1",
      "blockNumber": "0x8da54cf",
      "gasUsed": "0x9088",
      "effectiveGasPrice": "0x165a0bc00",
      "from": "0x973c770d78e4183dc5464a819ba154e2d26d9048",
      "to": "0x2d27ecfed170176c63d9767e292b0fbab161d1cb",
      "contractAddress": null
    },
    {
      "status": "0x1",
      "cumulativeGasUsed": "0x13c906",
      "logs": [],
      "logsBloom": "0x00000000000000000000000000000000000000000000000000000000000000000000000000000000000000000000000000000000000000000000000000000000000000000000000000000000000000000000000000000000000000000000000000000000000000000000000000000000000000000000000000000000000000000000000000000000000000000000000000000000000000000000000000000000000000000000000000000000000000000000000000000000000000000000000000000000000000000000000000000000000000000000000000000000000000000000000000000000000000000000000000000000000000000000000000000000",
      "type": "0x2",
      "transactionHash": "0x3acbce190717107bb4e3ab754077a0fe99e29dc2326ff1459cd4d269bfb22e75",
      "transactionIndex": "0xc",
      "blockHash": "0xe4cd34b72b13e0b2af34b5508759e3e9f2f8064c20786d9fa8666ceb936a48c1",
      "blockNumber": "0x8da54cf",
      "gasUsed": "0x7c88",
      "effectiveGasPrice": "0x165a0bc00",
      "from": "0x973c770d78e4183dc5464a819ba154e2d26d9048",
      "to": "0xd06cbe7da736fbe4e696d0186025133de930a75a",
      "contractAddress": null
    },
    {
      "status": "0x1",
      "cumulativeGasUsed": "0x14458e",
      "logs": [],
      "logsBloom": "0x00000000000000000000000000000000000000000000000000000000000000000000000000000000000000000000000000000000000000000000000000000000000000000000000000000000000000000000000000000000000000000000000000000000000000000000000000000000000000000000000000000000000000000000000000000000000000000000000000000000000000000000000000000000000000000000000000000000000000000000000000000000000000000000000000000000000000000000000000000000000000000000000000000000000000000000000000000000000000000000000000000000000000000000000000000000",
      "type": "0x2",
      "transactionHash": "0x7e2870f4fa2d4ec49960cc16704240fe704ab989ce63105a268b7cb22c61ebd2",
      "transactionIndex": "0xd",
      "blockHash": "0xe4cd34b72b13e0b2af34b5508759e3e9f2f8064c20786d9fa8666ceb936a48c1",
      "blockNumber": "0x8da54cf",
      "gasUsed": "0x7c88",
      "effectiveGasPrice": "0x165a0bc00",
      "from": "0x973c770d78e4183dc5464a819ba154e2d26d9048",
      "to": "0x2d27ecfed170176c63d9767e292b0fbab161d1cb",
      "contractAddress": null
    }
  ],
  "libraries": [],
  "pending": [],
  "returns": {},
  "timestamp": 1755074141,
  "chain": 50312,
  "commit": null
}